{
  "contractName": "Artists",
  "abi": [
    {
      "anonymous": false,
      "inputs": [
        {
          "indexed": false,
          "internalType": "bool",
          "name": "_created",
          "type": "bool"
        },
        {
          "indexed": false,
          "internalType": "string",
          "name": "_artistName",
          "type": "string"
        },
        {
          "indexed": false,
          "internalType": "address",
          "name": "_artistAddress",
          "type": "address"
        }
      ],
      "name": "ArtistUpdated",
      "type": "event"
    },
    {
      "anonymous": false,
      "inputs": [
        {
          "indexed": true,
          "internalType": "address",
          "name": "previousOwner",
          "type": "address"
        },
        {
          "indexed": true,
          "internalType": "address",
          "name": "newOwner",
          "type": "address"
        }
      ],
      "name": "OwnershipTransferred",
      "type": "event"
    },
    {
      "inputs": [
        {
          "internalType": "uint256",
          "name": "",
          "type": "uint256"
        }
      ],
      "name": "artistArray",
      "outputs": [
        {
          "internalType": "address",
          "name": "",
          "type": "address"
        }
      ],
      "stateMutability": "view",
      "type": "function"
    },
    {
      "inputs": [],
      "name": "owner",
      "outputs": [
        {
          "internalType": "address",
          "name": "",
          "type": "address"
        }
      ],
      "stateMutability": "view",
      "type": "function"
    },
    {
      "inputs": [],
      "name": "renounceOwnership",
      "outputs": [],
      "stateMutability": "nonpayable",
      "type": "function"
    },
    {
      "inputs": [
        {
          "internalType": "address",
          "name": "newOwner",
          "type": "address"
        }
      ],
      "name": "transferOwnership",
      "outputs": [],
      "stateMutability": "nonpayable",
      "type": "function"
    },
    {
      "inputs": [
        {
          "internalType": "string",
          "name": "_artistName",
          "type": "string"
        },
        {
          "internalType": "string",
          "name": "_artistDescription",
          "type": "string"
        }
      ],
      "name": "setArtist",
      "outputs": [],
      "stateMutability": "nonpayable",
      "type": "function"
    },
    {
      "inputs": [
        {
          "internalType": "address",
          "name": "_artist",
          "type": "address"
        },
        {
          "internalType": "bool",
          "name": "_verified",
          "type": "bool"
        }
      ],
      "name": "verifyArtist",
      "outputs": [],
      "stateMutability": "nonpayable",
      "type": "function"
    },
    {
      "inputs": [],
      "name": "getArtistArray",
      "outputs": [
        {
          "internalType": "address[]",
          "name": "",
          "type": "address[]"
        }
      ],
      "stateMutability": "view",
      "type": "function"
    },
    {
      "inputs": [
        {
          "internalType": "address",
          "name": "artistAddress",
          "type": "address"
        }
      ],
      "name": "getArtistDetails",
      "outputs": [
        {
          "internalType": "string",
          "name": "name",
          "type": "string"
        },
        {
          "internalType": "string",
          "name": "description",
          "type": "string"
        },
        {
          "internalType": "bool",
          "name": "verified",
          "type": "bool"
        },
        {
          "internalType": "address[]",
          "name": "collections",
          "type": "address[]"
        }
      ],
      "stateMutability": "view",
      "type": "function"
    }
  ],
  "bytecode": "0x608060405234801561001057600080fd5b5061001a3361001f565b61006f565b600080546001600160a01b038381166001600160a01b0319831681178455604051919092169283917f8be0079c531659141344cd1fd0a4f28419497f9722a3daafe3b4186f6b6457e09190a35050565b610b108061007e6000396000f3fe608060405234801561001057600080fd5b50600436106100785760003560e01c806332b4e78e1461007d5780633a96f51d14610092578063715018a6146100b05780638da5cb5b146100b8578063a5ed38d0146100d8578063d81b39a5146100eb578063f2fde38b1461010e578063fc622b6614610121575b600080fd5b61009061008b3660046107ca565b610134565b005b61009a61020a565b6040516100a7919061084a565b60405180910390f35b61009061026c565b6100c06102a7565b6040516001600160a01b0390911681526020016100a7565b6100c06100e6366004610864565b6102b6565b6100fe6100f936600461087d565b6102e0565b6040516100a794939291906108e5565b61009061011c36600461087d565b6104a1565b61009061012f3660046109d4565b610541565b3361013d6102a7565b6001600160a01b03161461016c5760405162461bcd60e51b815260040161016390610a38565b60405180910390fd5b6001600160a01b03821660009081526001602081905260409091206002015460ff161515146101d65760405162461bcd60e51b815260206004820152601660248201527561727469737420646f6573206e6f742065786973747360501b6044820152606401610163565b6001600160a01b03909116600090815260016020526040902060020180549115156101000261ff0019909216919091179055565b6060600280548060200260200160405190810160405280929190818152602001828054801561026257602002820191906000526020600020905b81546001600160a01b03168152600190910190602001808311610244575b5050505050905090565b336102756102a7565b6001600160a01b03161461029b5760405162461bcd60e51b815260040161016390610a38565b6102a560006106c5565b565b6000546001600160a01b031690565b600281815481106102c657600080fd5b6000918252602090912001546001600160a01b0316905081565b6001600160a01b038116600090815260016020819052604082206002810154815460609485949093859390929183019161010090910460ff16906003840190849061032a90610a6d565b80601f016020809104026020016040519081016040528092919081815260200182805461035690610a6d565b80156103a35780601f10610378576101008083540402835291602001916103a3565b820191906000526020600020905b81548152906001019060200180831161038657829003601f168201915b505050505093508280546103b690610a6d565b80601f01602080910402602001604051908101604052809291908181526020018280546103e290610a6d565b801561042f5780601f106104045761010080835404028352916020019161042f565b820191906000526020600020905b81548152906001019060200180831161041257829003601f168201915b505050505092508080548060200260200160405190810160405280929190818152602001828054801561048b57602002820191906000526020600020905b81546001600160a01b0316815260019091019060200180831161046d575b5050505050905093509350935093509193509193565b336104aa6102a7565b6001600160a01b0316146104d05760405162461bcd60e51b815260040161016390610a38565b6001600160a01b0381166105355760405162461bcd60e51b815260206004820152602660248201527f4f776e61626c653a206e6577206f776e657220697320746865207a65726f206160448201526564647265737360d01b6064820152608401610163565b61053e816106c5565b50565b60008251116105905760405162461bcd60e51b815260206004820152601b60248201527a617274697374206e616d652063616e6e6f7420626520656d70747960281b6044820152606401610163565b33600090815260016020908152604090912083516105b092850190610715565b5033600090815260016020818152604090922083516105d793919092019190840190610715565b503360009081526001602052604081206002015460ff1615159003610691573360008181526001602081905260408083206002908101805460ff1916841790558054808401825593527f405787fa12a823e0f2b7631cc41b3ba8828b3321ca811111fa75cd3aa3bb5ace90920180546001600160a01b0319168417905590517f0c568080c9f2d17381ac0b5a1d445d1e0c05884108126da188a737d979bd2308926106859291869190610aa7565b60405180910390a15050565b7f0c568080c9f2d17381ac0b5a1d445d1e0c05884108126da188a737d979bd23086000833360405161068593929190610aa7565b600080546001600160a01b038381166001600160a01b0319831681178455604051919092169283917f8be0079c531659141344cd1fd0a4f28419497f9722a3daafe3b4186f6b6457e09190a35050565b82805461072190610a6d565b90600052602060002090601f0160209004810192826107435760008555610789565b82601f1061075c57805160ff1916838001178555610789565b82800160010185558215610789579182015b8281111561078957825182559160200191906001019061076e565b50610795929150610799565b5090565b5b80821115610795576000815560010161079a565b80356001600160a01b03811681146107c557600080fd5b919050565b600080604083850312156107dd57600080fd5b6107e6836107ae565b9150602083013580151581146107fb57600080fd5b809150509250929050565b600081518084526020808501945080840160005b8381101561083f5781516001600160a01b03168752958201959082019060010161081a565b509495945050505050565b60208152600061085d6020830184610806565b9392505050565b60006020828403121561087657600080fd5b5035919050565b60006020828403121561088f57600080fd5b61085d826107ae565b6000815180845260005b818110156108be576020818501810151868301820152016108a2565b818111156108d0576000602083870101525b50601f01601f19169290920160200192915050565b6080815260006108f86080830187610898565b828103602084015261090a8187610898565b9050841515604084015282810360608401526109268185610806565b979650505050505050565b634e487b7160e01b600052604160045260246000fd5b600082601f83011261095857600080fd5b813567ffffffffffffffff8082111561097357610973610931565b604051601f8301601f19908116603f0116810190828211818310171561099b5761099b610931565b816040528381528660208588010111156109b457600080fd5b836020870160208301376000602085830101528094505050505092915050565b600080604083850312156109e757600080fd5b823567ffffffffffffffff808211156109ff57600080fd5b610a0b86838701610947565b93506020850135915080821115610a2157600080fd5b50610a2e85828601610947565b9150509250929050565b6020808252818101527f4f776e61626c653a2063616c6c6572206973206e6f7420746865206f776e6572604082015260600190565b600181811c90821680610a8157607f821691505b602082108103610aa157634e487b7160e01b600052602260045260246000fd5b50919050565b8315158152606060208201526000610ac26060830185610898565b905060018060a01b038316604083015294935050505056fea26469706673582212205aebf0b631ccb31101b32e0bfe7eca1ac698d887ebea5c5fd85ae98ee9a7510964736f6c634300080e0033",
  "immutableReferences": {},
  "source": "// SPDX-License-Identifier: MIT\r\npragma solidity 0.8.14;\r\n\r\nimport \"@openzeppelin/contracts/access/Ownable.sol\";\r\n\r\n/** \r\n  * @title MintIt Artists smart contract\r\n  * @author Geoffrey B. / Christophe B.\r\n  * @notice Artists contract to manage Artists informations\r\n  */\r\ncontract Artists is Ownable{\r\n\r\n    // structure to store artists informations\r\n    struct artist {\r\n      string name;\r\n      string description;\r\n      bool created;\r\n      bool verified;\r\n      address[] collections;\r\n    }\r\n    mapping(address => artist) internal artists;\r\n    // Array of artist addresses\r\n    address[] public artistArray;\r\n\r\n    /// @notice Event emitted each time a new artist is created or updated\r\n    event ArtistUpdated(bool _created, string _artistName, address _artistAddress);\r\n\r\n    /**\r\n      * @notice Create or update an artist\r\n      */\r\n    function setArtist(string memory _artistName, string memory _artistDescription) public  {\r\n        require(bytes(_artistName).length > 0, \"artist name cannot be empty\");\r\n        artists[msg.sender].name = _artistName;\r\n        artists[msg.sender].description = _artistDescription;\r\n\r\n        if (artists[msg.sender].created == false) {\r\n          artists[msg.sender].created = true;\r\n          artistArray.push(msg.sender);\r\n          emit ArtistUpdated(true, _artistName, msg.sender);\r\n        }\r\n        else\r\n          emit ArtistUpdated(false, _artistName, msg.sender);\r\n    }\r\n    \r\n    /**\r\n      * @notice Verify or Unverify an existing artist\r\n      */\r\n    function verifyArtist(address _artist, bool _verified) public onlyOwner {\r\n        require(artists[_artist].created == true, \"artist does not exists\");\r\n        artists[_artist].verified = _verified;\r\n    }\r\n\r\n    /**\r\n      * @notice Return the list of artist addresses created\r\n      *\r\n      * @return artistArray the array of artis addresses\r\n      */    \r\n    function getArtistArray() public view returns( address  [] memory){\r\n        return artistArray;\r\n    }\r\n\r\n    /**\r\n      * @notice Return the details of an artist based on its address\r\n      *\r\n      * @return name of the artist\r\n      * @return description of the artist\r\n      * @return verified information about the artist\r\n      */    \r\n    function getArtistDetails(address artistAddress) public view returns (string memory name, string memory description, bool verified, address[] memory collections) {\r\n        return (artists[artistAddress].name, artists[artistAddress].description, artists[artistAddress].verified, artists[artistAddress].collections);\r\n    }\r\n}",
  "sourcePath": "C:\\Users\\Geof\\OneDrive\\Documents\\crypto_project\\mintit\\contracts\\Artists.sol",
  "compiler": {
    "name": "solc",
    "version": "0.8.14+commit.80d49f37.Emscripten.clang"
  },
  "schemaVersion": "3.4.7",
  "updatedAt": "2022-05-26T20:23:49.371Z",
  "devdoc": {
    "author": "Geoffrey B. / Christophe B.",
    "kind": "dev",
    "methods": {
      "getArtistArray()": {
        "returns": {
          "_0": "artistArray the array of artis addresses"
        }
      },
      "getArtistDetails(address)": {
        "returns": {
          "description": "of the artist",
          "name": "of the artist",
          "verified": "information about the artist"
        }
      },
      "owner()": {
        "details": "Returns the address of the current owner."
      },
      "renounceOwnership()": {
        "details": "Leaves the contract without owner. It will not be possible to call `onlyOwner` functions anymore. Can only be called by the current owner. NOTE: Renouncing ownership will leave the contract without an owner, thereby removing any functionality that is only available to the owner."
      },
      "transferOwnership(address)": {
        "details": "Transfers ownership of the contract to a new account (`newOwner`). Can only be called by the current owner."
      }
    },
    "title": "MintIt Artists smart contract",
    "version": 1
  },
  "userdoc": {
    "events": {
      "ArtistUpdated(bool,string,address)": {
        "notice": "Event emitted each time a new artist is created or updated"
      }
    },
    "kind": "user",
    "methods": {
      "getArtistArray()": {
        "notice": "Return the list of artist addresses created"
      },
      "getArtistDetails(address)": {
        "notice": "Return the details of an artist based on its address"
      },
      "setArtist(string,string)": {
        "notice": "Create or update an artist"
      },
      "verifyArtist(address,bool)": {
        "notice": "Verify or Unverify an existing artist"
      }
    },
    "notice": "Artists contract to manage Artists informations",
    "version": 1
  }
}