{
  "contractName": "Artists",
  "abi": [
    {
      "anonymous": false,
      "inputs": [
        {
          "indexed": false,
          "internalType": "bool",
          "name": "_created",
          "type": "bool"
        },
        {
          "indexed": false,
          "internalType": "string",
          "name": "_artistName",
          "type": "string"
        },
        {
          "indexed": false,
          "internalType": "address",
          "name": "_artistAddress",
          "type": "address"
        }
      ],
      "name": "ArtistUpdated",
      "type": "event"
    },
    {
      "anonymous": false,
      "inputs": [
        {
          "indexed": true,
          "internalType": "address",
          "name": "previousOwner",
          "type": "address"
        },
        {
          "indexed": true,
          "internalType": "address",
          "name": "newOwner",
          "type": "address"
        }
      ],
      "name": "OwnershipTransferred",
      "type": "event"
    },
    {
      "inputs": [
        {
          "internalType": "uint256",
          "name": "",
          "type": "uint256"
        }
      ],
      "name": "artistArray",
      "outputs": [
        {
          "internalType": "address",
          "name": "",
          "type": "address"
        }
      ],
      "stateMutability": "view",
      "type": "function"
    },
    {
      "inputs": [],
      "name": "owner",
      "outputs": [
        {
          "internalType": "address",
          "name": "",
          "type": "address"
        }
      ],
      "stateMutability": "view",
      "type": "function"
    },
    {
      "inputs": [],
      "name": "renounceOwnership",
      "outputs": [],
      "stateMutability": "nonpayable",
      "type": "function"
    },
    {
      "inputs": [
        {
          "internalType": "address",
          "name": "newOwner",
          "type": "address"
        }
      ],
      "name": "transferOwnership",
      "outputs": [],
      "stateMutability": "nonpayable",
      "type": "function"
    },
    {
      "inputs": [
        {
          "internalType": "string",
          "name": "_artistName",
          "type": "string"
        },
        {
          "internalType": "string",
          "name": "_artistDescription",
          "type": "string"
        }
      ],
      "name": "setArtist",
      "outputs": [],
      "stateMutability": "nonpayable",
      "type": "function"
    },
    {
      "inputs": [
        {
          "internalType": "address",
          "name": "_artist",
          "type": "address"
        },
        {
          "internalType": "bool",
          "name": "_verified",
          "type": "bool"
        }
      ],
      "name": "verifyArtist",
      "outputs": [],
      "stateMutability": "nonpayable",
      "type": "function"
    },
    {
      "inputs": [],
      "name": "getArtistArray",
      "outputs": [
        {
          "internalType": "address[]",
          "name": "",
          "type": "address[]"
        }
      ],
      "stateMutability": "view",
      "type": "function"
    },
    {
      "inputs": [
        {
          "internalType": "address",
          "name": "artistAddress",
          "type": "address"
        }
      ],
      "name": "getArtistDetails",
      "outputs": [
        {
          "internalType": "string",
          "name": "name",
          "type": "string"
        },
        {
          "internalType": "string",
          "name": "description",
          "type": "string"
        },
        {
          "internalType": "bool",
          "name": "verified",
          "type": "bool"
        }
      ],
      "stateMutability": "view",
      "type": "function"
    }
  ],
  "bytecode": "0x608060405234801561001057600080fd5b5061002d61002261003260201b60201c565b61003a60201b60201c565b6100fe565b600033905090565b60008060009054906101000a900473ffffffffffffffffffffffffffffffffffffffff169050816000806101000a81548173ffffffffffffffffffffffffffffffffffffffff021916908373ffffffffffffffffffffffffffffffffffffffff1602179055508173ffffffffffffffffffffffffffffffffffffffff168173ffffffffffffffffffffffffffffffffffffffff167f8be0079c531659141344cd1fd0a4f28419497f9722a3daafe3b4186f6b6457e060405160405180910390a35050565b61131f8061010d6000396000f3fe608060405234801561001057600080fd5b50600436106100785760003560e01c806332b4e78e1461007d5780633a96f51d14610099578063715018a6146100b75780638da5cb5b146100c1578063a5ed38d0146100df578063d81b39a51461010f578063f2fde38b14610141578063fc622b661461015d575b600080fd5b61009760048036038101906100929190610c01565b610179565b005b6100a16102e9565b6040516100ae9190610cff565b60405180910390f35b6100bf610377565b005b6100c96103ff565b6040516100d69190610d30565b60405180910390f35b6100f960048036038101906100f49190610d81565b610428565b6040516101069190610d30565b60405180910390f35b61012960048036038101906101249190610dae565b610467565b60405161013893929190610e83565b60405180910390f35b61015b60048036038101906101569190610dae565b610665565b005b61017760048036038101906101729190610ffd565b61075c565b005b6101816109e8565b73ffffffffffffffffffffffffffffffffffffffff1661019f6103ff565b73ffffffffffffffffffffffffffffffffffffffff16146101f5576040517f08c379a00000000000000000000000000000000000000000000000000000000081526004016101ec906110c1565b60405180910390fd5b60011515600160008473ffffffffffffffffffffffffffffffffffffffff1673ffffffffffffffffffffffffffffffffffffffff16815260200190815260200160002060020160009054906101000a900460ff1615151461028b576040517f08c379a00000000000000000000000000000000000000000000000000000000081526004016102829061112d565b60405180910390fd5b80600160008473ffffffffffffffffffffffffffffffffffffffff1673ffffffffffffffffffffffffffffffffffffffff16815260200190815260200160002060020160016101000a81548160ff0219169083151502179055505050565b6060600280548060200260200160405190810160405280929190818152602001828054801561036d57602002820191906000526020600020905b8160009054906101000a900473ffffffffffffffffffffffffffffffffffffffff1673ffffffffffffffffffffffffffffffffffffffff1681526020019060010190808311610323575b5050505050905090565b61037f6109e8565b73ffffffffffffffffffffffffffffffffffffffff1661039d6103ff565b73ffffffffffffffffffffffffffffffffffffffff16146103f3576040517f08c379a00000000000000000000000000000000000000000000000000000000081526004016103ea906110c1565b60405180910390fd5b6103fd60006109f0565b565b60008060009054906101000a900473ffffffffffffffffffffffffffffffffffffffff16905090565b6002818154811061043857600080fd5b906000526020600020016000915054906101000a900473ffffffffffffffffffffffffffffffffffffffff1681565b6060806000600160008573ffffffffffffffffffffffffffffffffffffffff1673ffffffffffffffffffffffffffffffffffffffff168152602001908152602001600020600001600160008673ffffffffffffffffffffffffffffffffffffffff1673ffffffffffffffffffffffffffffffffffffffff168152602001908152602001600020600101600160008773ffffffffffffffffffffffffffffffffffffffff1673ffffffffffffffffffffffffffffffffffffffff16815260200190815260200160002060020160019054906101000a900460ff1682805461054c9061117c565b80601f01602080910402602001604051908101604052809291908181526020018280546105789061117c565b80156105c55780601f1061059a576101008083540402835291602001916105c5565b820191906000526020600020905b8154815290600101906020018083116105a857829003601f168201915b505050505092508180546105d89061117c565b80601f01602080910402602001604051908101604052809291908181526020018280546106049061117c565b80156106515780601f1061062657610100808354040283529160200191610651565b820191906000526020600020905b81548152906001019060200180831161063457829003601f168201915b505050505091509250925092509193909250565b61066d6109e8565b73ffffffffffffffffffffffffffffffffffffffff1661068b6103ff565b73ffffffffffffffffffffffffffffffffffffffff16146106e1576040517f08c379a00000000000000000000000000000000000000000000000000000000081526004016106d8906110c1565b60405180910390fd5b600073ffffffffffffffffffffffffffffffffffffffff168173ffffffffffffffffffffffffffffffffffffffff1603610750576040517f08c379a00000000000000000000000000000000000000000000000000000000081526004016107479061121f565b60405180910390fd5b610759816109f0565b50565b60008251116107a0576040517f08c379a00000000000000000000000000000000000000000000000000000000081526004016107979061128b565b60405180910390fd5b81600160003373ffffffffffffffffffffffffffffffffffffffff1673ffffffffffffffffffffffffffffffffffffffff16815260200190815260200160002060000190805190602001906107f6929190610ab4565b5080600160003373ffffffffffffffffffffffffffffffffffffffff1673ffffffffffffffffffffffffffffffffffffffff168152602001908152602001600020600101908051906020019061084d929190610ab4565b5060001515600160003373ffffffffffffffffffffffffffffffffffffffff1673ffffffffffffffffffffffffffffffffffffffff16815260200190815260200160002060020160009054906101000a900460ff161515036109a75760018060003373ffffffffffffffffffffffffffffffffffffffff1673ffffffffffffffffffffffffffffffffffffffff16815260200190815260200160002060020160006101000a81548160ff0219169083151502179055506002339080600181540180825580915050600190039060005260206000200160009091909190916101000a81548173ffffffffffffffffffffffffffffffffffffffff021916908373ffffffffffffffffffffffffffffffffffffffff1602179055507f0c568080c9f2d17381ac0b5a1d445d1e0c05884108126da188a737d979bd23086001833360405161099a939291906112ab565b60405180910390a16109e4565b7f0c568080c9f2d17381ac0b5a1d445d1e0c05884108126da188a737d979bd2308600083336040516109db939291906112ab565b60405180910390a15b5050565b600033905090565b60008060009054906101000a900473ffffffffffffffffffffffffffffffffffffffff169050816000806101000a81548173ffffffffffffffffffffffffffffffffffffffff021916908373ffffffffffffffffffffffffffffffffffffffff1602179055508173ffffffffffffffffffffffffffffffffffffffff168173ffffffffffffffffffffffffffffffffffffffff167f8be0079c531659141344cd1fd0a4f28419497f9722a3daafe3b4186f6b6457e060405160405180910390a35050565b828054610ac09061117c565b90600052602060002090601f016020900481019282610ae25760008555610b29565b82601f10610afb57805160ff1916838001178555610b29565b82800160010185558215610b29579182015b82811115610b28578251825591602001919060010190610b0d565b5b509050610b369190610b3a565b5090565b5b80821115610b53576000816000905550600101610b3b565b5090565b6000604051905090565b600080fd5b600080fd5b600073ffffffffffffffffffffffffffffffffffffffff82169050919050565b6000610b9682610b6b565b9050919050565b610ba681610b8b565b8114610bb157600080fd5b50565b600081359050610bc381610b9d565b92915050565b60008115159050919050565b610bde81610bc9565b8114610be957600080fd5b50565b600081359050610bfb81610bd5565b92915050565b60008060408385031215610c1857610c17610b61565b5b6000610c2685828601610bb4565b9250506020610c3785828601610bec565b9150509250929050565b600081519050919050565b600082825260208201905092915050565b6000819050602082019050919050565b610c7681610b8b565b82525050565b6000610c888383610c6d565b60208301905092915050565b6000602082019050919050565b6000610cac82610c41565b610cb68185610c4c565b9350610cc183610c5d565b8060005b83811015610cf2578151610cd98882610c7c565b9750610ce483610c94565b925050600181019050610cc5565b5085935050505092915050565b60006020820190508181036000830152610d198184610ca1565b905092915050565b610d2a81610b8b565b82525050565b6000602082019050610d456000830184610d21565b92915050565b6000819050919050565b610d5e81610d4b565b8114610d6957600080fd5b50565b600081359050610d7b81610d55565b92915050565b600060208284031215610d9757610d96610b61565b5b6000610da584828501610d6c565b91505092915050565b600060208284031215610dc457610dc3610b61565b5b6000610dd284828501610bb4565b91505092915050565b600081519050919050565b600082825260208201905092915050565b60005b83811015610e15578082015181840152602081019050610dfa565b83811115610e24576000848401525b50505050565b6000601f19601f8301169050919050565b6000610e4682610ddb565b610e508185610de6565b9350610e60818560208601610df7565b610e6981610e2a565b840191505092915050565b610e7d81610bc9565b82525050565b60006060820190508181036000830152610e9d8186610e3b565b90508181036020830152610eb18185610e3b565b9050610ec06040830184610e74565b949350505050565b600080fd5b600080fd5b7f4e487b7100000000000000000000000000000000000000000000000000000000600052604160045260246000fd5b610f0a82610e2a565b810181811067ffffffffffffffff82111715610f2957610f28610ed2565b5b80604052505050565b6000610f3c610b57565b9050610f488282610f01565b919050565b600067ffffffffffffffff821115610f6857610f67610ed2565b5b610f7182610e2a565b9050602081019050919050565b82818337600083830152505050565b6000610fa0610f9b84610f4d565b610f32565b905082815260208101848484011115610fbc57610fbb610ecd565b5b610fc7848285610f7e565b509392505050565b600082601f830112610fe457610fe3610ec8565b5b8135610ff4848260208601610f8d565b91505092915050565b6000806040838503121561101457611013610b61565b5b600083013567ffffffffffffffff81111561103257611031610b66565b5b61103e85828601610fcf565b925050602083013567ffffffffffffffff81111561105f5761105e610b66565b5b61106b85828601610fcf565b9150509250929050565b7f4f776e61626c653a2063616c6c6572206973206e6f7420746865206f776e6572600082015250565b60006110ab602083610de6565b91506110b682611075565b602082019050919050565b600060208201905081810360008301526110da8161109e565b9050919050565b7f61727469737420646f6573206e6f742065786973747300000000000000000000600082015250565b6000611117601683610de6565b9150611122826110e1565b602082019050919050565b600060208201905081810360008301526111468161110a565b9050919050565b7f4e487b7100000000000000000000000000000000000000000000000000000000600052602260045260246000fd5b6000600282049050600182168061119457607f821691505b6020821081036111a7576111a661114d565b5b50919050565b7f4f776e61626c653a206e6577206f776e657220697320746865207a65726f206160008201527f6464726573730000000000000000000000000000000000000000000000000000602082015250565b6000611209602683610de6565b9150611214826111ad565b604082019050919050565b60006020820190508181036000830152611238816111fc565b9050919050565b7f617274697374206e616d652063616e6e6f7420626520656d7074790000000000600082015250565b6000611275601b83610de6565b91506112808261123f565b602082019050919050565b600060208201905081810360008301526112a481611268565b9050919050565b60006060820190506112c06000830186610e74565b81810360208301526112d28185610e3b565b90506112e16040830184610d21565b94935050505056fea26469706673582212208b94ca2e9939e31b699473a6565ad9691afc718fdd14c7b321e1878c2c816b9964736f6c634300080d0033",
  "immutableReferences": {},
  "source": "// SPDX-License-Identifier: MIT\r\npragma solidity 0.8.13;\r\n\r\nimport \"./IrlNFTCollection.sol\";\r\nimport \"@openzeppelin/contracts/access/Ownable.sol\";\r\n\r\ncontract Artists is Ownable{\r\n\r\n    // structure to store artists informations\r\n    struct artist {\r\n      string name;\r\n      string description;\r\n      bool created;\r\n      bool verified;\r\n      mapping(address => IrlNFTCollection) collections;\r\n    }\r\n    mapping(address => artist) internal artists;\r\n    // Array of artist addresses\r\n    address[] public artistArray;\r\n\r\n    /// @notice Event emitted each time a new artist is created or updated\r\n    event ArtistUpdated(bool _created, string _artistName, address _artistAddress);\r\n\r\n    /**\r\n      * @notice Create or update an artist\r\n      */\r\n    function setArtist(string memory _artistName, string memory _artistDescription) public  {\r\n        require(bytes(_artistName).length > 0, \"artist name cannot be empty\");\r\n        artists[msg.sender].name = _artistName;\r\n        artists[msg.sender].description = _artistDescription;\r\n\r\n        if (artists[msg.sender].created == false) {\r\n          artists[msg.sender].created = true;\r\n          artistArray.push(msg.sender);\r\n          emit ArtistUpdated(true, _artistName, msg.sender);\r\n        }\r\n        else\r\n          emit ArtistUpdated(false, _artistName, msg.sender);\r\n    }\r\n    \r\n    /**\r\n      * @notice Verify or Unverify an existing artist\r\n      */\r\n    function verifyArtist(address _artist, bool _verified) public onlyOwner {\r\n        require(artists[_artist].created == true, \"artist does not exists\");\r\n        artists[_artist].verified = _verified;\r\n    }\r\n\r\n    /**\r\n      * @notice Return the list of artist addresses created\r\n      *\r\n      * @return artistArray the array of artis addresses\r\n      */    \r\n    function getArtistArray() public view returns( address  [] memory){\r\n        return artistArray;\r\n    }\r\n\r\n    /**\r\n      * @notice Return the details of an artist based on its address\r\n      *\r\n      * @return name of the artist\r\n      * @return description of the artist\r\n      * @return verified information about the artist\r\n      */    \r\n    function getArtistDetails(address artistAddress) public view returns (string memory name, string memory description, bool verified) {\r\n        return (artists[artistAddress].name, artists[artistAddress].description, artists[artistAddress].verified);\r\n    }\r\n}",
  "sourcePath": "C:\\Users\\chris\\git\\myduss\\contracts\\Artists.sol",
  "compiler": {
    "name": "solc",
    "version": "0.8.13+commit.abaa5c0e.Emscripten.clang"
  },
  "schemaVersion": "3.4.4",
  "updatedAt": "2022-04-29T21:09:02.156Z",
  "devdoc": {
    "kind": "dev",
    "methods": {
      "getArtistArray()": {
        "returns": {
          "_0": "artistArray the array of artis addresses"
        }
      },
      "getArtistDetails(address)": {
        "returns": {
          "description": "of the artist",
          "name": "of the artist",
          "verified": "information about the artist"
        }
      },
      "owner()": {
        "details": "Returns the address of the current owner."
      },
      "renounceOwnership()": {
        "details": "Leaves the contract without owner. It will not be possible to call `onlyOwner` functions anymore. Can only be called by the current owner. NOTE: Renouncing ownership will leave the contract without an owner, thereby removing any functionality that is only available to the owner."
      },
      "transferOwnership(address)": {
        "details": "Transfers ownership of the contract to a new account (`newOwner`). Can only be called by the current owner."
      }
    },
    "version": 1
  },
  "userdoc": {
    "events": {
      "ArtistUpdated(bool,string,address)": {
        "notice": "Event emitted each time a new artist is created or updated"
      }
    },
    "kind": "user",
    "methods": {
      "getArtistArray()": {
        "notice": "Return the list of artist addresses created"
      },
      "getArtistDetails(address)": {
        "notice": "Return the details of an artist based on its address"
      },
      "setArtist(string,string)": {
        "notice": "Create or update an artist"
      },
      "verifyArtist(address,bool)": {
        "notice": "Verify or Unverify an existing artist"
      }
    },
    "version": 1
  }
}