{
  "contractName": "IrlNFTCollectionManager",
  "abi": [
    {
      "anonymous": false,
      "inputs": [
        {
          "indexed": false,
          "internalType": "string",
          "name": "_artistName",
          "type": "string"
        },
        {
          "indexed": false,
          "internalType": "address",
          "name": "_collectionAddress",
          "type": "address"
        },
        {
          "indexed": false,
          "internalType": "uint256",
          "name": "_timestamp",
          "type": "uint256"
        }
      ],
      "name": "IrlNFTCollectionCreated",
      "type": "event"
    },
    {
      "inputs": [
        {
          "internalType": "string",
          "name": "_artistName",
          "type": "string"
        },
        {
          "internalType": "string",
          "name": "_artistSymbol",
          "type": "string"
        }
      ],
      "name": "getCreationBytecode",
      "outputs": [
        {
          "internalType": "bytes",
          "name": "",
          "type": "bytes"
        }
      ],
      "stateMutability": "pure",
      "type": "function"
    },
    {
      "inputs": [
        {
          "internalType": "string",
          "name": "_artistName",
          "type": "string"
        },
        {
          "internalType": "string",
          "name": "_artistSymbol",
          "type": "string"
        }
      ],
      "name": "createIrlNFTCollection",
      "outputs": [
        {
          "internalType": "address",
          "name": "collectionAddress",
          "type": "address"
        }
      ],
      "stateMutability": "nonpayable",
      "type": "function"
    }
  ],
  "bytecode": "0x608060405234801561001057600080fd5b506136f3806100206000396000f3fe60806040523480156200001157600080fd5b50600436106200003a5760003560e01c806381c7f0b6146200003f578063930c59e61462000075575b600080fd5b6200005d600480360381019062000057919062000346565b620000ab565b6040516200006c919062000410565b60405180910390f35b6200009360048036038101906200008d919062000346565b62000146565b604051620000a29190620004c0565b60405180910390f35b600080620000ba848462000146565b9050600084604051602001620000d1919062000531565b604051602081830303815290604052805190602001209050808251602084016000f59250823b6200010157600080fd5b7fc536b3bec7a024b43ee2d84dcf6141d2566cdea9023953648d9e55d02ecf25608584426040516200013693929190620005b7565b60405180910390a1505092915050565b60606000604051806020016200015c90620001c2565b6020820181038252601f19601f82011660405250905080848460405160200162000188929190620005fb565b604051602081830303815290604052604051602001620001aa92919062000678565b60405160208183030381529060405291505092915050565b61301d80620006a183390190565b6000604051905090565b600080fd5b600080fd5b600080fd5b600080fd5b6000601f19601f8301169050919050565b7f4e487b7100000000000000000000000000000000000000000000000000000000600052604160045260246000fd5b6200023982620001ee565b810181811067ffffffffffffffff821117156200025b576200025a620001ff565b5b80604052505050565b600062000270620001d0565b90506200027e82826200022e565b919050565b600067ffffffffffffffff821115620002a157620002a0620001ff565b5b620002ac82620001ee565b9050602081019050919050565b82818337600083830152505050565b6000620002df620002d98462000283565b62000264565b905082815260208101848484011115620002fe57620002fd620001e9565b5b6200030b848285620002b9565b509392505050565b600082601f8301126200032b576200032a620001e4565b5b81356200033d848260208601620002c8565b91505092915050565b6000806040838503121562000360576200035f620001da565b5b600083013567ffffffffffffffff811115620003815762000380620001df565b5b6200038f8582860162000313565b925050602083013567ffffffffffffffff811115620003b357620003b2620001df565b5b620003c18582860162000313565b9150509250929050565b600073ffffffffffffffffffffffffffffffffffffffff82169050919050565b6000620003f882620003cb565b9050919050565b6200040a81620003eb565b82525050565b6000602082019050620004276000830184620003ff565b92915050565b600081519050919050565b600082825260208201905092915050565b60005b83811015620004695780820151818401526020810190506200044c565b8381111562000479576000848401525b50505050565b60006200048c826200042d565b62000498818562000438565b9350620004aa81856020860162000449565b620004b581620001ee565b840191505092915050565b60006020820190508181036000830152620004dc81846200047f565b905092915050565b600081519050919050565b600081905092915050565b60006200050782620004e4565b620005138185620004ef565b93506200052581856020860162000449565b80840191505092915050565b60006200053f8284620004fa565b915081905092915050565b600082825260208201905092915050565b60006200056882620004e4565b6200057481856200054a565b93506200058681856020860162000449565b6200059181620001ee565b840191505092915050565b6000819050919050565b620005b1816200059c565b82525050565b60006060820190508181036000830152620005d381866200055b565b9050620005e46020830185620003ff565b620005f36040830184620005a6565b949350505050565b600060408201905081810360008301526200061781856200055b565b905081810360208301526200062d81846200055b565b90509392505050565b600081905092915050565b60006200064e826200042d565b6200065a818562000636565b93506200066c81856020860162000449565b80840191505092915050565b600062000686828562000641565b915062000694828462000641565b9150819050939250505056fe60806040523480156200001157600080fd5b506040516200301d3803806200301d8339818101604052810190620000379190620002c2565b818181600090805190602001906200005192919062000075565b5080600190805190602001906200006a92919062000075565b5050505050620003ab565b828054620000839062000376565b90600052602060002090601f016020900481019282620000a75760008555620000f3565b82601f10620000c257805160ff1916838001178555620000f3565b82800160010185558215620000f3579182015b82811115620000f2578251825591602001919060010190620000d5565b5b50905062000102919062000106565b5090565b5b808211156200012157600081600090555060010162000107565b5090565b6000604051905090565b600080fd5b600080fd5b600080fd5b600080fd5b6000601f19601f8301169050919050565b7f4e487b7100000000000000000000000000000000000000000000000000000000600052604160045260246000fd5b6200018e8262000143565b810181811067ffffffffffffffff82111715620001b057620001af62000154565b5b80604052505050565b6000620001c562000125565b9050620001d3828262000183565b919050565b600067ffffffffffffffff821115620001f657620001f562000154565b5b620002018262000143565b9050602081019050919050565b60005b838110156200022e57808201518184015260208101905062000211565b838111156200023e576000848401525b50505050565b60006200025b6200025584620001d8565b620001b9565b9050828152602081018484840111156200027a57620002796200013e565b5b620002878482856200020e565b509392505050565b600082601f830112620002a757620002a662000139565b5b8151620002b984826020860162000244565b91505092915050565b60008060408385031215620002dc57620002db6200012f565b5b600083015167ffffffffffffffff811115620002fd57620002fc62000134565b5b6200030b858286016200028f565b925050602083015167ffffffffffffffff8111156200032f576200032e62000134565b5b6200033d858286016200028f565b9150509250929050565b7f4e487b7100000000000000000000000000000000000000000000000000000000600052602260045260246000fd5b600060028204905060018216806200038f57607f821691505b602082108103620003a557620003a462000347565b5b50919050565b612c6280620003bb6000396000f3fe608060405234801561001057600080fd5b50600436106100ea5760003560e01c80636352211e1161008c578063a22cb46511610066578063a22cb4651461026f578063b88d4fde1461028b578063c87b56dd146102a7578063e985e9c5146102d7576100ea565b80636352211e146101f157806370a082311461022157806395d89b4114610251576100ea565b8063095ea7b3116100c8578063095ea7b31461016d57806323b872dd1461018957806342842e0e146101a557806354b84f56146101c1576100ea565b806301ffc9a7146100ef57806306fdde031461011f578063081812fc1461013d575b600080fd5b6101096004803603810190610104919061199f565b610307565b60405161011691906119e7565b60405180910390f35b6101276103e9565b6040516101349190611a9b565b60405180910390f35b61015760048036038101906101529190611af3565b61047b565b6040516101649190611b61565b60405180910390f35b61018760048036038101906101829190611ba8565b610500565b005b6101a3600480360381019061019e9190611be8565b610617565b005b6101bf60048036038101906101ba9190611be8565b610677565b005b6101db60048036038101906101d69190611d9c565b610697565b6040516101e89190611e2e565b60405180910390f35b61020b60048036038101906102069190611af3565b610753565b6040516102189190611b61565b60405180910390f35b61023b60048036038101906102369190611e49565b610804565b6040516102489190611e2e565b60405180910390f35b6102596108bb565b6040516102669190611a9b565b60405180910390f35b61028960048036038101906102849190611e76565b61094d565b005b6102a560048036038101906102a09190611f57565b610963565b005b6102c160048036038101906102bc9190611af3565b6109c5565b6040516102ce9190611a9b565b60405180910390f35b6102f160048036038101906102ec9190611fda565b610b16565b6040516102fe91906119e7565b60405180910390f35b60007f80ac58cd000000000000000000000000000000000000000000000000000000007bffffffffffffffffffffffffffffffffffffffffffffffffffffffff1916827bffffffffffffffffffffffffffffffffffffffffffffffffffffffff191614806103d257507f5b5e139f000000000000000000000000000000000000000000000000000000007bffffffffffffffffffffffffffffffffffffffffffffffffffffffff1916827bffffffffffffffffffffffffffffffffffffffffffffffffffffffff1916145b806103e257506103e182610baa565b5b9050919050565b6060600080546103f890612049565b80601f016020809104026020016040519081016040528092919081815260200182805461042490612049565b80156104715780601f1061044657610100808354040283529160200191610471565b820191906000526020600020905b81548152906001019060200180831161045457829003601f168201915b5050505050905090565b600061048682610c14565b6104c5576040517f08c379a00000000000000000000000000000000000000000000000000000000081526004016104bc906120ec565b60405180910390fd5b6004600083815260200190815260200160002060009054906101000a900473ffffffffffffffffffffffffffffffffffffffff169050919050565b600061050b82610753565b90508073ffffffffffffffffffffffffffffffffffffffff168373ffffffffffffffffffffffffffffffffffffffff160361057b576040517f08c379a00000000000000000000000000000000000000000000000000000000081526004016105729061217e565b60405180910390fd5b8073ffffffffffffffffffffffffffffffffffffffff1661059a610c80565b73ffffffffffffffffffffffffffffffffffffffff1614806105c957506105c8816105c3610c80565b610b16565b5b610608576040517f08c379a00000000000000000000000000000000000000000000000000000000081526004016105ff90612210565b60405180910390fd5b6106128383610c88565b505050565b610628610622610c80565b82610d41565b610667576040517f08c379a000000000000000000000000000000000000000000000000000000000815260040161065e906122a2565b60405180910390fd5b610672838383610e1f565b505050565b61069283838360405180602001604052806000815250610963565b505050565b60006106a36007611085565b600a604051806040016040528085151581526020018415158152509080600181540180825580915050600190039060005260206000200160009091909190915060008201518160000160006101000a81548160ff02191690831515021790555060208201518160000160016101000a81548160ff02191690831515021790555050506000610731600761109b565b905061073d86826110a9565b6107478186611282565b80915050949350505050565b6000806002600084815260200190815260200160002060009054906101000a900473ffffffffffffffffffffffffffffffffffffffff169050600073ffffffffffffffffffffffffffffffffffffffff168173ffffffffffffffffffffffffffffffffffffffff16036107fb576040517f08c379a00000000000000000000000000000000000000000000000000000000081526004016107f290612334565b60405180910390fd5b80915050919050565b60008073ffffffffffffffffffffffffffffffffffffffff168273ffffffffffffffffffffffffffffffffffffffff1603610874576040517f08c379a000000000000000000000000000000000000000000000000000000000815260040161086b906123c6565b60405180910390fd5b600360008373ffffffffffffffffffffffffffffffffffffffff1673ffffffffffffffffffffffffffffffffffffffff168152602001908152602001600020549050919050565b6060600180546108ca90612049565b80601f01602080910402602001604051908101604052809291908181526020018280546108f690612049565b80156109435780601f1061091857610100808354040283529160200191610943565b820191906000526020600020905b81548152906001019060200180831161092657829003601f168201915b5050505050905090565b61095f610958610c80565b83836112f6565b5050565b61097461096e610c80565b83610d41565b6109b3576040517f08c379a00000000000000000000000000000000000000000000000000000000081526004016109aa906122a2565b60405180910390fd5b6109bf84848484611462565b50505050565b60606109d082610c14565b610a0f576040517f08c379a0000000000000000000000000000000000000000000000000000000008152600401610a0690612458565b60405180910390fd5b6000600660008481526020019081526020016000208054610a2f90612049565b80601f0160208091040260200160405190810160405280929190818152602001828054610a5b90612049565b8015610aa85780601f10610a7d57610100808354040283529160200191610aa8565b820191906000526020600020905b815481529060010190602001808311610a8b57829003601f168201915b505050505090506000610ab96114be565b90506000815103610ace578192505050610b11565b600082511115610b03578082604051602001610aeb9291906124b4565b60405160208183030381529060405292505050610b11565b610b0c846114d5565b925050505b919050565b6000600560008473ffffffffffffffffffffffffffffffffffffffff1673ffffffffffffffffffffffffffffffffffffffff16815260200190815260200160002060008373ffffffffffffffffffffffffffffffffffffffff1673ffffffffffffffffffffffffffffffffffffffff16815260200190815260200160002060009054906101000a900460ff16905092915050565b60007f01ffc9a7000000000000000000000000000000000000000000000000000000007bffffffffffffffffffffffffffffffffffffffffffffffffffffffff1916827bffffffffffffffffffffffffffffffffffffffffffffffffffffffff1916149050919050565b60008073ffffffffffffffffffffffffffffffffffffffff166002600084815260200190815260200160002060009054906101000a900473ffffffffffffffffffffffffffffffffffffffff1673ffffffffffffffffffffffffffffffffffffffff1614159050919050565b600033905090565b816004600083815260200190815260200160002060006101000a81548173ffffffffffffffffffffffffffffffffffffffff021916908373ffffffffffffffffffffffffffffffffffffffff160217905550808273ffffffffffffffffffffffffffffffffffffffff16610cfb83610753565b73ffffffffffffffffffffffffffffffffffffffff167f8c5be1e5ebec7d5bd14f71427d1e84f3dd0314c0f7b2291e5b200ac8c7c3b92560405160405180910390a45050565b6000610d4c82610c14565b610d8b576040517f08c379a0000000000000000000000000000000000000000000000000000000008152600401610d829061254a565b60405180910390fd5b6000610d9683610753565b90508073ffffffffffffffffffffffffffffffffffffffff168473ffffffffffffffffffffffffffffffffffffffff161480610e0557508373ffffffffffffffffffffffffffffffffffffffff16610ded8461047b565b73ffffffffffffffffffffffffffffffffffffffff16145b80610e165750610e158185610b16565b5b91505092915050565b8273ffffffffffffffffffffffffffffffffffffffff16610e3f82610753565b73ffffffffffffffffffffffffffffffffffffffff1614610e95576040517f08c379a0000000000000000000000000000000000000000000000000000000008152600401610e8c906125dc565b60405180910390fd5b600073ffffffffffffffffffffffffffffffffffffffff168273ffffffffffffffffffffffffffffffffffffffff1603610f04576040517f08c379a0000000000000000000000000000000000000000000000000000000008152600401610efb9061266e565b60405180910390fd5b610f0f83838361157c565b610f1a600082610c88565b6001600360008573ffffffffffffffffffffffffffffffffffffffff1673ffffffffffffffffffffffffffffffffffffffff1681526020019081526020016000206000828254610f6a91906126bd565b925050819055506001600360008473ffffffffffffffffffffffffffffffffffffffff1673ffffffffffffffffffffffffffffffffffffffff1681526020019081526020016000206000828254610fc191906126f1565b92505081905550816002600083815260200190815260200160002060006101000a81548173ffffffffffffffffffffffffffffffffffffffff021916908373ffffffffffffffffffffffffffffffffffffffff160217905550808273ffffffffffffffffffffffffffffffffffffffff168473ffffffffffffffffffffffffffffffffffffffff167fddf252ad1be2c89b69c2b068fc378daa952ba7f163c4a11628f55a4df523b3ef60405160405180910390a4611080838383611581565b505050565b6001816000016000828254019250508190555050565b600081600001549050919050565b600073ffffffffffffffffffffffffffffffffffffffff168273ffffffffffffffffffffffffffffffffffffffff1603611118576040517f08c379a000000000000000000000000000000000000000000000000000000000815260040161110f90612793565b60405180910390fd5b61112181610c14565b15611161576040517f08c379a0000000000000000000000000000000000000000000000000000000008152600401611158906127ff565b60405180910390fd5b61116d6000838361157c565b6001600360008473ffffffffffffffffffffffffffffffffffffffff1673ffffffffffffffffffffffffffffffffffffffff16815260200190815260200160002060008282546111bd91906126f1565b92505081905550816002600083815260200190815260200160002060006101000a81548173ffffffffffffffffffffffffffffffffffffffff021916908373ffffffffffffffffffffffffffffffffffffffff160217905550808273ffffffffffffffffffffffffffffffffffffffff16600073ffffffffffffffffffffffffffffffffffffffff167fddf252ad1be2c89b69c2b068fc378daa952ba7f163c4a11628f55a4df523b3ef60405160405180910390a461127e60008383611581565b5050565b61128b82610c14565b6112ca576040517f08c379a00000000000000000000000000000000000000000000000000000000081526004016112c190612891565b60405180910390fd5b806006600084815260200190815260200160002090805190602001906112f1929190611890565b505050565b8173ffffffffffffffffffffffffffffffffffffffff168373ffffffffffffffffffffffffffffffffffffffff1603611364576040517f08c379a000000000000000000000000000000000000000000000000000000000815260040161135b906128fd565b60405180910390fd5b80600560008573ffffffffffffffffffffffffffffffffffffffff1673ffffffffffffffffffffffffffffffffffffffff16815260200190815260200160002060008473ffffffffffffffffffffffffffffffffffffffff1673ffffffffffffffffffffffffffffffffffffffff16815260200190815260200160002060006101000a81548160ff0219169083151502179055508173ffffffffffffffffffffffffffffffffffffffff168373ffffffffffffffffffffffffffffffffffffffff167f17307eab39ab6107e8899845ad3d59bd9653f200f220920489ca2b5937696c318360405161145591906119e7565b60405180910390a3505050565b61146d848484610e1f565b61147984848484611586565b6114b8576040517f08c379a00000000000000000000000000000000000000000000000000000000081526004016114af9061298f565b60405180910390fd5b50505050565b606060405180602001604052806000815250905090565b60606114e082610c14565b61151f576040517f08c379a000000000000000000000000000000000000000000000000000000000815260040161151690612a21565b60405180910390fd5b60006115296114be565b905060008151116115495760405180602001604052806000815250611574565b806115538461170d565b6040516020016115649291906124b4565b6040516020818303038152906040525b915050919050565b505050565b505050565b60006115a78473ffffffffffffffffffffffffffffffffffffffff1661186d565b15611700578373ffffffffffffffffffffffffffffffffffffffff1663150b7a026115d0610c80565b8786866040518563ffffffff1660e01b81526004016115f29493929190612a96565b6020604051808303816000875af192505050801561162e57506040513d601f19601f8201168201806040525081019061162b9190612af7565b60015b6116b0573d806000811461165e576040519150601f19603f3d011682016040523d82523d6000602084013e611663565b606091505b5060008151036116a8576040517f08c379a000000000000000000000000000000000000000000000000000000000815260040161169f9061298f565b60405180910390fd5b805181602001fd5b63150b7a0260e01b7bffffffffffffffffffffffffffffffffffffffffffffffffffffffff1916817bffffffffffffffffffffffffffffffffffffffffffffffffffffffff191614915050611705565b600190505b949350505050565b606060008203611754576040518060400160405280600181526020017f30000000000000000000000000000000000000000000000000000000000000008152509050611868565b600082905060005b6000821461178657808061176f90612b24565b915050600a8261177f9190612b9b565b915061175c565b60008167ffffffffffffffff8111156117a2576117a1611c45565b5b6040519080825280601f01601f1916602001820160405280156117d45781602001600182028036833780820191505090505b5090505b60008514611861576001826117ed91906126bd565b9150600a856117fc9190612bcc565b603061180891906126f1565b60f81b81838151811061181e5761181d612bfd565b5b60200101907effffffffffffffffffffffffffffffffffffffffffffffffffffffffffffff1916908160001a905350600a8561185a9190612b9b565b94506117d8565b8093505050505b919050565b6000808273ffffffffffffffffffffffffffffffffffffffff163b119050919050565b82805461189c90612049565b90600052602060002090601f0160209004810192826118be5760008555611905565b82601f106118d757805160ff1916838001178555611905565b82800160010185558215611905579182015b828111156119045782518255916020019190600101906118e9565b5b5090506119129190611916565b5090565b5b8082111561192f576000816000905550600101611917565b5090565b6000604051905090565b600080fd5b600080fd5b60007fffffffff0000000000000000000000000000000000000000000000000000000082169050919050565b61197c81611947565b811461198757600080fd5b50565b60008135905061199981611973565b92915050565b6000602082840312156119b5576119b461193d565b5b60006119c38482850161198a565b91505092915050565b60008115159050919050565b6119e1816119cc565b82525050565b60006020820190506119fc60008301846119d8565b92915050565b600081519050919050565b600082825260208201905092915050565b60005b83811015611a3c578082015181840152602081019050611a21565b83811115611a4b576000848401525b50505050565b6000601f19601f8301169050919050565b6000611a6d82611a02565b611a778185611a0d565b9350611a87818560208601611a1e565b611a9081611a51565b840191505092915050565b60006020820190508181036000830152611ab58184611a62565b905092915050565b6000819050919050565b611ad081611abd565b8114611adb57600080fd5b50565b600081359050611aed81611ac7565b92915050565b600060208284031215611b0957611b0861193d565b5b6000611b1784828501611ade565b91505092915050565b600073ffffffffffffffffffffffffffffffffffffffff82169050919050565b6000611b4b82611b20565b9050919050565b611b5b81611b40565b82525050565b6000602082019050611b766000830184611b52565b92915050565b611b8581611b40565b8114611b9057600080fd5b50565b600081359050611ba281611b7c565b92915050565b60008060408385031215611bbf57611bbe61193d565b5b6000611bcd85828601611b93565b9250506020611bde85828601611ade565b9150509250929050565b600080600060608486031215611c0157611c0061193d565b5b6000611c0f86828701611b93565b9350506020611c2086828701611b93565b9250506040611c3186828701611ade565b9150509250925092565b600080fd5b600080fd5b7f4e487b7100000000000000000000000000000000000000000000000000000000600052604160045260246000fd5b611c7d82611a51565b810181811067ffffffffffffffff82111715611c9c57611c9b611c45565b5b80604052505050565b6000611caf611933565b9050611cbb8282611c74565b919050565b600067ffffffffffffffff821115611cdb57611cda611c45565b5b611ce482611a51565b9050602081019050919050565b82818337600083830152505050565b6000611d13611d0e84611cc0565b611ca5565b905082815260208101848484011115611d2f57611d2e611c40565b5b611d3a848285611cf1565b509392505050565b600082601f830112611d5757611d56611c3b565b5b8135611d67848260208601611d00565b91505092915050565b611d79816119cc565b8114611d8457600080fd5b50565b600081359050611d9681611d70565b92915050565b60008060008060808587031215611db657611db561193d565b5b6000611dc487828801611b93565b945050602085013567ffffffffffffffff811115611de557611de4611942565b5b611df187828801611d42565b9350506040611e0287828801611d87565b9250506060611e1387828801611d87565b91505092959194509250565b611e2881611abd565b82525050565b6000602082019050611e436000830184611e1f565b92915050565b600060208284031215611e5f57611e5e61193d565b5b6000611e6d84828501611b93565b91505092915050565b60008060408385031215611e8d57611e8c61193d565b5b6000611e9b85828601611b93565b9250506020611eac85828601611d87565b9150509250929050565b600067ffffffffffffffff821115611ed157611ed0611c45565b5b611eda82611a51565b9050602081019050919050565b6000611efa611ef584611eb6565b611ca5565b905082815260208101848484011115611f1657611f15611c40565b5b611f21848285611cf1565b509392505050565b600082601f830112611f3e57611f3d611c3b565b5b8135611f4e848260208601611ee7565b91505092915050565b60008060008060808587031215611f7157611f7061193d565b5b6000611f7f87828801611b93565b9450506020611f9087828801611b93565b9350506040611fa187828801611ade565b925050606085013567ffffffffffffffff811115611fc257611fc1611942565b5b611fce87828801611f29565b91505092959194509250565b60008060408385031215611ff157611ff061193d565b5b6000611fff85828601611b93565b925050602061201085828601611b93565b9150509250929050565b7f4e487b7100000000000000000000000000000000000000000000000000000000600052602260045260246000fd5b6000600282049050600182168061206157607f821691505b6020821081036120745761207361201a565b5b50919050565b7f4552433732313a20617070726f76656420717565727920666f72206e6f6e657860008201527f697374656e7420746f6b656e0000000000000000000000000000000000000000602082015250565b60006120d6602c83611a0d565b91506120e18261207a565b604082019050919050565b60006020820190508181036000830152612105816120c9565b9050919050565b7f4552433732313a20617070726f76616c20746f2063757272656e74206f776e6560008201527f7200000000000000000000000000000000000000000000000000000000000000602082015250565b6000612168602183611a0d565b91506121738261210c565b604082019050919050565b600060208201905081810360008301526121978161215b565b9050919050565b7f4552433732313a20617070726f76652063616c6c6572206973206e6f74206f7760008201527f6e6572206e6f7220617070726f76656420666f7220616c6c0000000000000000602082015250565b60006121fa603883611a0d565b91506122058261219e565b604082019050919050565b60006020820190508181036000830152612229816121ed565b9050919050565b7f4552433732313a207472616e736665722063616c6c6572206973206e6f74206f60008201527f776e6572206e6f7220617070726f766564000000000000000000000000000000602082015250565b600061228c603183611a0d565b915061229782612230565b604082019050919050565b600060208201905081810360008301526122bb8161227f565b9050919050565b7f4552433732313a206f776e657220717565727920666f72206e6f6e657869737460008201527f656e7420746f6b656e0000000000000000000000000000000000000000000000602082015250565b600061231e602983611a0d565b9150612329826122c2565b604082019050919050565b6000602082019050818103600083015261234d81612311565b9050919050565b7f4552433732313a2062616c616e636520717565727920666f7220746865207a6560008201527f726f206164647265737300000000000000000000000000000000000000000000602082015250565b60006123b0602a83611a0d565b91506123bb82612354565b604082019050919050565b600060208201905081810360008301526123df816123a3565b9050919050565b7f45524337323155524953746f726167653a2055524920717565727920666f722060008201527f6e6f6e6578697374656e7420746f6b656e000000000000000000000000000000602082015250565b6000612442603183611a0d565b915061244d826123e6565b604082019050919050565b6000602082019050818103600083015261247181612435565b9050919050565b600081905092915050565b600061248e82611a02565b6124988185612478565b93506124a8818560208601611a1e565b80840191505092915050565b60006124c08285612483565b91506124cc8284612483565b91508190509392505050565b7f4552433732313a206f70657261746f7220717565727920666f72206e6f6e657860008201527f697374656e7420746f6b656e0000000000000000000000000000000000000000602082015250565b6000612534602c83611a0d565b915061253f826124d8565b604082019050919050565b6000602082019050818103600083015261256381612527565b9050919050565b7f4552433732313a207472616e736665722066726f6d20696e636f72726563742060008201527f6f776e6572000000000000000000000000000000000000000000000000000000602082015250565b60006125c6602583611a0d565b91506125d18261256a565b604082019050919050565b600060208201905081810360008301526125f5816125b9565b9050919050565b7f4552433732313a207472616e7366657220746f20746865207a65726f2061646460008201527f7265737300000000000000000000000000000000000000000000000000000000602082015250565b6000612658602483611a0d565b9150612663826125fc565b604082019050919050565b600060208201905081810360008301526126878161264b565b9050919050565b7f4e487b7100000000000000000000000000000000000000000000000000000000600052601160045260246000fd5b60006126c882611abd565b91506126d383611abd565b9250828210156126e6576126e561268e565b5b828203905092915050565b60006126fc82611abd565b915061270783611abd565b9250827fffffffffffffffffffffffffffffffffffffffffffffffffffffffffffffffff0382111561273c5761273b61268e565b5b828201905092915050565b7f4552433732313a206d696e7420746f20746865207a65726f2061646472657373600082015250565b600061277d602083611a0d565b915061278882612747565b602082019050919050565b600060208201905081810360008301526127ac81612770565b9050919050565b7f4552433732313a20746f6b656e20616c7265616479206d696e74656400000000600082015250565b60006127e9601c83611a0d565b91506127f4826127b3565b602082019050919050565b60006020820190508181036000830152612818816127dc565b9050919050565b7f45524337323155524953746f726167653a2055524920736574206f66206e6f6e60008201527f6578697374656e7420746f6b656e000000000000000000000000000000000000602082015250565b600061287b602e83611a0d565b91506128868261281f565b604082019050919050565b600060208201905081810360008301526128aa8161286e565b9050919050565b7f4552433732313a20617070726f766520746f2063616c6c657200000000000000600082015250565b60006128e7601983611a0d565b91506128f2826128b1565b602082019050919050565b60006020820190508181036000830152612916816128da565b9050919050565b7f4552433732313a207472616e7366657220746f206e6f6e20455243373231526560008201527f63656976657220696d706c656d656e7465720000000000000000000000000000602082015250565b6000612979603283611a0d565b91506129848261291d565b604082019050919050565b600060208201905081810360008301526129a88161296c565b9050919050565b7f4552433732314d657461646174613a2055524920717565727920666f72206e6f60008201527f6e6578697374656e7420746f6b656e0000000000000000000000000000000000602082015250565b6000612a0b602f83611a0d565b9150612a16826129af565b604082019050919050565b60006020820190508181036000830152612a3a816129fe565b9050919050565b600081519050919050565b600082825260208201905092915050565b6000612a6882612a41565b612a728185612a4c565b9350612a82818560208601611a1e565b612a8b81611a51565b840191505092915050565b6000608082019050612aab6000830187611b52565b612ab86020830186611b52565b612ac56040830185611e1f565b8181036060830152612ad78184612a5d565b905095945050505050565b600081519050612af181611973565b92915050565b600060208284031215612b0d57612b0c61193d565b5b6000612b1b84828501612ae2565b91505092915050565b6000612b2f82611abd565b91507fffffffffffffffffffffffffffffffffffffffffffffffffffffffffffffffff8203612b6157612b6061268e565b5b600182019050919050565b7f4e487b7100000000000000000000000000000000000000000000000000000000600052601260045260246000fd5b6000612ba682611abd565b9150612bb183611abd565b925082612bc157612bc0612b6c565b5b828204905092915050565b6000612bd782611abd565b9150612be283611abd565b925082612bf257612bf1612b6c565b5b828206905092915050565b7f4e487b7100000000000000000000000000000000000000000000000000000000600052603260045260246000fdfea264697066735822122066fbbf205d542ba42d8fd81f283aee781fcdc4b7351e2638a9a8cd9aa3360ed364736f6c634300080d0033a2646970667358221220c9cba6b9b10bb3b0475503337bd0d8c5a46b900c0baa58708eb52a7bf8deaba164736f6c634300080d0033",
  "immutableReferences": {},
  "source": "// SPDX-License-Identifier: MIT\r\npragma solidity 0.8.13;\r\n\r\n// importing the ERC-721 contract to deploy for an artist\r\nimport \"./IrlNFTCollection.sol\";\r\n\r\n/** \r\n  * @title In Real Life NFT collection Manager\r\n  * @author Geoffrey Bernicot / Christophe Burgalat\r\n  * @notice Give the ability to deploy a contract to manage ERC-721 tokens for an Artist. S/O @Snow\r\n  * @dev    If the contract is already deployed for an _artistName, it will revert.\r\n  */\r\ncontract IrlNFTCollectionManager{\r\n\r\n    /// @notice Event emitted each time a new NFT collection is created\r\n    event IrlNFTCollectionCreated(string _artistName, address _collectionAddress, uint _timestamp);\r\n\r\n    /**\r\n      * @notice Generate the contract bytecode including constructor parameters\r\n      *\r\n      * @return bytecode of the contract\r\n      */\r\n    function getCreationBytecode(string memory _artistName, string memory _artistSymbol) public pure returns (bytes memory) {\r\n        bytes memory bytecode = type(IrlNFTCollection).creationCode;\r\n\r\n        return abi.encodePacked(bytecode, abi.encode(_artistName, _artistSymbol));\r\n    }\r\n\r\n    /**\r\n      * @notice Deploy the ERC-721 Collection contract of the artist caller to be able to create NFTs later\r\n      *\r\n      * @return collectionAddress the address of the created collection contract\r\n      */\r\n    function createIrlNFTCollection(string memory _artistName, string memory _artistSymbol) external returns (address collectionAddress) {\r\n        // Import the bytecode of the contract to deploy\r\n        bytes memory collectionBytecode = getCreationBytecode(_artistName, _artistSymbol);\r\n\t\t\t\t// Make a random salt based on the artist name\r\n        bytes32 salt = keccak256(abi.encodePacked(_artistName));\r\n\r\n        assembly {\r\n            collectionAddress := create2(0, add(collectionBytecode, 0x20), mload(collectionBytecode), salt)\r\n            if iszero(extcodesize(collectionAddress)) {\r\n                // revert if something gone wrong (collectionAddress doesn't contain an address)\r\n                revert(0, 0)\r\n            }\r\n        }\r\n        // Initialize the collection contract with the artist settings\r\n        //IrlNFTCollection(collectionAddress).initialize(msg.sender);\r\n\r\n        emit IrlNFTCollectionCreated(_artistName, collectionAddress, block.timestamp);\r\n    }\r\n}\r\n",
  "sourcePath": "C:\\Users\\chris\\git\\myduss\\contracts\\IrlNftCollectionManager.sol",
  "compiler": {
    "name": "solc",
    "version": "0.8.13+commit.abaa5c0e.Emscripten.clang"
  },
  "schemaVersion": "3.4.4",
  "updatedAt": "2022-04-25T20:25:44.992Z",
  "devdoc": {
    "author": "Geoffrey Bernicot / Christophe Burgalat",
    "details": "If the contract is already deployed for an _artistName, it will revert.",
    "kind": "dev",
    "methods": {
      "createIrlNFTCollection(string,string)": {
        "returns": {
          "collectionAddress": "the address of the created collection contract"
        }
      },
      "getCreationBytecode(string,string)": {
        "returns": {
          "_0": "bytecode of the contract"
        }
      }
    },
    "title": "In Real Life NFT collection Manager",
    "version": 1
  },
  "userdoc": {
    "events": {
      "IrlNFTCollectionCreated(string,address,uint256)": {
        "notice": "Event emitted each time a new NFT collection is created"
      }
    },
    "kind": "user",
    "methods": {
      "createIrlNFTCollection(string,string)": {
        "notice": "Deploy the ERC-721 Collection contract of the artist caller to be able to create NFTs later"
      },
      "getCreationBytecode(string,string)": {
        "notice": "Generate the contract bytecode including constructor parameters"
      }
    },
    "notice": "Give the ability to deploy a contract to manage ERC-721 tokens for an Artist. S/O @Snow",
    "version": 1
  }
}