{
  "contractName": "IrlNFTCollection",
  "abi": [
    {
      "inputs": [
        {
          "internalType": "string",
          "name": "name_",
          "type": "string"
        },
        {
          "internalType": "string",
          "name": "symbol_",
          "type": "string"
        }
      ],
      "stateMutability": "nonpayable",
      "type": "constructor"
    },
    {
      "anonymous": false,
      "inputs": [
        {
          "indexed": true,
          "internalType": "address",
          "name": "owner",
          "type": "address"
        },
        {
          "indexed": true,
          "internalType": "address",
          "name": "approved",
          "type": "address"
        },
        {
          "indexed": true,
          "internalType": "uint256",
          "name": "tokenId",
          "type": "uint256"
        }
      ],
      "name": "Approval",
      "type": "event"
    },
    {
      "anonymous": false,
      "inputs": [
        {
          "indexed": true,
          "internalType": "address",
          "name": "owner",
          "type": "address"
        },
        {
          "indexed": true,
          "internalType": "address",
          "name": "operator",
          "type": "address"
        },
        {
          "indexed": false,
          "internalType": "bool",
          "name": "approved",
          "type": "bool"
        }
      ],
      "name": "ApprovalForAll",
      "type": "event"
    },
    {
      "anonymous": false,
      "inputs": [
        {
          "indexed": true,
          "internalType": "address",
          "name": "previousOwner",
          "type": "address"
        },
        {
          "indexed": true,
          "internalType": "address",
          "name": "newOwner",
          "type": "address"
        }
      ],
      "name": "OwnershipTransferred",
      "type": "event"
    },
    {
      "anonymous": false,
      "inputs": [
        {
          "indexed": true,
          "internalType": "address",
          "name": "from",
          "type": "address"
        },
        {
          "indexed": true,
          "internalType": "address",
          "name": "to",
          "type": "address"
        },
        {
          "indexed": true,
          "internalType": "uint256",
          "name": "tokenId",
          "type": "uint256"
        }
      ],
      "name": "Transfer",
      "type": "event"
    },
    {
      "inputs": [
        {
          "internalType": "address",
          "name": "to",
          "type": "address"
        },
        {
          "internalType": "uint256",
          "name": "tokenId",
          "type": "uint256"
        }
      ],
      "name": "approve",
      "outputs": [],
      "stateMutability": "nonpayable",
      "type": "function"
    },
    {
      "inputs": [
        {
          "internalType": "address",
          "name": "owner",
          "type": "address"
        }
      ],
      "name": "balanceOf",
      "outputs": [
        {
          "internalType": "uint256",
          "name": "",
          "type": "uint256"
        }
      ],
      "stateMutability": "view",
      "type": "function"
    },
    {
      "inputs": [
        {
          "internalType": "uint256",
          "name": "tokenId",
          "type": "uint256"
        }
      ],
      "name": "getApproved",
      "outputs": [
        {
          "internalType": "address",
          "name": "",
          "type": "address"
        }
      ],
      "stateMutability": "view",
      "type": "function"
    },
    {
      "inputs": [
        {
          "internalType": "address",
          "name": "owner",
          "type": "address"
        },
        {
          "internalType": "address",
          "name": "operator",
          "type": "address"
        }
      ],
      "name": "isApprovedForAll",
      "outputs": [
        {
          "internalType": "bool",
          "name": "",
          "type": "bool"
        }
      ],
      "stateMutability": "view",
      "type": "function"
    },
    {
      "inputs": [],
      "name": "name",
      "outputs": [
        {
          "internalType": "string",
          "name": "",
          "type": "string"
        }
      ],
      "stateMutability": "view",
      "type": "function"
    },
    {
      "inputs": [],
      "name": "owner",
      "outputs": [
        {
          "internalType": "address",
          "name": "",
          "type": "address"
        }
      ],
      "stateMutability": "view",
      "type": "function"
    },
    {
      "inputs": [
        {
          "internalType": "uint256",
          "name": "tokenId",
          "type": "uint256"
        }
      ],
      "name": "ownerOf",
      "outputs": [
        {
          "internalType": "address",
          "name": "",
          "type": "address"
        }
      ],
      "stateMutability": "view",
      "type": "function"
    },
    {
      "inputs": [],
      "name": "renounceOwnership",
      "outputs": [],
      "stateMutability": "nonpayable",
      "type": "function"
    },
    {
      "inputs": [
        {
          "internalType": "address",
          "name": "from",
          "type": "address"
        },
        {
          "internalType": "address",
          "name": "to",
          "type": "address"
        },
        {
          "internalType": "uint256",
          "name": "tokenId",
          "type": "uint256"
        }
      ],
      "name": "safeTransferFrom",
      "outputs": [],
      "stateMutability": "nonpayable",
      "type": "function"
    },
    {
      "inputs": [
        {
          "internalType": "address",
          "name": "from",
          "type": "address"
        },
        {
          "internalType": "address",
          "name": "to",
          "type": "address"
        },
        {
          "internalType": "uint256",
          "name": "tokenId",
          "type": "uint256"
        },
        {
          "internalType": "bytes",
          "name": "_data",
          "type": "bytes"
        }
      ],
      "name": "safeTransferFrom",
      "outputs": [],
      "stateMutability": "nonpayable",
      "type": "function"
    },
    {
      "inputs": [],
      "name": "sellingStage",
      "outputs": [
        {
          "internalType": "enum IrlNFTCollection.Stages",
          "name": "",
          "type": "uint8"
        }
      ],
      "stateMutability": "view",
      "type": "function"
    },
    {
      "inputs": [
        {
          "internalType": "address",
          "name": "operator",
          "type": "address"
        },
        {
          "internalType": "bool",
          "name": "approved",
          "type": "bool"
        }
      ],
      "name": "setApprovalForAll",
      "outputs": [],
      "stateMutability": "nonpayable",
      "type": "function"
    },
    {
      "inputs": [
        {
          "internalType": "bytes4",
          "name": "interfaceId",
          "type": "bytes4"
        }
      ],
      "name": "supportsInterface",
      "outputs": [
        {
          "internalType": "bool",
          "name": "",
          "type": "bool"
        }
      ],
      "stateMutability": "view",
      "type": "function"
    },
    {
      "inputs": [],
      "name": "symbol",
      "outputs": [
        {
          "internalType": "string",
          "name": "",
          "type": "string"
        }
      ],
      "stateMutability": "view",
      "type": "function"
    },
    {
      "inputs": [
        {
          "internalType": "uint256",
          "name": "index",
          "type": "uint256"
        }
      ],
      "name": "tokenByIndex",
      "outputs": [
        {
          "internalType": "uint256",
          "name": "",
          "type": "uint256"
        }
      ],
      "stateMutability": "view",
      "type": "function"
    },
    {
      "inputs": [
        {
          "internalType": "address",
          "name": "owner",
          "type": "address"
        },
        {
          "internalType": "uint256",
          "name": "index",
          "type": "uint256"
        }
      ],
      "name": "tokenOfOwnerByIndex",
      "outputs": [
        {
          "internalType": "uint256",
          "name": "",
          "type": "uint256"
        }
      ],
      "stateMutability": "view",
      "type": "function"
    },
    {
      "inputs": [],
      "name": "totalSupply",
      "outputs": [
        {
          "internalType": "uint256",
          "name": "",
          "type": "uint256"
        }
      ],
      "stateMutability": "view",
      "type": "function"
    },
    {
      "inputs": [
        {
          "internalType": "address",
          "name": "from",
          "type": "address"
        },
        {
          "internalType": "address",
          "name": "to",
          "type": "address"
        },
        {
          "internalType": "uint256",
          "name": "tokenId",
          "type": "uint256"
        }
      ],
      "name": "transferFrom",
      "outputs": [],
      "stateMutability": "nonpayable",
      "type": "function"
    },
    {
      "inputs": [
        {
          "internalType": "address",
          "name": "newOwner",
          "type": "address"
        }
      ],
      "name": "transferOwnership",
      "outputs": [],
      "stateMutability": "nonpayable",
      "type": "function"
    },
    {
      "inputs": [
        {
          "internalType": "uint256",
          "name": "_amount",
          "type": "uint256"
        }
      ],
      "name": "setMaxSupply",
      "outputs": [],
      "stateMutability": "nonpayable",
      "type": "function"
    },
    {
      "inputs": [
        {
          "internalType": "string",
          "name": "__baseURI",
          "type": "string"
        }
      ],
      "name": "setBaseURI",
      "outputs": [],
      "stateMutability": "nonpayable",
      "type": "function"
    },
    {
      "inputs": [
        {
          "internalType": "string",
          "name": "_baseExtension",
          "type": "string"
        }
      ],
      "name": "setBaseExtension",
      "outputs": [],
      "stateMutability": "nonpayable",
      "type": "function"
    },
    {
      "inputs": [],
      "name": "setUpPresale",
      "outputs": [],
      "stateMutability": "nonpayable",
      "type": "function"
    },
    {
      "inputs": [],
      "name": "setUpSale",
      "outputs": [],
      "stateMutability": "nonpayable",
      "type": "function"
    },
    {
      "inputs": [],
      "name": "MintArt",
      "outputs": [
        {
          "internalType": "uint256",
          "name": "",
          "type": "uint256"
        }
      ],
      "stateMutability": "payable",
      "type": "function"
    },
    {
      "inputs": [
        {
          "internalType": "uint256",
          "name": "_nftId",
          "type": "uint256"
        }
      ],
      "name": "tokenURI",
      "outputs": [
        {
          "internalType": "string",
          "name": "",
          "type": "string"
        }
      ],
      "stateMutability": "view",
      "type": "function"
    },
    {
      "inputs": [
        {
          "internalType": "uint256",
          "name": "number",
          "type": "uint256"
        }
      ],
      "name": "random",
      "outputs": [
        {
          "internalType": "uint256",
          "name": "",
          "type": "uint256"
        }
      ],
      "stateMutability": "view",
      "type": "function"
    }
  ],
  "bytecode": "0x60c06040526005608081905264173539b7b760d91b60a09081526200002891600f919062000112565b503480156200003657600080fd5b50604051620025b1380380620025b1833981016040819052620000599162000285565b8151829082906200007290600090602085019062000112565b5080516200008890600190602084019062000112565b505050620000a56200009f620000bc60201b60201c565b620000c0565b50506001600b556011805460ff191690556200032b565b3390565b600a80546001600160a01b038381166001600160a01b0319831681179093556040519116919082907f8be0079c531659141344cd1fd0a4f28419497f9722a3daafe3b4186f6b6457e090600090a35050565b8280546200012090620002ef565b90600052602060002090601f0160209004810192826200014457600085556200018f565b82601f106200015f57805160ff19168380011785556200018f565b828001600101855582156200018f579182015b828111156200018f57825182559160200191906001019062000172565b506200019d929150620001a1565b5090565b5b808211156200019d5760008155600101620001a2565b634e487b7160e01b600052604160045260246000fd5b600082601f830112620001e057600080fd5b81516001600160401b0380821115620001fd57620001fd620001b8565b604051601f8301601f19908116603f01168101908282118183101715620002285762000228620001b8565b816040528381526020925086838588010111156200024557600080fd5b600091505b838210156200026957858201830151818301840152908201906200024a565b838211156200027b5760008385830101525b9695505050505050565b600080604083850312156200029957600080fd5b82516001600160401b0380821115620002b157600080fd5b620002bf86838701620001ce565b93506020850151915080821115620002d657600080fd5b50620002e585828601620001ce565b9150509250929050565b600181811c908216806200030457607f821691505b6020821081036200032557634e487b7160e01b600052602260045260246000fd5b50919050565b612276806200033b6000396000f3fe60806040526004361061013c5760003560e01c806301ffc9a71461014157806306fdde0314610176578063081812fc14610198578063095ea7b3146101d057806315c316fc146101f257806318160ddd146102075780631f2898c31461022657806323b872dd1461023b5780632f745c591461025b57806342842e0e1461027b57806345749ca41461029b5780634f6ccce7146102a357806355f804b3146102c35780636352211e146102e35780636f8b44b01461030357806370a0823114610323578063715018a6146103435780638da5cb5b1461035857806391efcf701461036d57806395d89b4114610394578063a22cb465146103a9578063b863bd37146103c9578063b88d4fde146103e9578063c87b56dd14610409578063da3ef23f14610429578063e985e9c514610449578063f2fde38b14610469575b600080fd5b34801561014d57600080fd5b5061016161015c366004611b91565b610489565b60405190151581526020015b60405180910390f35b34801561018257600080fd5b5061018b6104b4565b60405161016d9190611c06565b3480156101a457600080fd5b506101b86101b3366004611c19565b610546565b6040516001600160a01b03909116815260200161016d565b3480156101dc57600080fd5b506101f06101eb366004611c4e565b6105d3565b005b3480156101fe57600080fd5b506101f06106e3565b34801561021357600080fd5b506008545b60405190815260200161016d565b34801561023257600080fd5b506101f06107a2565b34801561024757600080fd5b506101f0610256366004611c78565b61085d565b34801561026757600080fd5b50610218610276366004611c4e565b61088e565b34801561028757600080fd5b506101f0610296366004611c78565b610924565b61021861093f565b3480156102af57600080fd5b506102186102be366004611c19565b610aec565b3480156102cf57600080fd5b506101f06102de366004611d3f565b610b7f565b3480156102ef57600080fd5b506101b86102fe366004611c19565b610bfb565b34801561030f57600080fd5b506101f061031e366004611c19565b610c72565b34801561032f57600080fd5b5061021861033e366004611d87565b610d16565b34801561034f57600080fd5b506101f0610d9d565b34801561036457600080fd5b506101b8610dd8565b34801561037957600080fd5b506011546103879060ff1681565b60405161016d9190611db8565b3480156103a057600080fd5b5061018b610de7565b3480156103b557600080fd5b506101f06103c4366004611de0565b610df6565b3480156103d557600080fd5b506102186103e4366004611c19565b610e01565b3480156103f557600080fd5b506101f0610404366004611e1c565b610e5a565b34801561041557600080fd5b5061018b610424366004611c19565b610e92565b34801561043557600080fd5b506101f0610444366004611d3f565b610f42565b34801561045557600080fd5b50610161610464366004611e97565b610fba565b34801561047557600080fd5b506101f0610484366004611d87565b610fe8565b60006001600160e01b0319821663780e9d6360e01b14806104ae57506104ae82611088565b92915050565b6060600080546104c390611eca565b80601f01602080910402602001604051908101604052809291908181526020018280546104ef90611eca565b801561053c5780601f106105115761010080835404028352916020019161053c565b820191906000526020600020905b81548152906001019060200180831161051f57829003601f168201915b5050505050905090565b6000610551826110d8565b6105b75760405162461bcd60e51b815260206004820152602c60248201527f4552433732313a20617070726f76656420717565727920666f72206e6f6e657860448201526b34b9ba32b73a103a37b5b2b760a11b60648201526084015b60405180910390fd5b506000908152600460205260409020546001600160a01b031690565b60006105de82610bfb565b9050806001600160a01b0316836001600160a01b03160361064b5760405162461bcd60e51b815260206004820152602160248201527f4552433732313a20617070726f76616c20746f2063757272656e74206f776e656044820152603960f91b60648201526084016105ae565b336001600160a01b038216148061066757506106678133610fba565b6106d45760405162461bcd60e51b815260206004820152603860248201527f4552433732313a20617070726f76652063616c6c6572206973206e6f74206f776044820152771b995c881b9bdc88185c1c1c9bdd995908199bdc88185b1b60421b60648201526084016105ae565b6106de83836110f5565b505050565b336106ec610dd8565b6001600160a01b0316146107125760405162461bcd60e51b81526004016105ae90611f04565b600060115460ff16600481111561072b5761072b611da2565b1461078c5760405162461bcd60e51b815260206004820152602b60248201527f53686f756c6420626520696e20436f6e66696720737461676520746f20676f2060448201526a3a3790283932b9b0b6329760a91b60648201526084016105ae565b601180546001919060ff191682805b0217905550565b336107ab610dd8565b6001600160a01b0316146107d15760405162461bcd60e51b81526004016105ae90611f04565b600160115460ff1660048111156107ea576107ea611da2565b146108495760405162461bcd60e51b815260206004820152602960248201527f53686f756c6420626520696e2050726573616c6520737461676520746f20676f604482015268103a379029b0b6329760b91b60648201526084016105ae565b601180546002919060ff191660018361079b565b6108673382611163565b6108835760405162461bcd60e51b81526004016105ae90611f39565b6106de83838361122d565b600061089983610d16565b82106108fb5760405162461bcd60e51b815260206004820152602b60248201527f455243373231456e756d657261626c653a206f776e657220696e646578206f7560448201526a74206f6620626f756e647360a81b60648201526084016105ae565b506001600160a01b03919091166000908152600660209081526040808320938352929052205490565b6106de83838360405180602001604052806000815250610e5a565b60006002600b54036109935760405162461bcd60e51b815260206004820152601f60248201527f5265656e7472616e637947756172643a207265656e7472616e742063616c6c0060448201526064016105ae565b6002600b81905560115460ff1660048111156109b1576109b1611da2565b146109fa5760405162461bcd60e51b815260206004820152601960248201527829b0b632903430b9903737ba1039ba30b93a32b2103cb2ba1760391b60448201526064016105ae565b600d54600854610a0b906001611fa0565b10610a4b5760405162461bcd60e51b815260206004820152601060248201526f105b1b0813919508185c99481cdbdb1960821b60448201526064016105ae565b610a59600c80546001019055565b6000610a656064610e01565b90506000610a72600c5490565b6000818152601060205260409020805461ffff1916905590506003821015610ab4576000818152601060205260409020805461ff001916610100179055610ad7565b600a821015610ad7576000818152601060205260409020805460ff191660011790555b610ae133826113c2565b9150506001600b5590565b6000610af760085490565b8210610b5a5760405162461bcd60e51b815260206004820152602c60248201527f455243373231456e756d657261626c653a20676c6f62616c20696e646578206f60448201526b7574206f6620626f756e647360a01b60648201526084016105ae565b60088281548110610b6d57610b6d611fb8565b90600052602060002001549050919050565b33610b88610dd8565b6001600160a01b031614610bae5760405162461bcd60e51b81526004016105ae90611f04565b600060115460ff166004811115610bc757610bc7611da2565b14610be45760405162461bcd60e51b81526004016105ae90611fce565b8051610bf790600e906020840190611ae2565b5050565b6000818152600260205260408120546001600160a01b0316806104ae5760405162461bcd60e51b815260206004820152602960248201527f4552433732313a206f776e657220717565727920666f72206e6f6e657869737460448201526832b73a103a37b5b2b760b91b60648201526084016105ae565b33610c7b610dd8565b6001600160a01b031614610ca15760405162461bcd60e51b81526004016105ae90611f04565b600060115460ff166004811115610cba57610cba611da2565b14610d115760405162461bcd60e51b815260206004820152603360248201526000805160206122218339815191526044820152723733b2903a34329036b0bc1039bab838363c9760691b60648201526084016105ae565b600d55565b60006001600160a01b038216610d815760405162461bcd60e51b815260206004820152602a60248201527f4552433732313a2062616c616e636520717565727920666f7220746865207a65604482015269726f206164647265737360b01b60648201526084016105ae565b506001600160a01b031660009081526003602052604090205490565b33610da6610dd8565b6001600160a01b031614610dcc5760405162461bcd60e51b81526004016105ae90611f04565b610dd660006113dc565b565b600a546001600160a01b031690565b6060600180546104c390611eca565b610bf733838361142e565b600081424433604051602001610e3793929190928352602083019190915260601b6001600160601b031916604082015260540190565b6040516020818303038152906040528051906020012060001c6104ae9190612023565b610e643383611163565b610e805760405162461bcd60e51b81526004016105ae90611f39565b610e8c848484846114f8565b50505050565b6060610e9d826110d8565b610ee35760405162461bcd60e51b81526020600482015260176024820152762a3434b99027232a103237b2b9b713ba1032bc34b9ba1760491b60448201526064016105ae565b6000610eed61152b565b90506000815111610f0d5760405180602001604052806000815250610f3b565b80610f178461153a565b600f604051602001610f2b93929190612037565b6040516020818303038152906040525b9392505050565b33610f4b610dd8565b6001600160a01b031614610f715760405162461bcd60e51b81526004016105ae90611f04565b600060115460ff166004811115610f8a57610f8a611da2565b14610fa75760405162461bcd60e51b81526004016105ae90611fce565b8051610bf790600f906020840190611ae2565b6001600160a01b03918216600090815260056020908152604080832093909416825291909152205460ff1690565b33610ff1610dd8565b6001600160a01b0316146110175760405162461bcd60e51b81526004016105ae90611f04565b6001600160a01b03811661107c5760405162461bcd60e51b815260206004820152602660248201527f4f776e61626c653a206e6577206f776e657220697320746865207a65726f206160448201526564647265737360d01b60648201526084016105ae565b611085816113dc565b50565b60006001600160e01b031982166380ac58cd60e01b14806110b957506001600160e01b03198216635b5e139f60e01b145b806104ae57506301ffc9a760e01b6001600160e01b03198316146104ae565b6000908152600260205260409020546001600160a01b0316151590565b600081815260046020526040902080546001600160a01b0319166001600160a01b038416908117909155819061112a82610bfb565b6001600160a01b03167f8c5be1e5ebec7d5bd14f71427d1e84f3dd0314c0f7b2291e5b200ac8c7c3b92560405160405180910390a45050565b600061116e826110d8565b6111cf5760405162461bcd60e51b815260206004820152602c60248201527f4552433732313a206f70657261746f7220717565727920666f72206e6f6e657860448201526b34b9ba32b73a103a37b5b2b760a11b60648201526084016105ae565b60006111da83610bfb565b9050806001600160a01b0316846001600160a01b031614806112155750836001600160a01b031661120a84610546565b6001600160a01b0316145b8061122557506112258185610fba565b949350505050565b826001600160a01b031661124082610bfb565b6001600160a01b0316146112a45760405162461bcd60e51b815260206004820152602560248201527f4552433732313a207472616e736665722066726f6d20696e636f72726563742060448201526437bbb732b960d91b60648201526084016105ae565b6001600160a01b0382166113065760405162461bcd60e51b8152602060048201526024808201527f4552433732313a207472616e7366657220746f20746865207a65726f206164646044820152637265737360e01b60648201526084016105ae565b61131183838361163a565b61131c6000826110f5565b6001600160a01b03831660009081526003602052604081208054600192906113459084906120fa565b90915550506001600160a01b0382166000908152600360205260408120805460019290611373908490611fa0565b909155505060008181526002602052604080822080546001600160a01b0319166001600160a01b03868116918217909255915184939187169160008051602061220183398151915291a4505050565b610bf78282604051806020016040528060008152506116f2565b600a80546001600160a01b038381166001600160a01b0319831681179093556040519116919082907f8be0079c531659141344cd1fd0a4f28419497f9722a3daafe3b4186f6b6457e090600090a35050565b816001600160a01b0316836001600160a01b03160361148b5760405162461bcd60e51b815260206004820152601960248201527822a9219b99189d1030b8383937bb32903a379031b0b63632b960391b60448201526064016105ae565b6001600160a01b03838116600081815260056020908152604080832094871680845294825291829020805460ff191686151590811790915591519182527f17307eab39ab6107e8899845ad3d59bd9653f200f220920489ca2b5937696c31910160405180910390a3505050565b61150384848461122d565b61150f84848484611725565b610e8c5760405162461bcd60e51b81526004016105ae90612111565b6060600e80546104c390611eca565b6060816000036115615750506040805180820190915260018152600360fc1b602082015290565b8160005b811561158b578061157581612163565b91506115849050600a8361217c565b9150611565565b6000816001600160401b038111156115a5576115a5611cb4565b6040519080825280601f01601f1916602001820160405280156115cf576020820181803683370190505b5090505b8415611225576115e46001836120fa565b91506115f1600a86612023565b6115fc906030611fa0565b60f81b81838151811061161157611611611fb8565b60200101906001600160f81b031916908160001a905350611633600a8661217c565b94506115d3565b6001600160a01b0383166116955761169081600880546000838152600960205260408120829055600182018355919091527ff3f7a9fe364faab93b216da50a3214154f22a0a2b415b23a84c8169e8b636ee30155565b6116b8565b816001600160a01b0316836001600160a01b0316146116b8576116b88382611826565b6001600160a01b0382166116cf576106de816118c3565b826001600160a01b0316826001600160a01b0316146106de576106de8282611972565b6116fc83836119b6565b6117096000848484611725565b6106de5760405162461bcd60e51b81526004016105ae90612111565b60006001600160a01b0384163b1561181b57604051630a85bd0160e11b81526001600160a01b0385169063150b7a0290611769903390899088908890600401612190565b6020604051808303816000875af19250505080156117a4575060408051601f3d908101601f191682019092526117a1918101906121cd565b60015b611801573d8080156117d2576040519150601f19603f3d011682016040523d82523d6000602084013e6117d7565b606091505b5080516000036117f95760405162461bcd60e51b81526004016105ae90612111565b805181602001fd5b6001600160e01b031916630a85bd0160e11b149050611225565b506001949350505050565b6000600161183384610d16565b61183d91906120fa565b600083815260076020526040902054909150808214611890576001600160a01b03841660009081526006602090815260408083208584528252808320548484528184208190558352600790915290208190555b5060009182526007602090815260408084208490556001600160a01b039094168352600681528383209183525290812055565b6008546000906118d5906001906120fa565b600083815260096020526040812054600880549394509092849081106118fd576118fd611fb8565b90600052602060002001549050806008838154811061191e5761191e611fb8565b6000918252602080832090910192909255828152600990915260408082208490558582528120556008805480611956576119566121ea565b6001900381819060005260206000200160009055905550505050565b600061197d83610d16565b6001600160a01b039093166000908152600660209081526040808320868452825280832085905593825260079052919091209190915550565b6001600160a01b038216611a0c5760405162461bcd60e51b815260206004820181905260248201527f4552433732313a206d696e7420746f20746865207a65726f206164647265737360448201526064016105ae565b611a15816110d8565b15611a615760405162461bcd60e51b815260206004820152601c60248201527b115490cdcc8c4e881d1bdad95b88185b1c9958591e481b5a5b9d195960221b60448201526064016105ae565b611a6d6000838361163a565b6001600160a01b0382166000908152600360205260408120805460019290611a96908490611fa0565b909155505060008181526002602052604080822080546001600160a01b0319166001600160a01b0386169081179091559051839290600080516020612201833981519152908290a45050565b828054611aee90611eca565b90600052602060002090601f016020900481019282611b105760008555611b56565b82601f10611b2957805160ff1916838001178555611b56565b82800160010185558215611b56579182015b82811115611b56578251825591602001919060010190611b3b565b50611b62929150611b66565b5090565b5b80821115611b625760008155600101611b67565b6001600160e01b03198116811461108557600080fd5b600060208284031215611ba357600080fd5b8135610f3b81611b7b565b60005b83811015611bc9578181015183820152602001611bb1565b83811115610e8c5750506000910152565b60008151808452611bf2816020860160208601611bae565b601f01601f19169290920160200192915050565b602081526000610f3b6020830184611bda565b600060208284031215611c2b57600080fd5b5035919050565b80356001600160a01b0381168114611c4957600080fd5b919050565b60008060408385031215611c6157600080fd5b611c6a83611c32565b946020939093013593505050565b600080600060608486031215611c8d57600080fd5b611c9684611c32565b9250611ca460208501611c32565b9150604084013590509250925092565b634e487b7160e01b600052604160045260246000fd5b60006001600160401b0380841115611ce457611ce4611cb4565b604051601f8501601f19908116603f01168101908282118183101715611d0c57611d0c611cb4565b81604052809350858152868686011115611d2557600080fd5b858560208301376000602087830101525050509392505050565b600060208284031215611d5157600080fd5b81356001600160401b03811115611d6757600080fd5b8201601f81018413611d7857600080fd5b61122584823560208401611cca565b600060208284031215611d9957600080fd5b610f3b82611c32565b634e487b7160e01b600052602160045260246000fd5b6020810160058310611dda57634e487b7160e01b600052602160045260246000fd5b91905290565b60008060408385031215611df357600080fd5b611dfc83611c32565b915060208301358015158114611e1157600080fd5b809150509250929050565b60008060008060808587031215611e3257600080fd5b611e3b85611c32565b9350611e4960208601611c32565b92506040850135915060608501356001600160401b03811115611e6b57600080fd5b8501601f81018713611e7c57600080fd5b611e8b87823560208401611cca565b91505092959194509250565b60008060408385031215611eaa57600080fd5b611eb383611c32565b9150611ec160208401611c32565b90509250929050565b600181811c90821680611ede57607f821691505b602082108103611efe57634e487b7160e01b600052602260045260246000fd5b50919050565b6020808252818101527f4f776e61626c653a2063616c6c6572206973206e6f7420746865206f776e6572604082015260600190565b60208082526031908201527f4552433732313a207472616e736665722063616c6c6572206973206e6f74206f6040820152701ddb995c881b9bdc88185c1c1c9bdd9959607a1b606082015260800190565b634e487b7160e01b600052601160045260246000fd5b60008219821115611fb357611fb3611f8a565b500190565b634e487b7160e01b600052603260045260246000fd5b60208082526031908201526000805160206122218339815191526040820152703733b2903a3432903130b9b2902aa9249760791b606082015260800190565b634e487b7160e01b600052601260045260246000fd5b6000826120325761203261200d565b500690565b60008451602061204a8285838a01611bae565b85519184019161205d8184848a01611bae565b8554920191600090600181811c908083168061207a57607f831692505b858310810361209757634e487b7160e01b85526022600452602485fd5b8080156120ab57600181146120bc576120e9565b60ff198516885283880195506120e9565b60008b81526020902060005b858110156120e15781548a8201529084019088016120c8565b505083880195505b50939b9a5050505050505050505050565b60008282101561210c5761210c611f8a565b500390565b60208082526032908201527f4552433732313a207472616e7366657220746f206e6f6e20455243373231526560408201527131b2b4bb32b91034b6b83632b6b2b73a32b960711b606082015260800190565b60006001820161217557612175611f8a565b5060010190565b60008261218b5761218b61200d565b500490565b6001600160a01b03858116825284166020820152604081018390526080606082018190526000906121c390830184611bda565b9695505050505050565b6000602082840312156121df57600080fd5b8151610f3b81611b7b565b634e487b7160e01b600052603160045260246000fdfeddf252ad1be2c89b69c2b068fc378daa952ba7f163c4a11628f55a4df523b3ef53686f756c6420626520696e20436f6e66696720737461676520746f20636861a2646970667358221220a79b29a41440c8c692d416152f78865d56cbcacad761eba6df4714bbb7605ee964736f6c634300080d0033",
  "immutableReferences": {},
  "source": "// SPDX-License-Identifier: MIT\r\npragma solidity 0.8.13;\r\n\r\nimport \"@openzeppelin/contracts/token/ERC721/ERC721.sol\";\r\nimport \"@openzeppelin/contracts/token/ERC721/extensions/ERC721Enumerable.sol\";\r\nimport \"@openzeppelin/contracts/utils/Counters.sol\";\r\nimport \"@openzeppelin/contracts/access/Ownable.sol\";\r\nimport \"@openzeppelin/contracts/security/ReentrancyGuard.sol\";\r\n\r\n/** \r\n  * @title In Real Life NFT collection\r\n  * @author Geoffrey B. / Christophe B.\r\n  * @notice NFT collection of an artist which may generate some action in real life\r\n  * @dev    If the contract is already deployed for an _artistName, it will revert.\r\n  */\r\ncontract IrlNFTCollection is ERC721Enumerable, Ownable, ReentrancyGuard {\r\n    using Strings for uint256;\r\n    using Counters for Counters.Counter;\r\n    Counters.Counter private _tokenIds;\r\n\r\n    // Max number of NFT to be minted\r\n    uint private maxSupply;\r\n\r\n    // URI of the NFTs when revealed\r\n    string private baseURI;\r\n    //The extension of the file containing the Metadatas of the NFTs\r\n    string private baseExtension = \".json\";\r\n\r\n    struct Arts{\r\n        bool sendIrl;\r\n        bool streetArt;\r\n    }\r\n    mapping(uint => Arts) private arts;\r\n\r\n    // The different stages of selling the collection\r\n    enum Stages {\r\n        Config,\r\n        Presale,\r\n        Sale,\r\n        SoldOut,\r\n        Reveal\r\n    }\r\n    Stages public sellingStage;\r\n\r\n    /**\r\n      * @notice Constructor parameters of ERC721. Params will be set by Collection Manager\r\n      */\r\n    constructor(string memory name_, string memory symbol_) ERC721 (name_, symbol_) {\r\n        sellingStage = Stages.Config;\r\n    }\r\n\r\n    /** \r\n    * @notice Allows to change the max supply during the config stage\r\n    **/\r\n    function setMaxSupply(uint _amount) external onlyOwner {\r\n        require(sellingStage == Stages.Config, \"Should be in Config stage to change the max supply.\");\r\n        maxSupply = _amount;\r\n    }\r\n\r\n    /** \r\n    * @notice Allows to change the max supply during the config stage\r\n    **/\r\n    function setBaseURI(string memory __baseURI) external onlyOwner {\r\n        require(sellingStage == Stages.Config, \"Should be in Config stage to change the base URI.\");\r\n        baseURI = __baseURI;\r\n    }\r\n\r\n    /** \r\n    * @notice Allows to change the max supply during the config stage\r\n    **/\r\n    function setBaseExtension(string memory _baseExtension) external onlyOwner {\r\n        require(sellingStage == Stages.Config, \"Should be in Config stage to change the base URI.\");\r\n        baseExtension = _baseExtension;\r\n    }\r\n\r\n    /**\r\n    * @notice Return URI of the NFTs when revealed\r\n    *\r\n    * @return The URI of the NFTs when revealed\r\n    **/\r\n    function _baseURI() internal view virtual override returns (string memory) {\r\n        return baseURI;\r\n    }\r\n\r\n    /** \r\n    * @notice Allows to change the sellinStep to Presale\r\n    **/\r\n    function setUpPresale() external onlyOwner {\r\n        require(sellingStage == Stages.Config, \"Should be in Config stage to go to Presale.\");\r\n        sellingStage = Stages.Presale;\r\n    }\r\n\r\n    /** \r\n    * @notice Allows to change the sellinStep to Sale\r\n    **/\r\n    function setUpSale() external onlyOwner {\r\n        require(sellingStage == Stages.Presale, \"Should be in Presale stage to go to Sale.\");\r\n        sellingStage = Stages.Sale;\r\n    }\r\n\r\n    /**\r\n    * @notice Allows to mint NFTs\r\n    *\r\n    * @return newItemId The Id of the minted NFT\r\n    **/\r\n    function MintArt() external payable nonReentrant returns (uint256)\r\n    {\r\n        require(sellingStage == Stages.Sale, \"Sale has not started yet.\");\r\n        require(totalSupply() + 1 < maxSupply, \"All NFT are sold\");\r\n        _tokenIds.increment();\r\n        uint randomNumber = random(100);\r\n        uint256 newItemId = _tokenIds.current();\r\n        arts[newItemId].sendIrl = false;\r\n        arts[newItemId].streetArt = false;\r\n        if (randomNumber < 3)\r\n            arts[newItemId].streetArt = true;\r\n        else if (randomNumber < 10)\r\n            arts[newItemId].sendIrl = true;\r\n        _safeMint(msg.sender, newItemId);\r\n\r\n        return newItemId;\r\n    }\r\n\r\n    /**\r\n    * @notice Allows to get the complete URI of a specific NFT by his ID\r\n    *\r\n    * @param _nftId The id of the NFT\r\n    *\r\n    * @return The token URI of the NFT which has _nftId Id\r\n    **/\r\n    function tokenURI(uint _nftId) public view override(ERC721) returns (string memory) {\r\n        require(_exists(_nftId), \"This NFT doesn't exist.\");\r\n        \r\n        string memory currentBaseURI = _baseURI();\r\n        return \r\n            bytes(currentBaseURI).length > 0 \r\n            ? string(abi.encodePacked(currentBaseURI, _nftId.toString(), baseExtension))\r\n            : \"\";\r\n    }\r\n\r\n    /**\r\n    * @notice Calculate a Random number is a specified range\r\n    *\r\n    * @dev Should be temporary as better random calculation exists (Chainlink VRF) \r\n    *\r\n    * @param number The max number\r\n    *\r\n    * @return uint representing the random value\r\n    **/    \r\n    function random(uint number) public view returns(uint){\r\n        return uint(keccak256(abi.encodePacked(block.timestamp,block.difficulty,  \r\n        msg.sender))) % number;\r\n    }\r\n}",
  "sourcePath": "C:\\Users\\chris\\git\\myduss\\contracts\\IrlNFTCollection.sol",
  "compiler": {
    "name": "solc",
    "version": "0.8.13+commit.abaa5c0e.Emscripten.clang"
  },
  "schemaVersion": "3.4.4",
  "updatedAt": "2022-04-28T21:52:44.734Z",
  "devdoc": {
    "author": "Geoffrey B. / Christophe B.",
    "details": "If the contract is already deployed for an _artistName, it will revert.",
    "kind": "dev",
    "methods": {
      "MintArt()": {
        "returns": {
          "_0": "newItemId The Id of the minted NFT*"
        }
      },
      "approve(address,uint256)": {
        "details": "See {IERC721-approve}."
      },
      "balanceOf(address)": {
        "details": "See {IERC721-balanceOf}."
      },
      "getApproved(uint256)": {
        "details": "See {IERC721-getApproved}."
      },
      "isApprovedForAll(address,address)": {
        "details": "See {IERC721-isApprovedForAll}."
      },
      "name()": {
        "details": "See {IERC721Metadata-name}."
      },
      "owner()": {
        "details": "Returns the address of the current owner."
      },
      "ownerOf(uint256)": {
        "details": "See {IERC721-ownerOf}."
      },
      "random(uint256)": {
        "details": "Should be temporary as better random calculation exists (Chainlink VRF) ",
        "params": {
          "number": "The max number"
        },
        "returns": {
          "_0": "uint representing the random value*"
        }
      },
      "renounceOwnership()": {
        "details": "Leaves the contract without owner. It will not be possible to call `onlyOwner` functions anymore. Can only be called by the current owner. NOTE: Renouncing ownership will leave the contract without an owner, thereby removing any functionality that is only available to the owner."
      },
      "safeTransferFrom(address,address,uint256)": {
        "details": "See {IERC721-safeTransferFrom}."
      },
      "safeTransferFrom(address,address,uint256,bytes)": {
        "details": "See {IERC721-safeTransferFrom}."
      },
      "setApprovalForAll(address,bool)": {
        "details": "See {IERC721-setApprovalForAll}."
      },
      "supportsInterface(bytes4)": {
        "details": "See {IERC165-supportsInterface}."
      },
      "symbol()": {
        "details": "See {IERC721Metadata-symbol}."
      },
      "tokenByIndex(uint256)": {
        "details": "See {IERC721Enumerable-tokenByIndex}."
      },
      "tokenOfOwnerByIndex(address,uint256)": {
        "details": "See {IERC721Enumerable-tokenOfOwnerByIndex}."
      },
      "tokenURI(uint256)": {
        "params": {
          "_nftId": "The id of the NFT"
        },
        "returns": {
          "_0": "The token URI of the NFT which has _nftId Id*"
        }
      },
      "totalSupply()": {
        "details": "See {IERC721Enumerable-totalSupply}."
      },
      "transferFrom(address,address,uint256)": {
        "details": "See {IERC721-transferFrom}."
      },
      "transferOwnership(address)": {
        "details": "Transfers ownership of the contract to a new account (`newOwner`). Can only be called by the current owner."
      }
    },
    "title": "In Real Life NFT collection",
    "version": 1
  },
  "userdoc": {
    "kind": "user",
    "methods": {
      "MintArt()": {
        "notice": "Allows to mint NFTs"
      },
      "constructor": {
        "notice": "Constructor parameters of ERC721. Params will be set by Collection Manager"
      },
      "random(uint256)": {
        "notice": "Calculate a Random number is a specified range"
      },
      "setBaseExtension(string)": {
        "notice": "Allows to change the max supply during the config stage*"
      },
      "setBaseURI(string)": {
        "notice": "Allows to change the max supply during the config stage*"
      },
      "setMaxSupply(uint256)": {
        "notice": "Allows to change the max supply during the config stage*"
      },
      "setUpPresale()": {
        "notice": "Allows to change the sellinStep to Presale*"
      },
      "setUpSale()": {
        "notice": "Allows to change the sellinStep to Sale*"
      },
      "tokenURI(uint256)": {
        "notice": "Allows to get the complete URI of a specific NFT by his ID"
      }
    },
    "notice": "NFT collection of an artist which may generate some action in real life",
    "version": 1
  }
}