{
  "contractName": "IrlNFTCollectionManager",
  "abi": [
    {
      "anonymous": false,
      "inputs": [
        {
          "indexed": false,
          "internalType": "bool",
          "name": "_created",
          "type": "bool"
        },
        {
          "indexed": false,
          "internalType": "string",
          "name": "_artistName",
          "type": "string"
        },
        {
          "indexed": false,
          "internalType": "address",
          "name": "_artistAddress",
          "type": "address"
        }
      ],
      "name": "ArtistUpdated",
      "type": "event"
    },
    {
      "anonymous": false,
      "inputs": [
        {
          "indexed": false,
          "internalType": "string",
          "name": "_collectionName",
          "type": "string"
        },
        {
          "indexed": false,
          "internalType": "address",
          "name": "_collectionAddress",
          "type": "address"
        },
        {
          "indexed": false,
          "internalType": "uint256",
          "name": "_timestamp",
          "type": "uint256"
        }
      ],
      "name": "IrlNFTCollectionCreated",
      "type": "event"
    },
    {
      "anonymous": false,
      "inputs": [
        {
          "indexed": true,
          "internalType": "address",
          "name": "previousOwner",
          "type": "address"
        },
        {
          "indexed": true,
          "internalType": "address",
          "name": "newOwner",
          "type": "address"
        }
      ],
      "name": "OwnershipTransferred",
      "type": "event"
    },
    {
      "anonymous": false,
      "inputs": [
        {
          "indexed": false,
          "internalType": "bool",
          "name": "_created",
          "type": "bool"
        },
        {
          "indexed": false,
          "internalType": "string",
          "name": "_userName",
          "type": "string"
        },
        {
          "indexed": false,
          "internalType": "address",
          "name": "_userAddress",
          "type": "address"
        }
      ],
      "name": "UserUpdated",
      "type": "event"
    },
    {
      "inputs": [
        {
          "internalType": "uint256",
          "name": "",
          "type": "uint256"
        }
      ],
      "name": "artistArray",
      "outputs": [
        {
          "internalType": "address",
          "name": "",
          "type": "address"
        }
      ],
      "stateMutability": "view",
      "type": "function"
    },
    {
      "inputs": [
        {
          "internalType": "uint256",
          "name": "",
          "type": "uint256"
        }
      ],
      "name": "collectionArray",
      "outputs": [
        {
          "internalType": "address",
          "name": "",
          "type": "address"
        }
      ],
      "stateMutability": "view",
      "type": "function"
    },
    {
      "inputs": [],
      "name": "getArtistArray",
      "outputs": [
        {
          "internalType": "address[]",
          "name": "",
          "type": "address[]"
        }
      ],
      "stateMutability": "view",
      "type": "function"
    },
    {
      "inputs": [
        {
          "internalType": "address",
          "name": "artistAddress",
          "type": "address"
        }
      ],
      "name": "getArtistDetails",
      "outputs": [
        {
          "internalType": "string",
          "name": "name",
          "type": "string"
        },
        {
          "internalType": "string",
          "name": "description",
          "type": "string"
        },
        {
          "internalType": "bool",
          "name": "verified",
          "type": "bool"
        }
      ],
      "stateMutability": "view",
      "type": "function"
    },
    {
      "inputs": [
        {
          "internalType": "address",
          "name": "userAddress",
          "type": "address"
        }
      ],
      "name": "getUserDetails",
      "outputs": [
        {
          "internalType": "string",
          "name": "name",
          "type": "string"
        },
        {
          "internalType": "string",
          "name": "description",
          "type": "string"
        }
      ],
      "stateMutability": "view",
      "type": "function"
    },
    {
      "inputs": [],
      "name": "owner",
      "outputs": [
        {
          "internalType": "address",
          "name": "",
          "type": "address"
        }
      ],
      "stateMutability": "view",
      "type": "function"
    },
    {
      "inputs": [],
      "name": "renounceOwnership",
      "outputs": [],
      "stateMutability": "nonpayable",
      "type": "function"
    },
    {
      "inputs": [
        {
          "internalType": "string",
          "name": "_artistName",
          "type": "string"
        },
        {
          "internalType": "string",
          "name": "_artistDescription",
          "type": "string"
        }
      ],
      "name": "setArtist",
      "outputs": [],
      "stateMutability": "nonpayable",
      "type": "function"
    },
    {
      "inputs": [
        {
          "internalType": "string",
          "name": "_userName",
          "type": "string"
        },
        {
          "internalType": "string",
          "name": "_userDescription",
          "type": "string"
        }
      ],
      "name": "setUser",
      "outputs": [],
      "stateMutability": "nonpayable",
      "type": "function"
    },
    {
      "inputs": [
        {
          "internalType": "address",
          "name": "newOwner",
          "type": "address"
        }
      ],
      "name": "transferOwnership",
      "outputs": [],
      "stateMutability": "nonpayable",
      "type": "function"
    },
    {
      "inputs": [
        {
          "internalType": "address",
          "name": "_artist",
          "type": "address"
        },
        {
          "internalType": "bool",
          "name": "_verified",
          "type": "bool"
        }
      ],
      "name": "verifyArtist",
      "outputs": [],
      "stateMutability": "nonpayable",
      "type": "function"
    },
    {
      "inputs": [
        {
          "internalType": "string",
          "name": "_collectionName",
          "type": "string"
        },
        {
          "internalType": "string",
          "name": "_collectionSymbol",
          "type": "string"
        }
      ],
      "name": "createIrlNFTCollection",
      "outputs": [
        {
          "internalType": "address",
          "name": "collectionAddress",
          "type": "address"
        }
      ],
      "stateMutability": "nonpayable",
      "type": "function"
    },
    {
      "inputs": [],
      "name": "getCollectionArray",
      "outputs": [
        {
          "internalType": "address[]",
          "name": "",
          "type": "address[]"
        }
      ],
      "stateMutability": "view",
      "type": "function"
    }
  ],
  "bytecode": "0x608060405234801561001057600080fd5b5061002d61002261003260201b60201c565b61003a60201b60201c565b6100fe565b600033905090565b60008060009054906101000a900473ffffffffffffffffffffffffffffffffffffffff169050816000806101000a81548173ffffffffffffffffffffffffffffffffffffffff021916908373ffffffffffffffffffffffffffffffffffffffff1602179055508173ffffffffffffffffffffffffffffffffffffffff168173ffffffffffffffffffffffffffffffffffffffff167f8be0079c531659141344cd1fd0a4f28419497f9722a3daafe3b4186f6b6457e060405160405180910390a35050565b611cca8061010d6000396000f3fe608060405234801561001057600080fd5b50600436106100af5760003560e01c806332b4e78e146100b45780633a96f51d146100d05780635728b973146100ee578063715018a61461010a57806381c7f0b6146101145780638da5cb5b146101445780638fa84e8214610162578063a5ed38d014610192578063ae6f371a146101c2578063cc3d967b146101e0578063d81b39a514610211578063f2fde38b14610243578063fc622b661461025f575b600080fd5b6100ce60048036038101906100c991906113f9565b61027b565b005b6100d86103eb565b6040516100e591906114f7565b60405180910390f35b6101086004803603810190610103919061165f565b610479565b005b6101126106a3565b005b61012e6004803603810190610129919061165f565b61072b565b60405161013b91906116e6565b60405180910390f35b61014c610982565b60405161015991906116e6565b60405180910390f35b61017c60048036038101906101779190611737565b6109ab565b60405161018991906116e6565b60405180910390f35b6101ac60048036038101906101a79190611737565b6109ea565b6040516101b991906116e6565b60405180910390f35b6101ca610a29565b6040516101d791906114f7565b60405180910390f35b6101fa60048036038101906101f59190611764565b610ab7565b604051610208929190611819565b60405180910390f35b61022b60048036038101906102269190611764565b610c5f565b60405161023a9392919061185f565b60405180910390f35b61025d60048036038101906102589190611764565b610e5d565b005b6102796004803603810190610274919061165f565b610f54565b005b6102836111e0565b73ffffffffffffffffffffffffffffffffffffffff166102a1610982565b73ffffffffffffffffffffffffffffffffffffffff16146102f7576040517f08c379a00000000000000000000000000000000000000000000000000000000081526004016102ee906118f0565b60405180910390fd5b60011515600160008473ffffffffffffffffffffffffffffffffffffffff1673ffffffffffffffffffffffffffffffffffffffff16815260200190815260200160002060020160009054906101000a900460ff1615151461038d576040517f08c379a00000000000000000000000000000000000000000000000000000000081526004016103849061195c565b60405180910390fd5b80600160008473ffffffffffffffffffffffffffffffffffffffff1673ffffffffffffffffffffffffffffffffffffffff16815260200190815260200160002060020160016101000a81548160ff0219169083151502179055505050565b6060600280548060200260200160405190810160405280929190818152602001828054801561046f57602002820191906000526020600020905b8160009054906101000a900473ffffffffffffffffffffffffffffffffffffffff1673ffffffffffffffffffffffffffffffffffffffff1681526020019060010190808311610425575b5050505050905090565b60008251116104bd576040517f08c379a00000000000000000000000000000000000000000000000000000000081526004016104b4906119c8565b60405180910390fd5b81600360003373ffffffffffffffffffffffffffffffffffffffff1673ffffffffffffffffffffffffffffffffffffffff16815260200190815260200160002060000190805190602001906105139291906112ac565b5080600360003373ffffffffffffffffffffffffffffffffffffffff1673ffffffffffffffffffffffffffffffffffffffff168152602001908152602001600020600101908051906020019061056a9291906112ac565b5060001515600360003373ffffffffffffffffffffffffffffffffffffffff1673ffffffffffffffffffffffffffffffffffffffff16815260200190815260200160002060020160009054906101000a900460ff16151503610662576001600360003373ffffffffffffffffffffffffffffffffffffffff1673ffffffffffffffffffffffffffffffffffffffff16815260200190815260200160002060020160006101000a81548160ff0219169083151502179055507f4502340c596508ad36622fdd2657779a6e851dd75eb0fc820e5220ceacaf050060018333604051610655939291906119e8565b60405180910390a161069f565b7f4502340c596508ad36622fdd2657779a6e851dd75eb0fc820e5220ceacaf050060008333604051610696939291906119e8565b60405180910390a15b5050565b6106ab6111e0565b73ffffffffffffffffffffffffffffffffffffffff166106c9610982565b73ffffffffffffffffffffffffffffffffffffffff161461071f576040517f08c379a0000000000000000000000000000000000000000000000000000000008152600401610716906118f0565b60405180910390fd5b61072960006111e8565b565b60008273__DeployNFTCollection___________________639436e1d89091846040518363ffffffff1660e01b8152600401610768929190611a70565b602060405180830381865af4158015610785573d6000803e3d6000fd5b505050506040513d601f19601f820116820180604052508101906107a99190611abc565b905060001515600160003373ffffffffffffffffffffffffffffffffffffffff1673ffffffffffffffffffffffffffffffffffffffff16815260200190815260200160002060020160009054906101000a900460ff161515036108205761081f8360405180602001604052806000815250610f54565b5b80600160003373ffffffffffffffffffffffffffffffffffffffff1673ffffffffffffffffffffffffffffffffffffffff16815260200190815260200160002060030160008373ffffffffffffffffffffffffffffffffffffffff1673ffffffffffffffffffffffffffffffffffffffff16815260200190815260200160002060006101000a81548173ffffffffffffffffffffffffffffffffffffffff021916908373ffffffffffffffffffffffffffffffffffffffff1602179055506004819080600181540180825580915050600190039060005260206000200160009091909190916101000a81548173ffffffffffffffffffffffffffffffffffffffff021916908373ffffffffffffffffffffffffffffffffffffffff1602179055507fc536b3bec7a024b43ee2d84dcf6141d2566cdea9023953648d9e55d02ecf256083824260405161097493929190611af8565b60405180910390a192915050565b60008060009054906101000a900473ffffffffffffffffffffffffffffffffffffffff16905090565b600481815481106109bb57600080fd5b906000526020600020016000915054906101000a900473ffffffffffffffffffffffffffffffffffffffff1681565b600281815481106109fa57600080fd5b906000526020600020016000915054906101000a900473ffffffffffffffffffffffffffffffffffffffff1681565b60606004805480602002602001604051908101604052809291908181526020018280548015610aad57602002820191906000526020600020905b8160009054906101000a900473ffffffffffffffffffffffffffffffffffffffff1673ffffffffffffffffffffffffffffffffffffffff1681526020019060010190808311610a63575b5050505050905090565b606080600360008473ffffffffffffffffffffffffffffffffffffffff1673ffffffffffffffffffffffffffffffffffffffff168152602001908152602001600020600001600360008573ffffffffffffffffffffffffffffffffffffffff1673ffffffffffffffffffffffffffffffffffffffff168152602001908152602001600020600101818054610b4a90611b65565b80601f0160208091040260200160405190810160405280929190818152602001828054610b7690611b65565b8015610bc35780601f10610b9857610100808354040283529160200191610bc3565b820191906000526020600020905b815481529060010190602001808311610ba657829003601f168201915b50505050509150808054610bd690611b65565b80601f0160208091040260200160405190810160405280929190818152602001828054610c0290611b65565b8015610c4f5780601f10610c2457610100808354040283529160200191610c4f565b820191906000526020600020905b815481529060010190602001808311610c3257829003601f168201915b5050505050905091509150915091565b6060806000600160008573ffffffffffffffffffffffffffffffffffffffff1673ffffffffffffffffffffffffffffffffffffffff168152602001908152602001600020600001600160008673ffffffffffffffffffffffffffffffffffffffff1673ffffffffffffffffffffffffffffffffffffffff168152602001908152602001600020600101600160008773ffffffffffffffffffffffffffffffffffffffff1673ffffffffffffffffffffffffffffffffffffffff16815260200190815260200160002060020160019054906101000a900460ff16828054610d4490611b65565b80601f0160208091040260200160405190810160405280929190818152602001828054610d7090611b65565b8015610dbd5780601f10610d9257610100808354040283529160200191610dbd565b820191906000526020600020905b815481529060010190602001808311610da057829003601f168201915b50505050509250818054610dd090611b65565b80601f0160208091040260200160405190810160405280929190818152602001828054610dfc90611b65565b8015610e495780601f10610e1e57610100808354040283529160200191610e49565b820191906000526020600020905b815481529060010190602001808311610e2c57829003601f168201915b505050505091509250925092509193909250565b610e656111e0565b73ffffffffffffffffffffffffffffffffffffffff16610e83610982565b73ffffffffffffffffffffffffffffffffffffffff1614610ed9576040517f08c379a0000000000000000000000000000000000000000000000000000000008152600401610ed0906118f0565b60405180910390fd5b600073ffffffffffffffffffffffffffffffffffffffff168173ffffffffffffffffffffffffffffffffffffffff1603610f48576040517f08c379a0000000000000000000000000000000000000000000000000000000008152600401610f3f90611c08565b60405180910390fd5b610f51816111e8565b50565b6000825111610f98576040517f08c379a0000000000000000000000000000000000000000000000000000000008152600401610f8f90611c74565b60405180910390fd5b81600160003373ffffffffffffffffffffffffffffffffffffffff1673ffffffffffffffffffffffffffffffffffffffff1681526020019081526020016000206000019080519060200190610fee9291906112ac565b5080600160003373ffffffffffffffffffffffffffffffffffffffff1673ffffffffffffffffffffffffffffffffffffffff16815260200190815260200160002060010190805190602001906110459291906112ac565b5060001515600160003373ffffffffffffffffffffffffffffffffffffffff1673ffffffffffffffffffffffffffffffffffffffff16815260200190815260200160002060020160009054906101000a900460ff1615150361119f5760018060003373ffffffffffffffffffffffffffffffffffffffff1673ffffffffffffffffffffffffffffffffffffffff16815260200190815260200160002060020160006101000a81548160ff0219169083151502179055506002339080600181540180825580915050600190039060005260206000200160009091909190916101000a81548173ffffffffffffffffffffffffffffffffffffffff021916908373ffffffffffffffffffffffffffffffffffffffff1602179055507f0c568080c9f2d17381ac0b5a1d445d1e0c05884108126da188a737d979bd230860018333604051611192939291906119e8565b60405180910390a16111dc565b7f0c568080c9f2d17381ac0b5a1d445d1e0c05884108126da188a737d979bd2308600083336040516111d3939291906119e8565b60405180910390a15b5050565b600033905090565b60008060009054906101000a900473ffffffffffffffffffffffffffffffffffffffff169050816000806101000a81548173ffffffffffffffffffffffffffffffffffffffff021916908373ffffffffffffffffffffffffffffffffffffffff1602179055508173ffffffffffffffffffffffffffffffffffffffff168173ffffffffffffffffffffffffffffffffffffffff167f8be0079c531659141344cd1fd0a4f28419497f9722a3daafe3b4186f6b6457e060405160405180910390a35050565b8280546112b890611b65565b90600052602060002090601f0160209004810192826112da5760008555611321565b82601f106112f357805160ff1916838001178555611321565b82800160010185558215611321579182015b82811115611320578251825591602001919060010190611305565b5b50905061132e9190611332565b5090565b5b8082111561134b576000816000905550600101611333565b5090565b6000604051905090565b600080fd5b600080fd5b600073ffffffffffffffffffffffffffffffffffffffff82169050919050565b600061138e82611363565b9050919050565b61139e81611383565b81146113a957600080fd5b50565b6000813590506113bb81611395565b92915050565b60008115159050919050565b6113d6816113c1565b81146113e157600080fd5b50565b6000813590506113f3816113cd565b92915050565b600080604083850312156114105761140f611359565b5b600061141e858286016113ac565b925050602061142f858286016113e4565b9150509250929050565b600081519050919050565b600082825260208201905092915050565b6000819050602082019050919050565b61146e81611383565b82525050565b60006114808383611465565b60208301905092915050565b6000602082019050919050565b60006114a482611439565b6114ae8185611444565b93506114b983611455565b8060005b838110156114ea5781516114d18882611474565b97506114dc8361148c565b9250506001810190506114bd565b5085935050505092915050565b600060208201905081810360008301526115118184611499565b905092915050565b600080fd5b600080fd5b6000601f19601f8301169050919050565b7f4e487b7100000000000000000000000000000000000000000000000000000000600052604160045260246000fd5b61156c82611523565b810181811067ffffffffffffffff8211171561158b5761158a611534565b5b80604052505050565b600061159e61134f565b90506115aa8282611563565b919050565b600067ffffffffffffffff8211156115ca576115c9611534565b5b6115d382611523565b9050602081019050919050565b82818337600083830152505050565b60006116026115fd846115af565b611594565b90508281526020810184848401111561161e5761161d61151e565b5b6116298482856115e0565b509392505050565b600082601f83011261164657611645611519565b5b81356116568482602086016115ef565b91505092915050565b6000806040838503121561167657611675611359565b5b600083013567ffffffffffffffff8111156116945761169361135e565b5b6116a085828601611631565b925050602083013567ffffffffffffffff8111156116c1576116c061135e565b5b6116cd85828601611631565b9150509250929050565b6116e081611383565b82525050565b60006020820190506116fb60008301846116d7565b92915050565b6000819050919050565b61171481611701565b811461171f57600080fd5b50565b6000813590506117318161170b565b92915050565b60006020828403121561174d5761174c611359565b5b600061175b84828501611722565b91505092915050565b60006020828403121561177a57611779611359565b5b6000611788848285016113ac565b91505092915050565b600081519050919050565b600082825260208201905092915050565b60005b838110156117cb5780820151818401526020810190506117b0565b838111156117da576000848401525b50505050565b60006117eb82611791565b6117f5818561179c565b93506118058185602086016117ad565b61180e81611523565b840191505092915050565b6000604082019050818103600083015261183381856117e0565b9050818103602083015261184781846117e0565b90509392505050565b611859816113c1565b82525050565b6000606082019050818103600083015261187981866117e0565b9050818103602083015261188d81856117e0565b905061189c6040830184611850565b949350505050565b7f4f776e61626c653a2063616c6c6572206973206e6f7420746865206f776e6572600082015250565b60006118da60208361179c565b91506118e5826118a4565b602082019050919050565b60006020820190508181036000830152611909816118cd565b9050919050565b7f61727469737420646f6573206e6f742065786973747300000000000000000000600082015250565b600061194660168361179c565b915061195182611910565b602082019050919050565b6000602082019050818103600083015261197581611939565b9050919050565b7f75736572206e616d652063616e6e6f7420626520656d70747900000000000000600082015250565b60006119b260198361179c565b91506119bd8261197c565b602082019050919050565b600060208201905081810360008301526119e1816119a5565b9050919050565b60006060820190506119fd6000830186611850565b8181036020830152611a0f81856117e0565b9050611a1e60408301846116d7565b949350505050565b600082825260208201905092915050565b6000611a4282611791565b611a4c8185611a26565b9350611a5c8185602086016117ad565b611a6581611523565b840191505092915050565b60006040820190508181036000830152611a8a8185611a37565b90508181036020830152611a9e8184611a37565b90509392505050565b600081519050611ab681611395565b92915050565b600060208284031215611ad257611ad1611359565b5b6000611ae084828501611aa7565b91505092915050565b611af281611701565b82525050565b60006060820190508181036000830152611b1281866117e0565b9050611b2160208301856116d7565b611b2e6040830184611ae9565b949350505050565b7f4e487b7100000000000000000000000000000000000000000000000000000000600052602260045260246000fd5b60006002820490506001821680611b7d57607f821691505b602082108103611b9057611b8f611b36565b5b50919050565b7f4f776e61626c653a206e6577206f776e657220697320746865207a65726f206160008201527f6464726573730000000000000000000000000000000000000000000000000000602082015250565b6000611bf260268361179c565b9150611bfd82611b96565b604082019050919050565b60006020820190508181036000830152611c2181611be5565b9050919050565b7f617274697374206e616d652063616e6e6f7420626520656d7074790000000000600082015250565b6000611c5e601b8361179c565b9150611c6982611c28565b602082019050919050565b60006020820190508181036000830152611c8d81611c51565b905091905056fea2646970667358221220d724018d1d49d1767f0e945a0bbaae3e62a8568ea5a1b9568914638ea8a1a37964736f6c634300080d0033",
  "immutableReferences": {},
  "source": "// SPDX-License-Identifier: MIT\r\npragma solidity 0.8.13;\r\n\r\n// importing the ERC-721 contract to deploy for an artist\r\nimport \"./IrlNFTCollection.sol\";\r\nimport \"./Artists.sol\";\r\nimport \"./Users.sol\";\r\n\r\nlibrary DeployNFTCollection {\r\n\r\n    /**\r\n      * @notice Generate the contract bytecode including constructor parameters\r\n      *\r\n      * @return bytecode of the contract\r\n      */\r\n    function getCreationBytecode(string memory _artistName, string memory _artistSymbol) private pure returns (bytes memory) {\r\n        bytes memory bytecode = type(IrlNFTCollection).creationCode;\r\n\r\n        return abi.encodePacked(bytecode, abi.encode(_artistName, _artistSymbol));\r\n    }\r\n\r\n    /**\r\n      * @notice Deploy the ERC-721 Collection contract of the artist caller to be able to create NFTs later\r\n      *\r\n      * @return collectionAddress the address of the created collection contract\r\n      */\r\n    function deployNFTCollection(string memory _collectionName, string memory _collectionSymbol) external returns (address collectionAddress) {\r\n        // Import the bytecode of the contract to deploy\r\n        bytes memory collectionBytecode = getCreationBytecode(_collectionName, _collectionSymbol);\r\n\t\t\t\t// Make a random salt based on the artist name\r\n        bytes32 salt = keccak256(abi.encodePacked(_collectionName));\r\n\r\n        assembly {\r\n            collectionAddress := create2(0, add(collectionBytecode, 0x20), mload(collectionBytecode), salt)\r\n            if iszero(extcodesize(collectionAddress)) {\r\n                // revert if something gone wrong (collectionAddress doesn't contain an address)\r\n                revert(0, 0)\r\n            }\r\n        }\r\n        return collectionAddress;\r\n    }\r\n}\r\n\r\n/** \r\n  * @title In Real Life NFT collection Manager\r\n  * @author Geoffrey B. / Christophe B.\r\n  * @notice Give the ability to deploy a contract to manage ERC-721 tokens for an Artist. S/O @Snow\r\n  * @dev    If the contract is already deployed for an _artistName, it will revert.\r\n  */\r\ncontract IrlNFTCollectionManager is Artists, Users{\r\n    using DeployNFTCollection for string;\r\n\r\n    // Array of collection addresses\r\n    address[] public collectionArray;\r\n\r\n    /// @notice Event emitted each time a new NFT collection is created\r\n    event IrlNFTCollectionCreated(string _collectionName, address _collectionAddress, uint _timestamp);\r\n\r\n    /**\r\n      * @notice Generate the contract bytecode including constructor parameters\r\n      *\r\n      * @return bytecode of the contract\r\n      */\r\n    /*function getCreationBytecode(string memory _artistName, string memory _artistSymbol) private pure returns (bytes memory) {\r\n        bytes memory bytecode = type(IrlNFTCollection).creationCode;\r\n\r\n        return abi.encodePacked(bytecode, abi.encode(_artistName, _artistSymbol));\r\n    }*/\r\n\r\n    /**\r\n      * @notice Deploy the ERC-721 Collection contract of the artist caller to be able to create NFTs later\r\n      *\r\n      * @return collectionAddress the address of the created collection contract\r\n      */\r\n    function createIrlNFTCollection(string memory _collectionName, string memory _collectionSymbol) external returns (address collectionAddress) {\r\n        // Import the bytecode of the contract to deploy\r\n        /*bytes memory collectionBytecode = getCreationBytecode(_collectionName, _collectionSymbol);\r\n\t\t\t\t// Make a random salt based on the artist name\r\n        bytes32 salt = keccak256(abi.encodePacked(_collectionName));\r\n\r\n        assembly {\r\n            collectionAddress := create2(0, add(collectionBytecode, 0x20), mload(collectionBytecode), salt)\r\n            if iszero(extcodesize(collectionAddress)) {\r\n                // revert if something gone wrong (collectionAddress doesn't contain an address)\r\n                revert(0, 0)\r\n            }\r\n        }\r\n        // Initialize the collection contract with the artist settings\r\n        //IrlNFTCollection(collectionAddress).initialize(msg.sender);*/\r\n        collectionAddress = _collectionName.deployNFTCollection(_collectionSymbol);\r\n        \r\n        // create the artist if not exist\r\n        if (artists[msg.sender].created == false) {\r\n            setArtist(_collectionName, \"\");\r\n        }\r\n        artists[msg.sender].collections[collectionAddress] = IrlNFTCollection(collectionAddress);\r\n        collectionArray.push(collectionAddress);\r\n\r\n        emit IrlNFTCollectionCreated(_collectionName, collectionAddress, block.timestamp);\r\n    }\r\n\r\n    /**\r\n      * @notice Return the list of collection addresses created\r\n      *\r\n      * @return collectionArray the array of collection addresses\r\n      */    \r\n    function getCollectionArray() public view returns( address  [] memory){\r\n        return collectionArray;\r\n    }\r\n}\r\n",
  "sourcePath": "C:\\Users\\chris\\git\\myduss\\contracts\\IrlNftCollectionManager.sol",
  "compiler": {
    "name": "solc",
    "version": "0.8.13+commit.abaa5c0e.Emscripten.clang"
  },
  "schemaVersion": "3.4.4",
  "updatedAt": "2022-04-29T21:09:02.200Z",
  "devdoc": {
    "author": "Geoffrey B. / Christophe B.",
    "details": "If the contract is already deployed for an _artistName, it will revert.",
    "kind": "dev",
    "methods": {
      "createIrlNFTCollection(string,string)": {
        "returns": {
          "collectionAddress": "the address of the created collection contract"
        }
      },
      "getArtistArray()": {
        "returns": {
          "_0": "artistArray the array of artis addresses"
        }
      },
      "getArtistDetails(address)": {
        "returns": {
          "description": "of the artist",
          "name": "of the artist",
          "verified": "information about the artist"
        }
      },
      "getCollectionArray()": {
        "returns": {
          "_0": "collectionArray the array of collection addresses"
        }
      },
      "getUserDetails(address)": {
        "returns": {
          "description": "of the user",
          "name": "of the user"
        }
      },
      "owner()": {
        "details": "Returns the address of the current owner."
      },
      "renounceOwnership()": {
        "details": "Leaves the contract without owner. It will not be possible to call `onlyOwner` functions anymore. Can only be called by the current owner. NOTE: Renouncing ownership will leave the contract without an owner, thereby removing any functionality that is only available to the owner."
      },
      "transferOwnership(address)": {
        "details": "Transfers ownership of the contract to a new account (`newOwner`). Can only be called by the current owner."
      }
    },
    "title": "In Real Life NFT collection Manager",
    "version": 1
  },
  "userdoc": {
    "events": {
      "ArtistUpdated(bool,string,address)": {
        "notice": "Event emitted each time a new artist is created or updated"
      },
      "IrlNFTCollectionCreated(string,address,uint256)": {
        "notice": "Event emitted each time a new NFT collection is created"
      },
      "UserUpdated(bool,string,address)": {
        "notice": "Event emitted each time a new user is created or updated"
      }
    },
    "kind": "user",
    "methods": {
      "createIrlNFTCollection(string,string)": {
        "notice": "Deploy the ERC-721 Collection contract of the artist caller to be able to create NFTs later"
      },
      "getArtistArray()": {
        "notice": "Return the list of artist addresses created"
      },
      "getArtistDetails(address)": {
        "notice": "Return the details of an artist based on its address"
      },
      "getCollectionArray()": {
        "notice": "Return the list of collection addresses created"
      },
      "getUserDetails(address)": {
        "notice": "Return the details of a user based on its address"
      },
      "setArtist(string,string)": {
        "notice": "Create or update an artist"
      },
      "setUser(string,string)": {
        "notice": "Create or update a user"
      },
      "verifyArtist(address,bool)": {
        "notice": "Verify or Unverify an existing artist"
      }
    },
    "notice": "Give the ability to deploy a contract to manage ERC-721 tokens for an Artist. S/O @Snow",
    "version": 1
  }
}