{
  "contractName": "IrlNFTCollection",
  "abi": [
    {
      "inputs": [
        {
          "internalType": "string",
          "name": "name_",
          "type": "string"
        },
        {
          "internalType": "string",
          "name": "symbol_",
          "type": "string"
        }
      ],
      "stateMutability": "nonpayable",
      "type": "constructor"
    },
    {
      "anonymous": false,
      "inputs": [
        {
          "indexed": true,
          "internalType": "address",
          "name": "owner",
          "type": "address"
        },
        {
          "indexed": true,
          "internalType": "address",
          "name": "approved",
          "type": "address"
        },
        {
          "indexed": true,
          "internalType": "uint256",
          "name": "tokenId",
          "type": "uint256"
        }
      ],
      "name": "Approval",
      "type": "event"
    },
    {
      "anonymous": false,
      "inputs": [
        {
          "indexed": true,
          "internalType": "address",
          "name": "owner",
          "type": "address"
        },
        {
          "indexed": true,
          "internalType": "address",
          "name": "operator",
          "type": "address"
        },
        {
          "indexed": false,
          "internalType": "bool",
          "name": "approved",
          "type": "bool"
        }
      ],
      "name": "ApprovalForAll",
      "type": "event"
    },
    {
      "anonymous": false,
      "inputs": [
        {
          "indexed": true,
          "internalType": "address",
          "name": "previousOwner",
          "type": "address"
        },
        {
          "indexed": true,
          "internalType": "address",
          "name": "newOwner",
          "type": "address"
        }
      ],
      "name": "OwnershipTransferred",
      "type": "event"
    },
    {
      "anonymous": false,
      "inputs": [
        {
          "indexed": true,
          "internalType": "address",
          "name": "from",
          "type": "address"
        },
        {
          "indexed": true,
          "internalType": "address",
          "name": "to",
          "type": "address"
        },
        {
          "indexed": true,
          "internalType": "uint256",
          "name": "tokenId",
          "type": "uint256"
        }
      ],
      "name": "Transfer",
      "type": "event"
    },
    {
      "inputs": [
        {
          "internalType": "address",
          "name": "to",
          "type": "address"
        },
        {
          "internalType": "uint256",
          "name": "tokenId",
          "type": "uint256"
        }
      ],
      "name": "approve",
      "outputs": [],
      "stateMutability": "nonpayable",
      "type": "function"
    },
    {
      "inputs": [
        {
          "internalType": "address",
          "name": "owner",
          "type": "address"
        }
      ],
      "name": "balanceOf",
      "outputs": [
        {
          "internalType": "uint256",
          "name": "",
          "type": "uint256"
        }
      ],
      "stateMutability": "view",
      "type": "function"
    },
    {
      "inputs": [
        {
          "internalType": "uint256",
          "name": "tokenId",
          "type": "uint256"
        }
      ],
      "name": "getApproved",
      "outputs": [
        {
          "internalType": "address",
          "name": "",
          "type": "address"
        }
      ],
      "stateMutability": "view",
      "type": "function"
    },
    {
      "inputs": [
        {
          "internalType": "address",
          "name": "owner",
          "type": "address"
        },
        {
          "internalType": "address",
          "name": "operator",
          "type": "address"
        }
      ],
      "name": "isApprovedForAll",
      "outputs": [
        {
          "internalType": "bool",
          "name": "",
          "type": "bool"
        }
      ],
      "stateMutability": "view",
      "type": "function"
    },
    {
      "inputs": [],
      "name": "name",
      "outputs": [
        {
          "internalType": "string",
          "name": "",
          "type": "string"
        }
      ],
      "stateMutability": "view",
      "type": "function"
    },
    {
      "inputs": [],
      "name": "owner",
      "outputs": [
        {
          "internalType": "address",
          "name": "",
          "type": "address"
        }
      ],
      "stateMutability": "view",
      "type": "function"
    },
    {
      "inputs": [
        {
          "internalType": "uint256",
          "name": "tokenId",
          "type": "uint256"
        }
      ],
      "name": "ownerOf",
      "outputs": [
        {
          "internalType": "address",
          "name": "",
          "type": "address"
        }
      ],
      "stateMutability": "view",
      "type": "function"
    },
    {
      "inputs": [],
      "name": "renounceOwnership",
      "outputs": [],
      "stateMutability": "nonpayable",
      "type": "function"
    },
    {
      "inputs": [
        {
          "internalType": "address",
          "name": "from",
          "type": "address"
        },
        {
          "internalType": "address",
          "name": "to",
          "type": "address"
        },
        {
          "internalType": "uint256",
          "name": "tokenId",
          "type": "uint256"
        }
      ],
      "name": "safeTransferFrom",
      "outputs": [],
      "stateMutability": "nonpayable",
      "type": "function"
    },
    {
      "inputs": [
        {
          "internalType": "address",
          "name": "from",
          "type": "address"
        },
        {
          "internalType": "address",
          "name": "to",
          "type": "address"
        },
        {
          "internalType": "uint256",
          "name": "tokenId",
          "type": "uint256"
        },
        {
          "internalType": "bytes",
          "name": "_data",
          "type": "bytes"
        }
      ],
      "name": "safeTransferFrom",
      "outputs": [],
      "stateMutability": "nonpayable",
      "type": "function"
    },
    {
      "inputs": [],
      "name": "sellingStage",
      "outputs": [
        {
          "internalType": "enum IrlNFTCollection.Stages",
          "name": "",
          "type": "uint8"
        }
      ],
      "stateMutability": "view",
      "type": "function"
    },
    {
      "inputs": [
        {
          "internalType": "address",
          "name": "operator",
          "type": "address"
        },
        {
          "internalType": "bool",
          "name": "approved",
          "type": "bool"
        }
      ],
      "name": "setApprovalForAll",
      "outputs": [],
      "stateMutability": "nonpayable",
      "type": "function"
    },
    {
      "inputs": [
        {
          "internalType": "bytes4",
          "name": "interfaceId",
          "type": "bytes4"
        }
      ],
      "name": "supportsInterface",
      "outputs": [
        {
          "internalType": "bool",
          "name": "",
          "type": "bool"
        }
      ],
      "stateMutability": "view",
      "type": "function"
    },
    {
      "inputs": [],
      "name": "symbol",
      "outputs": [
        {
          "internalType": "string",
          "name": "",
          "type": "string"
        }
      ],
      "stateMutability": "view",
      "type": "function"
    },
    {
      "inputs": [
        {
          "internalType": "uint256",
          "name": "index",
          "type": "uint256"
        }
      ],
      "name": "tokenByIndex",
      "outputs": [
        {
          "internalType": "uint256",
          "name": "",
          "type": "uint256"
        }
      ],
      "stateMutability": "view",
      "type": "function"
    },
    {
      "inputs": [
        {
          "internalType": "address",
          "name": "owner",
          "type": "address"
        },
        {
          "internalType": "uint256",
          "name": "index",
          "type": "uint256"
        }
      ],
      "name": "tokenOfOwnerByIndex",
      "outputs": [
        {
          "internalType": "uint256",
          "name": "",
          "type": "uint256"
        }
      ],
      "stateMutability": "view",
      "type": "function"
    },
    {
      "inputs": [],
      "name": "totalSupply",
      "outputs": [
        {
          "internalType": "uint256",
          "name": "",
          "type": "uint256"
        }
      ],
      "stateMutability": "view",
      "type": "function"
    },
    {
      "inputs": [
        {
          "internalType": "address",
          "name": "from",
          "type": "address"
        },
        {
          "internalType": "address",
          "name": "to",
          "type": "address"
        },
        {
          "internalType": "uint256",
          "name": "tokenId",
          "type": "uint256"
        }
      ],
      "name": "transferFrom",
      "outputs": [],
      "stateMutability": "nonpayable",
      "type": "function"
    },
    {
      "inputs": [
        {
          "internalType": "address",
          "name": "newOwner",
          "type": "address"
        }
      ],
      "name": "transferOwnership",
      "outputs": [],
      "stateMutability": "nonpayable",
      "type": "function"
    },
    {
      "inputs": [
        {
          "internalType": "uint256",
          "name": "_amount",
          "type": "uint256"
        }
      ],
      "name": "setMaxSupply",
      "outputs": [],
      "stateMutability": "nonpayable",
      "type": "function"
    },
    {
      "inputs": [
        {
          "internalType": "string",
          "name": "__baseURI",
          "type": "string"
        }
      ],
      "name": "setBaseURI",
      "outputs": [],
      "stateMutability": "nonpayable",
      "type": "function"
    },
    {
      "inputs": [
        {
          "internalType": "string",
          "name": "_baseExtension",
          "type": "string"
        }
      ],
      "name": "setBaseExtension",
      "outputs": [],
      "stateMutability": "nonpayable",
      "type": "function"
    },
    {
      "inputs": [],
      "name": "setUpPresale",
      "outputs": [],
      "stateMutability": "nonpayable",
      "type": "function"
    },
    {
      "inputs": [],
      "name": "setUpSale",
      "outputs": [],
      "stateMutability": "nonpayable",
      "type": "function"
    },
    {
      "inputs": [],
      "name": "MintArt",
      "outputs": [
        {
          "internalType": "uint256",
          "name": "",
          "type": "uint256"
        }
      ],
      "stateMutability": "payable",
      "type": "function"
    },
    {
      "inputs": [
        {
          "internalType": "uint256",
          "name": "_nftId",
          "type": "uint256"
        }
      ],
      "name": "tokenURI",
      "outputs": [
        {
          "internalType": "string",
          "name": "",
          "type": "string"
        }
      ],
      "stateMutability": "view",
      "type": "function"
    },
    {
      "inputs": [
        {
          "internalType": "uint256",
          "name": "number",
          "type": "uint256"
        }
      ],
      "name": "random",
      "outputs": [
        {
          "internalType": "uint256",
          "name": "",
          "type": "uint256"
        }
      ],
      "stateMutability": "view",
      "type": "function"
    }
  ],
  "bytecode": "0x60806040526040518060400160405280600581526020017f2e6a736f6e000000000000000000000000000000000000000000000000000000815250600f908051906020019062000051929190620001e7565b503480156200005f57600080fd5b506040516200496c3803806200496c833981810160405281019062000085919062000434565b818181600090805190602001906200009f929190620001e7565b508060019080519060200190620000b8929190620001e7565b505050620000db620000cf6200011960201b60201c565b6200012160201b60201c565b6001600b819055506000601160006101000a81548160ff021916908360048111156200010c576200010b620004b9565b5b021790555050506200054c565b600033905090565b6000600a60009054906101000a900473ffffffffffffffffffffffffffffffffffffffff16905081600a60006101000a81548173ffffffffffffffffffffffffffffffffffffffff021916908373ffffffffffffffffffffffffffffffffffffffff1602179055508173ffffffffffffffffffffffffffffffffffffffff168173ffffffffffffffffffffffffffffffffffffffff167f8be0079c531659141344cd1fd0a4f28419497f9722a3daafe3b4186f6b6457e060405160405180910390a35050565b828054620001f59062000517565b90600052602060002090601f01602090048101928262000219576000855562000265565b82601f106200023457805160ff191683800117855562000265565b8280016001018555821562000265579182015b828111156200026457825182559160200191906001019062000247565b5b50905062000274919062000278565b5090565b5b808211156200029357600081600090555060010162000279565b5090565b6000604051905090565b600080fd5b600080fd5b600080fd5b600080fd5b6000601f19601f8301169050919050565b7f4e487b7100000000000000000000000000000000000000000000000000000000600052604160045260246000fd5b6200030082620002b5565b810181811067ffffffffffffffff82111715620003225762000321620002c6565b5b80604052505050565b60006200033762000297565b9050620003458282620002f5565b919050565b600067ffffffffffffffff821115620003685762000367620002c6565b5b6200037382620002b5565b9050602081019050919050565b60005b83811015620003a057808201518184015260208101905062000383565b83811115620003b0576000848401525b50505050565b6000620003cd620003c7846200034a565b6200032b565b905082815260208101848484011115620003ec57620003eb620002b0565b5b620003f984828562000380565b509392505050565b600082601f830112620004195762000418620002ab565b5b81516200042b848260208601620003b6565b91505092915050565b600080604083850312156200044e576200044d620002a1565b5b600083015167ffffffffffffffff8111156200046f576200046e620002a6565b5b6200047d8582860162000401565b925050602083015167ffffffffffffffff811115620004a157620004a0620002a6565b5b620004af8582860162000401565b9150509250929050565b7f4e487b7100000000000000000000000000000000000000000000000000000000600052602160045260246000fd5b7f4e487b7100000000000000000000000000000000000000000000000000000000600052602260045260246000fd5b600060028204905060018216806200053057607f821691505b602082108103620005465762000545620004e8565b5b50919050565b614410806200055c6000396000f3fe60806040526004361061013c5760003560e01c806301ffc9a71461014157806306fdde031461017e578063081812fc146101a9578063095ea7b3146101e657806315c316fc1461020f57806318160ddd146102265780631f2898c31461025157806323b872dd146102685780632f745c591461029157806342842e0e146102ce57806345749ca4146102f75780634f6ccce71461031557806355f804b3146103525780636352211e1461037b5780636f8b44b0146103b857806370a08231146103e1578063715018a61461041e5780638da5cb5b1461043557806391efcf701461046057806395d89b411461048b578063a22cb465146104b6578063b863bd37146104df578063b88d4fde1461051c578063c87b56dd14610545578063da3ef23f14610582578063e985e9c5146105ab578063f2fde38b146105e8575b600080fd5b34801561014d57600080fd5b5061016860048036038101906101639190612b1b565b610611565b6040516101759190612b63565b60405180910390f35b34801561018a57600080fd5b5061019361068b565b6040516101a09190612c17565b60405180910390f35b3480156101b557600080fd5b506101d060048036038101906101cb9190612c6f565b61071d565b6040516101dd9190612cdd565b60405180910390f35b3480156101f257600080fd5b5061020d60048036038101906102089190612d24565b6107a2565b005b34801561021b57600080fd5b506102246108b9565b005b34801561023257600080fd5b5061023b6109d8565b6040516102489190612d73565b60405180910390f35b34801561025d57600080fd5b506102666109e5565b005b34801561027457600080fd5b5061028f600480360381019061028a9190612d8e565b610b04565b005b34801561029d57600080fd5b506102b860048036038101906102b39190612d24565b610b64565b6040516102c59190612d73565b60405180910390f35b3480156102da57600080fd5b506102f560048036038101906102f09190612d8e565b610c09565b005b6102ff610c29565b60405161030c9190612d73565b60405180910390f35b34801561032157600080fd5b5061033c60048036038101906103379190612c6f565b610e5a565b6040516103499190612d73565b60405180910390f35b34801561035e57600080fd5b5061037960048036038101906103749190612f16565b610ecb565b005b34801561038757600080fd5b506103a2600480360381019061039d9190612c6f565b610fd7565b6040516103af9190612cdd565b60405180910390f35b3480156103c457600080fd5b506103df60048036038101906103da9190612c6f565b611088565b005b3480156103ed57600080fd5b5061040860048036038101906104039190612f5f565b611184565b6040516104159190612d73565b60405180910390f35b34801561042a57600080fd5b5061043361123b565b005b34801561044157600080fd5b5061044a6112c3565b6040516104579190612cdd565b60405180910390f35b34801561046c57600080fd5b506104756112ed565b6040516104829190613003565b60405180910390f35b34801561049757600080fd5b506104a0611300565b6040516104ad9190612c17565b60405180910390f35b3480156104c257600080fd5b506104dd60048036038101906104d8919061304a565b611392565b005b3480156104eb57600080fd5b5061050660048036038101906105019190612c6f565b6113a8565b6040516105139190612d73565b60405180910390f35b34801561052857600080fd5b50610543600480360381019061053e919061312b565b6113ea565b005b34801561055157600080fd5b5061056c60048036038101906105679190612c6f565b61144c565b6040516105799190612c17565b60405180910390f35b34801561058e57600080fd5b506105a960048036038101906105a49190612f16565b6114f6565b005b3480156105b757600080fd5b506105d260048036038101906105cd91906131ae565b611602565b6040516105df9190612b63565b60405180910390f35b3480156105f457600080fd5b5061060f600480360381019061060a9190612f5f565b611696565b005b60007f780e9d63000000000000000000000000000000000000000000000000000000007bffffffffffffffffffffffffffffffffffffffffffffffffffffffff1916827bffffffffffffffffffffffffffffffffffffffffffffffffffffffff1916148061068457506106838261178d565b5b9050919050565b60606000805461069a9061321d565b80601f01602080910402602001604051908101604052809291908181526020018280546106c69061321d565b80156107135780601f106106e857610100808354040283529160200191610713565b820191906000526020600020905b8154815290600101906020018083116106f657829003601f168201915b5050505050905090565b60006107288261186f565b610767576040517f08c379a000000000000000000000000000000000000000000000000000000000815260040161075e906132c0565b60405180910390fd5b6004600083815260200190815260200160002060009054906101000a900473ffffffffffffffffffffffffffffffffffffffff169050919050565b60006107ad82610fd7565b90508073ffffffffffffffffffffffffffffffffffffffff168373ffffffffffffffffffffffffffffffffffffffff160361081d576040517f08c379a000000000000000000000000000000000000000000000000000000000815260040161081490613352565b60405180910390fd5b8073ffffffffffffffffffffffffffffffffffffffff1661083c6118db565b73ffffffffffffffffffffffffffffffffffffffff16148061086b575061086a816108656118db565b611602565b5b6108aa576040517f08c379a00000000000000000000000000000000000000000000000000000000081526004016108a1906133e4565b60405180910390fd5b6108b483836118e3565b505050565b6108c16118db565b73ffffffffffffffffffffffffffffffffffffffff166108df6112c3565b73ffffffffffffffffffffffffffffffffffffffff1614610935576040517f08c379a000000000000000000000000000000000000000000000000000000000815260040161092c90613450565b60405180910390fd5b6000600481111561094957610948612f8c565b5b601160009054906101000a900460ff16600481111561096b5761096a612f8c565b5b146109ab576040517f08c379a00000000000000000000000000000000000000000000000000000000081526004016109a2906134e2565b60405180910390fd5b6001601160006101000a81548160ff021916908360048111156109d1576109d0612f8c565b5b0217905550565b6000600880549050905090565b6109ed6118db565b73ffffffffffffffffffffffffffffffffffffffff16610a0b6112c3565b73ffffffffffffffffffffffffffffffffffffffff1614610a61576040517f08c379a0000000000000000000000000000000000000000000000000000000008152600401610a5890613450565b60405180910390fd5b60016004811115610a7557610a74612f8c565b5b601160009054906101000a900460ff166004811115610a9757610a96612f8c565b5b14610ad7576040517f08c379a0000000000000000000000000000000000000000000000000000000008152600401610ace90613574565b60405180910390fd5b6002601160006101000a81548160ff02191690836004811115610afd57610afc612f8c565b5b0217905550565b610b15610b0f6118db565b8261199c565b610b54576040517f08c379a0000000000000000000000000000000000000000000000000000000008152600401610b4b90613606565b60405180910390fd5b610b5f838383611a7a565b505050565b6000610b6f83611184565b8210610bb0576040517f08c379a0000000000000000000000000000000000000000000000000000000008152600401610ba790613698565b60405180910390fd5b600660008473ffffffffffffffffffffffffffffffffffffffff1673ffffffffffffffffffffffffffffffffffffffff168152602001908152602001600020600083815260200190815260200160002054905092915050565b610c24838383604051806020016040528060008152506113ea565b505050565b60006002600b5403610c70576040517f08c379a0000000000000000000000000000000000000000000000000000000008152600401610c6790613704565b60405180910390fd5b6002600b8190555060026004811115610c8c57610c8b612f8c565b5b601160009054906101000a900460ff166004811115610cae57610cad612f8c565b5b14610cee576040517f08c379a0000000000000000000000000000000000000000000000000000000008152600401610ce590613770565b60405180910390fd5b600d546001610cfb6109d8565b610d0591906137bf565b10610d45576040517f08c379a0000000000000000000000000000000000000000000000000000000008152600401610d3c90613861565b60405180910390fd5b610d4f600c611ce0565b6000610d5b60646113a8565b90506000610d69600c611cf6565b905060006010600083815260200190815260200160002060000160006101000a81548160ff02191690831515021790555060006010600083815260200190815260200160002060000160016101000a81548160ff0219169083151502179055506003821015610e065760016010600083815260200190815260200160002060000160016101000a81548160ff021916908315150217905550610e40565b600a821015610e3f5760016010600083815260200190815260200160002060000160006101000a81548160ff0219169083151502179055505b5b610e4a3382611d04565b80925050506001600b8190555090565b6000610e646109d8565b8210610ea5576040517f08c379a0000000000000000000000000000000000000000000000000000000008152600401610e9c906138f3565b60405180910390fd5b60088281548110610eb957610eb8613913565b5b90600052602060002001549050919050565b610ed36118db565b73ffffffffffffffffffffffffffffffffffffffff16610ef16112c3565b73ffffffffffffffffffffffffffffffffffffffff1614610f47576040517f08c379a0000000000000000000000000000000000000000000000000000000008152600401610f3e90613450565b60405180910390fd5b60006004811115610f5b57610f5a612f8c565b5b601160009054906101000a900460ff166004811115610f7d57610f7c612f8c565b5b14610fbd576040517f08c379a0000000000000000000000000000000000000000000000000000000008152600401610fb4906139b4565b60405180910390fd5b80600e9080519060200190610fd3929190612a0c565b5050565b6000806002600084815260200190815260200160002060009054906101000a900473ffffffffffffffffffffffffffffffffffffffff169050600073ffffffffffffffffffffffffffffffffffffffff168173ffffffffffffffffffffffffffffffffffffffff160361107f576040517f08c379a000000000000000000000000000000000000000000000000000000000815260040161107690613a46565b60405180910390fd5b80915050919050565b6110906118db565b73ffffffffffffffffffffffffffffffffffffffff166110ae6112c3565b73ffffffffffffffffffffffffffffffffffffffff1614611104576040517f08c379a00000000000000000000000000000000000000000000000000000000081526004016110fb90613450565b60405180910390fd5b6000600481111561111857611117612f8c565b5b601160009054906101000a900460ff16600481111561113a57611139612f8c565b5b1461117a576040517f08c379a000000000000000000000000000000000000000000000000000000000815260040161117190613ad8565b60405180910390fd5b80600d8190555050565b60008073ffffffffffffffffffffffffffffffffffffffff168273ffffffffffffffffffffffffffffffffffffffff16036111f4576040517f08c379a00000000000000000000000000000000000000000000000000000000081526004016111eb90613b6a565b60405180910390fd5b600360008373ffffffffffffffffffffffffffffffffffffffff1673ffffffffffffffffffffffffffffffffffffffff168152602001908152602001600020549050919050565b6112436118db565b73ffffffffffffffffffffffffffffffffffffffff166112616112c3565b73ffffffffffffffffffffffffffffffffffffffff16146112b7576040517f08c379a00000000000000000000000000000000000000000000000000000000081526004016112ae90613450565b60405180910390fd5b6112c16000611d22565b565b6000600a60009054906101000a900473ffffffffffffffffffffffffffffffffffffffff16905090565b601160009054906101000a900460ff1681565b60606001805461130f9061321d565b80601f016020809104026020016040519081016040528092919081815260200182805461133b9061321d565b80156113885780601f1061135d57610100808354040283529160200191611388565b820191906000526020600020905b81548152906001019060200180831161136b57829003601f168201915b5050505050905090565b6113a461139d6118db565b8383611de8565b5050565b6000814244336040516020016113c093929190613bf3565b6040516020818303038152906040528051906020012060001c6113e39190613c5f565b9050919050565b6113fb6113f56118db565b8361199c565b61143a576040517f08c379a000000000000000000000000000000000000000000000000000000000815260040161143190613606565b60405180910390fd5b61144684848484611f54565b50505050565b60606114578261186f565b611496576040517f08c379a000000000000000000000000000000000000000000000000000000000815260040161148d90613cdc565b60405180910390fd5b60006114a0611fb0565b905060008151116114c057604051806020016040528060008152506114ee565b806114ca84612042565b600f6040516020016114de93929190613dcc565b6040516020818303038152906040525b915050919050565b6114fe6118db565b73ffffffffffffffffffffffffffffffffffffffff1661151c6112c3565b73ffffffffffffffffffffffffffffffffffffffff1614611572576040517f08c379a000000000000000000000000000000000000000000000000000000000815260040161156990613450565b60405180910390fd5b6000600481111561158657611585612f8c565b5b601160009054906101000a900460ff1660048111156115a8576115a7612f8c565b5b146115e8576040517f08c379a00000000000000000000000000000000000000000000000000000000081526004016115df906139b4565b60405180910390fd5b80600f90805190602001906115fe929190612a0c565b5050565b6000600560008473ffffffffffffffffffffffffffffffffffffffff1673ffffffffffffffffffffffffffffffffffffffff16815260200190815260200160002060008373ffffffffffffffffffffffffffffffffffffffff1673ffffffffffffffffffffffffffffffffffffffff16815260200190815260200160002060009054906101000a900460ff16905092915050565b61169e6118db565b73ffffffffffffffffffffffffffffffffffffffff166116bc6112c3565b73ffffffffffffffffffffffffffffffffffffffff1614611712576040517f08c379a000000000000000000000000000000000000000000000000000000000815260040161170990613450565b60405180910390fd5b600073ffffffffffffffffffffffffffffffffffffffff168173ffffffffffffffffffffffffffffffffffffffff1603611781576040517f08c379a000000000000000000000000000000000000000000000000000000000815260040161177890613e6f565b60405180910390fd5b61178a81611d22565b50565b60007f80ac58cd000000000000000000000000000000000000000000000000000000007bffffffffffffffffffffffffffffffffffffffffffffffffffffffff1916827bffffffffffffffffffffffffffffffffffffffffffffffffffffffff1916148061185857507f5b5e139f000000000000000000000000000000000000000000000000000000007bffffffffffffffffffffffffffffffffffffffffffffffffffffffff1916827bffffffffffffffffffffffffffffffffffffffffffffffffffffffff1916145b806118685750611867826121a2565b5b9050919050565b60008073ffffffffffffffffffffffffffffffffffffffff166002600084815260200190815260200160002060009054906101000a900473ffffffffffffffffffffffffffffffffffffffff1673ffffffffffffffffffffffffffffffffffffffff1614159050919050565b600033905090565b816004600083815260200190815260200160002060006101000a81548173ffffffffffffffffffffffffffffffffffffffff021916908373ffffffffffffffffffffffffffffffffffffffff160217905550808273ffffffffffffffffffffffffffffffffffffffff1661195683610fd7565b73ffffffffffffffffffffffffffffffffffffffff167f8c5be1e5ebec7d5bd14f71427d1e84f3dd0314c0f7b2291e5b200ac8c7c3b92560405160405180910390a45050565b60006119a78261186f565b6119e6576040517f08c379a00000000000000000000000000000000000000000000000000000000081526004016119dd90613f01565b60405180910390fd5b60006119f183610fd7565b90508073ffffffffffffffffffffffffffffffffffffffff168473ffffffffffffffffffffffffffffffffffffffff161480611a6057508373ffffffffffffffffffffffffffffffffffffffff16611a488461071d565b73ffffffffffffffffffffffffffffffffffffffff16145b80611a715750611a708185611602565b5b91505092915050565b8273ffffffffffffffffffffffffffffffffffffffff16611a9a82610fd7565b73ffffffffffffffffffffffffffffffffffffffff1614611af0576040517f08c379a0000000000000000000000000000000000000000000000000000000008152600401611ae790613f93565b60405180910390fd5b600073ffffffffffffffffffffffffffffffffffffffff168273ffffffffffffffffffffffffffffffffffffffff1603611b5f576040517f08c379a0000000000000000000000000000000000000000000000000000000008152600401611b5690614025565b60405180910390fd5b611b6a83838361220c565b611b756000826118e3565b6001600360008573ffffffffffffffffffffffffffffffffffffffff1673ffffffffffffffffffffffffffffffffffffffff1681526020019081526020016000206000828254611bc59190614045565b925050819055506001600360008473ffffffffffffffffffffffffffffffffffffffff1673ffffffffffffffffffffffffffffffffffffffff1681526020019081526020016000206000828254611c1c91906137bf565b92505081905550816002600083815260200190815260200160002060006101000a81548173ffffffffffffffffffffffffffffffffffffffff021916908373ffffffffffffffffffffffffffffffffffffffff160217905550808273ffffffffffffffffffffffffffffffffffffffff168473ffffffffffffffffffffffffffffffffffffffff167fddf252ad1be2c89b69c2b068fc378daa952ba7f163c4a11628f55a4df523b3ef60405160405180910390a4611cdb83838361231e565b505050565b6001816000016000828254019250508190555050565b600081600001549050919050565b611d1e828260405180602001604052806000815250612323565b5050565b6000600a60009054906101000a900473ffffffffffffffffffffffffffffffffffffffff16905081600a60006101000a81548173ffffffffffffffffffffffffffffffffffffffff021916908373ffffffffffffffffffffffffffffffffffffffff1602179055508173ffffffffffffffffffffffffffffffffffffffff168173ffffffffffffffffffffffffffffffffffffffff167f8be0079c531659141344cd1fd0a4f28419497f9722a3daafe3b4186f6b6457e060405160405180910390a35050565b8173ffffffffffffffffffffffffffffffffffffffff168373ffffffffffffffffffffffffffffffffffffffff1603611e56576040517f08c379a0000000000000000000000000000000000000000000000000000000008152600401611e4d906140c5565b60405180910390fd5b80600560008573ffffffffffffffffffffffffffffffffffffffff1673ffffffffffffffffffffffffffffffffffffffff16815260200190815260200160002060008473ffffffffffffffffffffffffffffffffffffffff1673ffffffffffffffffffffffffffffffffffffffff16815260200190815260200160002060006101000a81548160ff0219169083151502179055508173ffffffffffffffffffffffffffffffffffffffff168373ffffffffffffffffffffffffffffffffffffffff167f17307eab39ab6107e8899845ad3d59bd9653f200f220920489ca2b5937696c3183604051611f479190612b63565b60405180910390a3505050565b611f5f848484611a7a565b611f6b8484848461237e565b611faa576040517f08c379a0000000000000000000000000000000000000000000000000000000008152600401611fa190614157565b60405180910390fd5b50505050565b6060600e8054611fbf9061321d565b80601f0160208091040260200160405190810160405280929190818152602001828054611feb9061321d565b80156120385780601f1061200d57610100808354040283529160200191612038565b820191906000526020600020905b81548152906001019060200180831161201b57829003601f168201915b5050505050905090565b606060008203612089576040518060400160405280600181526020017f3000000000000000000000000000000000000000000000000000000000000000815250905061219d565b600082905060005b600082146120bb5780806120a490614177565b915050600a826120b491906141bf565b9150612091565b60008167ffffffffffffffff8111156120d7576120d6612deb565b5b6040519080825280601f01601f1916602001820160405280156121095781602001600182028036833780820191505090505b5090505b60008514612196576001826121229190614045565b9150600a856121319190613c5f565b603061213d91906137bf565b60f81b81838151811061215357612152613913565b5b60200101907effffffffffffffffffffffffffffffffffffffffffffffffffffffffffffff1916908160001a905350600a8561218f91906141bf565b945061210d565b8093505050505b919050565b60007f01ffc9a7000000000000000000000000000000000000000000000000000000007bffffffffffffffffffffffffffffffffffffffffffffffffffffffff1916827bffffffffffffffffffffffffffffffffffffffffffffffffffffffff1916149050919050565b612217838383612505565b600073ffffffffffffffffffffffffffffffffffffffff168373ffffffffffffffffffffffffffffffffffffffff1603612259576122548161250a565b612298565b8173ffffffffffffffffffffffffffffffffffffffff168373ffffffffffffffffffffffffffffffffffffffff1614612297576122968382612553565b5b5b600073ffffffffffffffffffffffffffffffffffffffff168273ffffffffffffffffffffffffffffffffffffffff16036122da576122d5816126c0565b612319565b8273ffffffffffffffffffffffffffffffffffffffff168273ffffffffffffffffffffffffffffffffffffffff1614612318576123178282612791565b5b5b505050565b505050565b61232d8383612810565b61233a600084848461237e565b612379576040517f08c379a000000000000000000000000000000000000000000000000000000000815260040161237090614157565b60405180910390fd5b505050565b600061239f8473ffffffffffffffffffffffffffffffffffffffff166129e9565b156124f8578373ffffffffffffffffffffffffffffffffffffffff1663150b7a026123c86118db565b8786866040518563ffffffff1660e01b81526004016123ea9493929190614245565b6020604051808303816000875af192505050801561242657506040513d601f19601f8201168201806040525081019061242391906142a6565b60015b6124a8573d8060008114612456576040519150601f19603f3d011682016040523d82523d6000602084013e61245b565b606091505b5060008151036124a0576040517f08c379a000000000000000000000000000000000000000000000000000000000815260040161249790614157565b60405180910390fd5b805181602001fd5b63150b7a0260e01b7bffffffffffffffffffffffffffffffffffffffffffffffffffffffff1916817bffffffffffffffffffffffffffffffffffffffffffffffffffffffff1916149150506124fd565b600190505b949350505050565b505050565b6008805490506009600083815260200190815260200160002081905550600881908060018154018082558091505060019003906000526020600020016000909190919091505550565b6000600161256084611184565b61256a9190614045565b905060006007600084815260200190815260200160002054905081811461264f576000600660008673ffffffffffffffffffffffffffffffffffffffff1673ffffffffffffffffffffffffffffffffffffffff168152602001908152602001600020600084815260200190815260200160002054905080600660008773ffffffffffffffffffffffffffffffffffffffff1673ffffffffffffffffffffffffffffffffffffffff168152602001908152602001600020600084815260200190815260200160002081905550816007600083815260200190815260200160002081905550505b6007600084815260200190815260200160002060009055600660008573ffffffffffffffffffffffffffffffffffffffff1673ffffffffffffffffffffffffffffffffffffffff16815260200190815260200160002060008381526020019081526020016000206000905550505050565b600060016008805490506126d49190614045565b905060006009600084815260200190815260200160002054905060006008838154811061270457612703613913565b5b90600052602060002001549050806008838154811061272657612725613913565b5b906000526020600020018190555081600960008381526020019081526020016000208190555060096000858152602001908152602001600020600090556008805480612775576127746142d3565b5b6001900381819060005260206000200160009055905550505050565b600061279c83611184565b905081600660008573ffffffffffffffffffffffffffffffffffffffff1673ffffffffffffffffffffffffffffffffffffffff168152602001908152602001600020600083815260200190815260200160002081905550806007600084815260200190815260200160002081905550505050565b600073ffffffffffffffffffffffffffffffffffffffff168273ffffffffffffffffffffffffffffffffffffffff160361287f576040517f08c379a00000000000000000000000000000000000000000000000000000000081526004016128769061434e565b60405180910390fd5b6128888161186f565b156128c8576040517f08c379a00000000000000000000000000000000000000000000000000000000081526004016128bf906143ba565b60405180910390fd5b6128d46000838361220c565b6001600360008473ffffffffffffffffffffffffffffffffffffffff1673ffffffffffffffffffffffffffffffffffffffff168152602001908152602001600020600082825461292491906137bf565b92505081905550816002600083815260200190815260200160002060006101000a81548173ffffffffffffffffffffffffffffffffffffffff021916908373ffffffffffffffffffffffffffffffffffffffff160217905550808273ffffffffffffffffffffffffffffffffffffffff16600073ffffffffffffffffffffffffffffffffffffffff167fddf252ad1be2c89b69c2b068fc378daa952ba7f163c4a11628f55a4df523b3ef60405160405180910390a46129e56000838361231e565b5050565b6000808273ffffffffffffffffffffffffffffffffffffffff163b119050919050565b828054612a189061321d565b90600052602060002090601f016020900481019282612a3a5760008555612a81565b82601f10612a5357805160ff1916838001178555612a81565b82800160010185558215612a81579182015b82811115612a80578251825591602001919060010190612a65565b5b509050612a8e9190612a92565b5090565b5b80821115612aab576000816000905550600101612a93565b5090565b6000604051905090565b600080fd5b600080fd5b60007fffffffff0000000000000000000000000000000000000000000000000000000082169050919050565b612af881612ac3565b8114612b0357600080fd5b50565b600081359050612b1581612aef565b92915050565b600060208284031215612b3157612b30612ab9565b5b6000612b3f84828501612b06565b91505092915050565b60008115159050919050565b612b5d81612b48565b82525050565b6000602082019050612b786000830184612b54565b92915050565b600081519050919050565b600082825260208201905092915050565b60005b83811015612bb8578082015181840152602081019050612b9d565b83811115612bc7576000848401525b50505050565b6000601f19601f8301169050919050565b6000612be982612b7e565b612bf38185612b89565b9350612c03818560208601612b9a565b612c0c81612bcd565b840191505092915050565b60006020820190508181036000830152612c318184612bde565b905092915050565b6000819050919050565b612c4c81612c39565b8114612c5757600080fd5b50565b600081359050612c6981612c43565b92915050565b600060208284031215612c8557612c84612ab9565b5b6000612c9384828501612c5a565b91505092915050565b600073ffffffffffffffffffffffffffffffffffffffff82169050919050565b6000612cc782612c9c565b9050919050565b612cd781612cbc565b82525050565b6000602082019050612cf26000830184612cce565b92915050565b612d0181612cbc565b8114612d0c57600080fd5b50565b600081359050612d1e81612cf8565b92915050565b60008060408385031215612d3b57612d3a612ab9565b5b6000612d4985828601612d0f565b9250506020612d5a85828601612c5a565b9150509250929050565b612d6d81612c39565b82525050565b6000602082019050612d886000830184612d64565b92915050565b600080600060608486031215612da757612da6612ab9565b5b6000612db586828701612d0f565b9350506020612dc686828701612d0f565b9250506040612dd786828701612c5a565b9150509250925092565b600080fd5b600080fd5b7f4e487b7100000000000000000000000000000000000000000000000000000000600052604160045260246000fd5b612e2382612bcd565b810181811067ffffffffffffffff82111715612e4257612e41612deb565b5b80604052505050565b6000612e55612aaf565b9050612e618282612e1a565b919050565b600067ffffffffffffffff821115612e8157612e80612deb565b5b612e8a82612bcd565b9050602081019050919050565b82818337600083830152505050565b6000612eb9612eb484612e66565b612e4b565b905082815260208101848484011115612ed557612ed4612de6565b5b612ee0848285612e97565b509392505050565b600082601f830112612efd57612efc612de1565b5b8135612f0d848260208601612ea6565b91505092915050565b600060208284031215612f2c57612f2b612ab9565b5b600082013567ffffffffffffffff811115612f4a57612f49612abe565b5b612f5684828501612ee8565b91505092915050565b600060208284031215612f7557612f74612ab9565b5b6000612f8384828501612d0f565b91505092915050565b7f4e487b7100000000000000000000000000000000000000000000000000000000600052602160045260246000fd5b60058110612fcc57612fcb612f8c565b5b50565b6000819050612fdd82612fbb565b919050565b6000612fed82612fcf565b9050919050565b612ffd81612fe2565b82525050565b60006020820190506130186000830184612ff4565b92915050565b61302781612b48565b811461303257600080fd5b50565b6000813590506130448161301e565b92915050565b6000806040838503121561306157613060612ab9565b5b600061306f85828601612d0f565b925050602061308085828601613035565b9150509250929050565b600067ffffffffffffffff8211156130a5576130a4612deb565b5b6130ae82612bcd565b9050602081019050919050565b60006130ce6130c98461308a565b612e4b565b9050828152602081018484840111156130ea576130e9612de6565b5b6130f5848285612e97565b509392505050565b600082601f83011261311257613111612de1565b5b81356131228482602086016130bb565b91505092915050565b6000806000806080858703121561314557613144612ab9565b5b600061315387828801612d0f565b945050602061316487828801612d0f565b935050604061317587828801612c5a565b925050606085013567ffffffffffffffff81111561319657613195612abe565b5b6131a2878288016130fd565b91505092959194509250565b600080604083850312156131c5576131c4612ab9565b5b60006131d385828601612d0f565b92505060206131e485828601612d0f565b9150509250929050565b7f4e487b7100000000000000000000000000000000000000000000000000000000600052602260045260246000fd5b6000600282049050600182168061323557607f821691505b602082108103613248576132476131ee565b5b50919050565b7f4552433732313a20617070726f76656420717565727920666f72206e6f6e657860008201527f697374656e7420746f6b656e0000000000000000000000000000000000000000602082015250565b60006132aa602c83612b89565b91506132b58261324e565b604082019050919050565b600060208201905081810360008301526132d98161329d565b9050919050565b7f4552433732313a20617070726f76616c20746f2063757272656e74206f776e6560008201527f7200000000000000000000000000000000000000000000000000000000000000602082015250565b600061333c602183612b89565b9150613347826132e0565b604082019050919050565b6000602082019050818103600083015261336b8161332f565b9050919050565b7f4552433732313a20617070726f76652063616c6c6572206973206e6f74206f7760008201527f6e6572206e6f7220617070726f76656420666f7220616c6c0000000000000000602082015250565b60006133ce603883612b89565b91506133d982613372565b604082019050919050565b600060208201905081810360008301526133fd816133c1565b9050919050565b7f4f776e61626c653a2063616c6c6572206973206e6f7420746865206f776e6572600082015250565b600061343a602083612b89565b915061344582613404565b602082019050919050565b600060208201905081810360008301526134698161342d565b9050919050565b7f53686f756c6420626520696e20436f6e66696720737461676520746f20676f2060008201527f746f2050726573616c652e000000000000000000000000000000000000000000602082015250565b60006134cc602b83612b89565b91506134d782613470565b604082019050919050565b600060208201905081810360008301526134fb816134bf565b9050919050565b7f53686f756c6420626520696e2050726573616c6520737461676520746f20676f60008201527f20746f2053616c652e0000000000000000000000000000000000000000000000602082015250565b600061355e602983612b89565b915061356982613502565b604082019050919050565b6000602082019050818103600083015261358d81613551565b9050919050565b7f4552433732313a207472616e736665722063616c6c6572206973206e6f74206f60008201527f776e6572206e6f7220617070726f766564000000000000000000000000000000602082015250565b60006135f0603183612b89565b91506135fb82613594565b604082019050919050565b6000602082019050818103600083015261361f816135e3565b9050919050565b7f455243373231456e756d657261626c653a206f776e657220696e646578206f7560008201527f74206f6620626f756e6473000000000000000000000000000000000000000000602082015250565b6000613682602b83612b89565b915061368d82613626565b604082019050919050565b600060208201905081810360008301526136b181613675565b9050919050565b7f5265656e7472616e637947756172643a207265656e7472616e742063616c6c00600082015250565b60006136ee601f83612b89565b91506136f9826136b8565b602082019050919050565b6000602082019050818103600083015261371d816136e1565b9050919050565b7f53616c6520686173206e6f742073746172746564207965742e00000000000000600082015250565b600061375a601983612b89565b915061376582613724565b602082019050919050565b600060208201905081810360008301526137898161374d565b9050919050565b7f4e487b7100000000000000000000000000000000000000000000000000000000600052601160045260246000fd5b60006137ca82612c39565b91506137d583612c39565b9250827fffffffffffffffffffffffffffffffffffffffffffffffffffffffffffffffff0382111561380a57613809613790565b5b828201905092915050565b7f416c6c204e46542061726520736f6c6400000000000000000000000000000000600082015250565b600061384b601083612b89565b915061385682613815565b602082019050919050565b6000602082019050818103600083015261387a8161383e565b9050919050565b7f455243373231456e756d657261626c653a20676c6f62616c20696e646578206f60008201527f7574206f6620626f756e64730000000000000000000000000000000000000000602082015250565b60006138dd602c83612b89565b91506138e882613881565b604082019050919050565b6000602082019050818103600083015261390c816138d0565b9050919050565b7f4e487b7100000000000000000000000000000000000000000000000000000000600052603260045260246000fd5b7f53686f756c6420626520696e20436f6e66696720737461676520746f2063686160008201527f6e6765207468652062617365205552492e000000000000000000000000000000602082015250565b600061399e603183612b89565b91506139a982613942565b604082019050919050565b600060208201905081810360008301526139cd81613991565b9050919050565b7f4552433732313a206f776e657220717565727920666f72206e6f6e657869737460008201527f656e7420746f6b656e0000000000000000000000000000000000000000000000602082015250565b6000613a30602983612b89565b9150613a3b826139d4565b604082019050919050565b60006020820190508181036000830152613a5f81613a23565b9050919050565b7f53686f756c6420626520696e20436f6e66696720737461676520746f2063686160008201527f6e676520746865206d617820737570706c792e00000000000000000000000000602082015250565b6000613ac2603383612b89565b9150613acd82613a66565b604082019050919050565b60006020820190508181036000830152613af181613ab5565b9050919050565b7f4552433732313a2062616c616e636520717565727920666f7220746865207a6560008201527f726f206164647265737300000000000000000000000000000000000000000000602082015250565b6000613b54602a83612b89565b9150613b5f82613af8565b604082019050919050565b60006020820190508181036000830152613b8381613b47565b9050919050565b6000819050919050565b613ba5613ba082612c39565b613b8a565b82525050565b60008160601b9050919050565b6000613bc382613bab565b9050919050565b6000613bd582613bb8565b9050919050565b613bed613be882612cbc565b613bca565b82525050565b6000613bff8286613b94565b602082019150613c0f8285613b94565b602082019150613c1f8284613bdc565b601482019150819050949350505050565b7f4e487b7100000000000000000000000000000000000000000000000000000000600052601260045260246000fd5b6000613c6a82612c39565b9150613c7583612c39565b925082613c8557613c84613c30565b5b828206905092915050565b7f54686973204e465420646f65736e27742065786973742e000000000000000000600082015250565b6000613cc6601783612b89565b9150613cd182613c90565b602082019050919050565b60006020820190508181036000830152613cf581613cb9565b9050919050565b600081905092915050565b6000613d1282612b7e565b613d1c8185613cfc565b9350613d2c818560208601612b9a565b80840191505092915050565b60008190508160005260206000209050919050565b60008154613d5a8161321d565b613d648186613cfc565b94506001821660008114613d7f5760018114613d9057613dc3565b60ff19831686528186019350613dc3565b613d9985613d38565b60005b83811015613dbb57815481890152600182019150602081019050613d9c565b838801955050505b50505092915050565b6000613dd88286613d07565b9150613de48285613d07565b9150613df08284613d4d565b9150819050949350505050565b7f4f776e61626c653a206e6577206f776e657220697320746865207a65726f206160008201527f6464726573730000000000000000000000000000000000000000000000000000602082015250565b6000613e59602683612b89565b9150613e6482613dfd565b604082019050919050565b60006020820190508181036000830152613e8881613e4c565b9050919050565b7f4552433732313a206f70657261746f7220717565727920666f72206e6f6e657860008201527f697374656e7420746f6b656e0000000000000000000000000000000000000000602082015250565b6000613eeb602c83612b89565b9150613ef682613e8f565b604082019050919050565b60006020820190508181036000830152613f1a81613ede565b9050919050565b7f4552433732313a207472616e736665722066726f6d20696e636f72726563742060008201527f6f776e6572000000000000000000000000000000000000000000000000000000602082015250565b6000613f7d602583612b89565b9150613f8882613f21565b604082019050919050565b60006020820190508181036000830152613fac81613f70565b9050919050565b7f4552433732313a207472616e7366657220746f20746865207a65726f2061646460008201527f7265737300000000000000000000000000000000000000000000000000000000602082015250565b600061400f602483612b89565b915061401a82613fb3565b604082019050919050565b6000602082019050818103600083015261403e81614002565b9050919050565b600061405082612c39565b915061405b83612c39565b92508282101561406e5761406d613790565b5b828203905092915050565b7f4552433732313a20617070726f766520746f2063616c6c657200000000000000600082015250565b60006140af601983612b89565b91506140ba82614079565b602082019050919050565b600060208201905081810360008301526140de816140a2565b9050919050565b7f4552433732313a207472616e7366657220746f206e6f6e20455243373231526560008201527f63656976657220696d706c656d656e7465720000000000000000000000000000602082015250565b6000614141603283612b89565b915061414c826140e5565b604082019050919050565b6000602082019050818103600083015261417081614134565b9050919050565b600061418282612c39565b91507fffffffffffffffffffffffffffffffffffffffffffffffffffffffffffffffff82036141b4576141b3613790565b5b600182019050919050565b60006141ca82612c39565b91506141d583612c39565b9250826141e5576141e4613c30565b5b828204905092915050565b600081519050919050565b600082825260208201905092915050565b6000614217826141f0565b61422181856141fb565b9350614231818560208601612b9a565b61423a81612bcd565b840191505092915050565b600060808201905061425a6000830187612cce565b6142676020830186612cce565b6142746040830185612d64565b8181036060830152614286818461420c565b905095945050505050565b6000815190506142a081612aef565b92915050565b6000602082840312156142bc576142bb612ab9565b5b60006142ca84828501614291565b91505092915050565b7f4e487b7100000000000000000000000000000000000000000000000000000000600052603160045260246000fd5b7f4552433732313a206d696e7420746f20746865207a65726f2061646472657373600082015250565b6000614338602083612b89565b915061434382614302565b602082019050919050565b600060208201905081810360008301526143678161432b565b9050919050565b7f4552433732313a20746f6b656e20616c7265616479206d696e74656400000000600082015250565b60006143a4601c83612b89565b91506143af8261436e565b602082019050919050565b600060208201905081810360008301526143d381614397565b905091905056fea26469706673582212206d5ce140318d7ffe4ca8a14b97f460dd92f215db16931b0d4b8fbe3bd555ca0b64736f6c634300080d0033",
  "immutableReferences": {},
  "source": "// SPDX-License-Identifier: MIT\r\npragma solidity 0.8.13;\r\n\r\nimport \"@openzeppelin/contracts/token/ERC721/ERC721.sol\";\r\nimport \"@openzeppelin/contracts/token/ERC721/extensions/ERC721Enumerable.sol\";\r\nimport \"@openzeppelin/contracts/utils/Counters.sol\";\r\nimport \"@openzeppelin/contracts/access/Ownable.sol\";\r\nimport \"@openzeppelin/contracts/security/ReentrancyGuard.sol\";\r\n\r\n/** \r\n  * @title In Real Life NFT collection\r\n  * @author Geoffrey B. / Christophe B.\r\n  * @notice NFT collection of an artist which may generate some action in real life\r\n  * @dev    If the contract is already deployed for an _artistName, it will revert.\r\n  */\r\ncontract IrlNFTCollection is ERC721Enumerable, Ownable, ReentrancyGuard {\r\n    using Strings for uint256;\r\n    using Counters for Counters.Counter;\r\n    Counters.Counter private _tokenIds;\r\n\r\n    // Max number of NFT to be minted\r\n    uint private maxSupply;\r\n\r\n    // URI of the NFTs when revealed\r\n    string private baseURI;\r\n    //The extension of the file containing the Metadatas of the NFTs\r\n    string private baseExtension = \".json\";\r\n\r\n    struct Arts{\r\n        bool sendIrl;\r\n        bool streetArt;\r\n    }\r\n    mapping(uint => Arts) private arts;\r\n\r\n    // The different stages of selling the collection\r\n    enum Stages {\r\n        Config,\r\n        Presale,\r\n        Sale,\r\n        SoldOut,\r\n        Reveal\r\n    }\r\n    Stages public sellingStage;\r\n\r\n    /**\r\n      * @notice Constructor parameters of ERC721. Params will be set by Collection Manager\r\n      */\r\n    constructor(string memory name_, string memory symbol_) ERC721 (name_, symbol_) {\r\n        sellingStage = Stages.Config;\r\n    }\r\n\r\n    /** \r\n    * @notice Allows to change the max supply during the config stage\r\n    **/\r\n    function setMaxSupply(uint _amount) external onlyOwner {\r\n        require(sellingStage == Stages.Config, \"Should be in Config stage to change the max supply.\");\r\n        maxSupply = _amount;\r\n    }\r\n\r\n    /** \r\n    * @notice Allows to change the max supply during the config stage\r\n    **/\r\n    function setBaseURI(string memory __baseURI) external onlyOwner {\r\n        require(sellingStage == Stages.Config, \"Should be in Config stage to change the base URI.\");\r\n        baseURI = __baseURI;\r\n    }\r\n\r\n    /** \r\n    * @notice Allows to change the max supply during the config stage\r\n    **/\r\n    function setBaseExtension(string memory _baseExtension) external onlyOwner {\r\n        require(sellingStage == Stages.Config, \"Should be in Config stage to change the base URI.\");\r\n        baseExtension = _baseExtension;\r\n    }\r\n\r\n    /**\r\n    * @notice Return URI of the NFTs when revealed\r\n    *\r\n    * @return The URI of the NFTs when revealed\r\n    **/\r\n    function _baseURI() internal view virtual override returns (string memory) {\r\n        return baseURI;\r\n    }\r\n\r\n    /** \r\n    * @notice Allows to change the sellinStep to Presale\r\n    **/\r\n    function setUpPresale() external onlyOwner {\r\n        require(sellingStage == Stages.Config, \"Should be in Config stage to go to Presale.\");\r\n        sellingStage = Stages.Presale;\r\n    }\r\n\r\n    /** \r\n    * @notice Allows to change the sellinStep to Sale\r\n    **/\r\n    function setUpSale() external onlyOwner {\r\n        require(sellingStage == Stages.Presale, \"Should be in Presale stage to go to Sale.\");\r\n        sellingStage = Stages.Sale;\r\n    }\r\n\r\n    /**\r\n    * @notice Allows to mint NFTs\r\n    *\r\n    * @return newItemId The Id of the minted NFT\r\n    **/\r\n    function MintArt() external payable nonReentrant returns (uint256)\r\n    {\r\n        require(sellingStage == Stages.Sale, \"Sale has not started yet.\");\r\n        require(totalSupply() + 1 < maxSupply, \"All NFT are sold\");\r\n        _tokenIds.increment();\r\n        uint randomNumber = random(100);\r\n        uint256 newItemId = _tokenIds.current();\r\n        arts[newItemId].sendIrl = false;\r\n        arts[newItemId].streetArt = false;\r\n        if (randomNumber < 3)\r\n            arts[newItemId].streetArt = true;\r\n        else if (randomNumber < 10)\r\n            arts[newItemId].sendIrl = true;\r\n        _safeMint(msg.sender, newItemId);\r\n\r\n        return newItemId;\r\n    }\r\n\r\n    /**\r\n    * @notice Allows to get the complete URI of a specific NFT by his ID\r\n    *\r\n    * @param _nftId The id of the NFT\r\n    *\r\n    * @return The token URI of the NFT which has _nftId Id\r\n    **/\r\n    function tokenURI(uint _nftId) public view override(ERC721) returns (string memory) {\r\n        require(_exists(_nftId), \"This NFT doesn't exist.\");\r\n        \r\n        string memory currentBaseURI = _baseURI();\r\n        return \r\n            bytes(currentBaseURI).length > 0 \r\n            ? string(abi.encodePacked(currentBaseURI, _nftId.toString(), baseExtension))\r\n            : \"\";\r\n    }\r\n\r\n    /**\r\n    * @notice Calculate a Random number is a specified range\r\n    *\r\n    * @dev Should be temporary as better random calculation exists (Chainlink VRF) \r\n    *\r\n    * @param number The max number\r\n    *\r\n    * @return uint representing the random value\r\n    **/    \r\n    function random(uint number) public view returns(uint){\r\n        return uint(keccak256(abi.encodePacked(block.timestamp,block.difficulty,  \r\n        msg.sender))) % number;\r\n    }\r\n}",
  "sourcePath": "C:\\Users\\chris\\git\\myduss\\contracts\\IrlNFTCollection.sol",
  "compiler": {
    "name": "solc",
    "version": "0.8.13+commit.abaa5c0e.Emscripten.clang"
  },
  "schemaVersion": "3.4.4",
  "updatedAt": "2022-04-29T21:09:02.175Z",
  "devdoc": {
    "author": "Geoffrey B. / Christophe B.",
    "details": "If the contract is already deployed for an _artistName, it will revert.",
    "kind": "dev",
    "methods": {
      "MintArt()": {
        "returns": {
          "_0": "newItemId The Id of the minted NFT*"
        }
      },
      "approve(address,uint256)": {
        "details": "See {IERC721-approve}."
      },
      "balanceOf(address)": {
        "details": "See {IERC721-balanceOf}."
      },
      "getApproved(uint256)": {
        "details": "See {IERC721-getApproved}."
      },
      "isApprovedForAll(address,address)": {
        "details": "See {IERC721-isApprovedForAll}."
      },
      "name()": {
        "details": "See {IERC721Metadata-name}."
      },
      "owner()": {
        "details": "Returns the address of the current owner."
      },
      "ownerOf(uint256)": {
        "details": "See {IERC721-ownerOf}."
      },
      "random(uint256)": {
        "details": "Should be temporary as better random calculation exists (Chainlink VRF) ",
        "params": {
          "number": "The max number"
        },
        "returns": {
          "_0": "uint representing the random value*"
        }
      },
      "renounceOwnership()": {
        "details": "Leaves the contract without owner. It will not be possible to call `onlyOwner` functions anymore. Can only be called by the current owner. NOTE: Renouncing ownership will leave the contract without an owner, thereby removing any functionality that is only available to the owner."
      },
      "safeTransferFrom(address,address,uint256)": {
        "details": "See {IERC721-safeTransferFrom}."
      },
      "safeTransferFrom(address,address,uint256,bytes)": {
        "details": "See {IERC721-safeTransferFrom}."
      },
      "setApprovalForAll(address,bool)": {
        "details": "See {IERC721-setApprovalForAll}."
      },
      "supportsInterface(bytes4)": {
        "details": "See {IERC165-supportsInterface}."
      },
      "symbol()": {
        "details": "See {IERC721Metadata-symbol}."
      },
      "tokenByIndex(uint256)": {
        "details": "See {IERC721Enumerable-tokenByIndex}."
      },
      "tokenOfOwnerByIndex(address,uint256)": {
        "details": "See {IERC721Enumerable-tokenOfOwnerByIndex}."
      },
      "tokenURI(uint256)": {
        "params": {
          "_nftId": "The id of the NFT"
        },
        "returns": {
          "_0": "The token URI of the NFT which has _nftId Id*"
        }
      },
      "totalSupply()": {
        "details": "See {IERC721Enumerable-totalSupply}."
      },
      "transferFrom(address,address,uint256)": {
        "details": "See {IERC721-transferFrom}."
      },
      "transferOwnership(address)": {
        "details": "Transfers ownership of the contract to a new account (`newOwner`). Can only be called by the current owner."
      }
    },
    "title": "In Real Life NFT collection",
    "version": 1
  },
  "userdoc": {
    "kind": "user",
    "methods": {
      "MintArt()": {
        "notice": "Allows to mint NFTs"
      },
      "constructor": {
        "notice": "Constructor parameters of ERC721. Params will be set by Collection Manager"
      },
      "random(uint256)": {
        "notice": "Calculate a Random number is a specified range"
      },
      "setBaseExtension(string)": {
        "notice": "Allows to change the max supply during the config stage*"
      },
      "setBaseURI(string)": {
        "notice": "Allows to change the max supply during the config stage*"
      },
      "setMaxSupply(uint256)": {
        "notice": "Allows to change the max supply during the config stage*"
      },
      "setUpPresale()": {
        "notice": "Allows to change the sellinStep to Presale*"
      },
      "setUpSale()": {
        "notice": "Allows to change the sellinStep to Sale*"
      },
      "tokenURI(uint256)": {
        "notice": "Allows to get the complete URI of a specific NFT by his ID"
      }
    },
    "notice": "NFT collection of an artist which may generate some action in real life",
    "version": 1
  }
}