{
  "contractName": "MintitNFTCollectionManager",
  "abi": [
    {
      "anonymous": false,
      "inputs": [
        {
          "indexed": false,
          "internalType": "bool",
          "name": "_created",
          "type": "bool"
        },
        {
          "indexed": false,
          "internalType": "string",
          "name": "_artistName",
          "type": "string"
        },
        {
          "indexed": false,
          "internalType": "address",
          "name": "_artistAddress",
          "type": "address"
        }
      ],
      "name": "ArtistUpdated",
      "type": "event"
    },
    {
      "anonymous": false,
      "inputs": [
        {
          "indexed": false,
          "internalType": "string",
          "name": "_collectionName",
          "type": "string"
        },
        {
          "indexed": false,
          "internalType": "address",
          "name": "_collectionAddress",
          "type": "address"
        },
        {
          "indexed": false,
          "internalType": "uint256",
          "name": "_timestamp",
          "type": "uint256"
        }
      ],
      "name": "MintitNFTCollectionCreated",
      "type": "event"
    },
    {
      "anonymous": false,
      "inputs": [
        {
          "indexed": true,
          "internalType": "address",
          "name": "previousOwner",
          "type": "address"
        },
        {
          "indexed": true,
          "internalType": "address",
          "name": "newOwner",
          "type": "address"
        }
      ],
      "name": "OwnershipTransferred",
      "type": "event"
    },
    {
      "anonymous": false,
      "inputs": [
        {
          "indexed": false,
          "internalType": "bool",
          "name": "_created",
          "type": "bool"
        },
        {
          "indexed": false,
          "internalType": "string",
          "name": "_userName",
          "type": "string"
        },
        {
          "indexed": false,
          "internalType": "address",
          "name": "_userAddress",
          "type": "address"
        }
      ],
      "name": "UserUpdated",
      "type": "event"
    },
    {
      "inputs": [
        {
          "internalType": "uint256",
          "name": "",
          "type": "uint256"
        }
      ],
      "name": "artistArray",
      "outputs": [
        {
          "internalType": "address",
          "name": "",
          "type": "address"
        }
      ],
      "stateMutability": "view",
      "type": "function",
      "constant": true
    },
    {
      "inputs": [
        {
          "internalType": "uint256",
          "name": "",
          "type": "uint256"
        }
      ],
      "name": "collectionArray",
      "outputs": [
        {
          "internalType": "address",
          "name": "",
          "type": "address"
        }
      ],
      "stateMutability": "view",
      "type": "function",
      "constant": true
    },
    {
      "inputs": [],
      "name": "getArtistArray",
      "outputs": [
        {
          "internalType": "address[]",
          "name": "",
          "type": "address[]"
        }
      ],
      "stateMutability": "view",
      "type": "function",
      "constant": true
    },
    {
      "inputs": [
        {
          "internalType": "address",
          "name": "artistAddress",
          "type": "address"
        }
      ],
      "name": "getArtistDetails",
      "outputs": [
        {
          "internalType": "string",
          "name": "name",
          "type": "string"
        },
        {
          "internalType": "string",
          "name": "description",
          "type": "string"
        },
        {
          "internalType": "bool",
          "name": "verified",
          "type": "bool"
        },
        {
          "internalType": "address[]",
          "name": "collections",
          "type": "address[]"
        }
      ],
      "stateMutability": "view",
      "type": "function",
      "constant": true
    },
    {
      "inputs": [
        {
          "internalType": "address",
          "name": "userAddress",
          "type": "address"
        }
      ],
      "name": "getUserDetails",
      "outputs": [
        {
          "internalType": "string",
          "name": "name",
          "type": "string"
        },
        {
          "internalType": "string",
          "name": "description",
          "type": "string"
        }
      ],
      "stateMutability": "view",
      "type": "function",
      "constant": true
    },
    {
      "inputs": [],
      "name": "owner",
      "outputs": [
        {
          "internalType": "address",
          "name": "",
          "type": "address"
        }
      ],
      "stateMutability": "view",
      "type": "function",
      "constant": true
    },
    {
      "inputs": [],
      "name": "renounceOwnership",
      "outputs": [],
      "stateMutability": "nonpayable",
      "type": "function"
    },
    {
      "inputs": [
        {
          "internalType": "string",
          "name": "_artistName",
          "type": "string"
        },
        {
          "internalType": "string",
          "name": "_artistDescription",
          "type": "string"
        }
      ],
      "name": "setArtist",
      "outputs": [],
      "stateMutability": "nonpayable",
      "type": "function"
    },
    {
      "inputs": [
        {
          "internalType": "string",
          "name": "_userName",
          "type": "string"
        },
        {
          "internalType": "string",
          "name": "_userDescription",
          "type": "string"
        }
      ],
      "name": "setUser",
      "outputs": [],
      "stateMutability": "nonpayable",
      "type": "function"
    },
    {
      "inputs": [
        {
          "internalType": "address",
          "name": "newOwner",
          "type": "address"
        }
      ],
      "name": "transferOwnership",
      "outputs": [],
      "stateMutability": "nonpayable",
      "type": "function"
    },
    {
      "inputs": [
        {
          "internalType": "address",
          "name": "_artist",
          "type": "address"
        },
        {
          "internalType": "bool",
          "name": "_verified",
          "type": "bool"
        }
      ],
      "name": "verifyArtist",
      "outputs": [],
      "stateMutability": "nonpayable",
      "type": "function"
    },
    {
      "inputs": [],
      "name": "createMintitBaseCollection",
      "outputs": [
        {
          "internalType": "address",
          "name": "",
          "type": "address"
        }
      ],
      "stateMutability": "nonpayable",
      "type": "function"
    },
    {
      "inputs": [
        {
          "internalType": "string",
          "name": "_collectionName",
          "type": "string"
        },
        {
          "internalType": "string",
          "name": "_collectionSymbol",
          "type": "string"
        },
        {
          "internalType": "uint256[]",
          "name": "_intParams",
          "type": "uint256[]"
        },
        {
          "internalType": "string[]",
          "name": "_strParams",
          "type": "string[]"
        }
      ],
      "name": "createMintitNFTCollection",
      "outputs": [
        {
          "internalType": "address",
          "name": "collectionAddress",
          "type": "address"
        }
      ],
      "stateMutability": "nonpayable",
      "type": "function"
    },
    {
      "inputs": [],
      "name": "getCollectionArray",
      "outputs": [
        {
          "internalType": "address[]",
          "name": "",
          "type": "address[]"
        }
      ],
      "stateMutability": "view",
      "type": "function",
      "constant": true
    }
  ],
  "bytecode": "0x608060405234801561001057600080fd5b5061001a3361001f565b61006f565b600080546001600160a01b038381166001600160a01b0319831681178455604051919092169283917f8be0079c531659141344cd1fd0a4f28419497f9722a3daafe3b4186f6b6457e09190a35050565b6114ab8061007e6000396000f3fe608060405234801561001057600080fd5b50600436106100ba5760003560e01c806332b4e78e146100bf5780633a96f51d146100d45780635728b973146100f2578063715018a6146101055780638da5cb5b1461010d5780638fa84e821461012d578063a5ed38d014610140578063ae6f371a14610153578063bc3cf3211461015b578063cc3d967b14610163578063d81b39a514610184578063da272226146101a7578063f2fde38b146101ba578063fc622b66146101cd575b600080fd5b6100d26100cd366004610e39565b6101e0565b005b6100dc6102b6565b6040516100e99190610ebb565b60405180910390f35b6100d2610100366004610f8a565b610318565b6100d261045e565b610115610499565b6040516001600160a01b0390911681526020016100e9565b61011561013b366004610fed565b6104a8565b61011561014e366004610fed565b6104d2565b6100dc6104e2565b610115610542565b610176610171366004611006565b6105f3565b6040516100e9929190611070565b610197610192366004611006565b610737565b6040516100e9949392919061109e565b6101156101b536600461119c565b6108f8565b6100d26101c8366004611006565b610b23565b6100d26101db366004610f8a565b610bc3565b336101e9610499565b6001600160a01b0316146102185760405162461bcd60e51b815260040161020f9061129b565b60405180910390fd5b6001600160a01b03821660009081526001602081905260409091206002015460ff161515146102825760405162461bcd60e51b815260206004820152601660248201527561727469737420646f6573206e6f742065786973747360501b604482015260640161020f565b6001600160a01b03909116600090815260016020526040902060020180549115156101000261ff0019909216919091179055565b6060600280548060200260200160405190810160405280929190818152602001828054801561030e57602002820191906000526020600020905b81546001600160a01b031681526001909101906020018083116102f0575b5050505050905090565b60008251116103655760405162461bcd60e51b815260206004820152601960248201527875736572206e616d652063616e6e6f7420626520656d70747960381b604482015260640161020f565b336000908152600360209081526040909120835161038592850190610d8b565b5033600090815260036020908152604090912082516103ac92600190920191840190610d8b565b503360009081526003602052604081206002015460ff161515900361042a573360008181526003602052604090819020600201805460ff1916600190811790915590517f4502340c596508ad36622fdd2657779a6e851dd75eb0fc820e5220ceacaf05009261041e92918691906112d0565b60405180910390a15050565b7f4502340c596508ad36622fdd2657779a6e851dd75eb0fc820e5220ceacaf05006000833360405161041e939291906112d0565b33610467610499565b6001600160a01b03161461048d5760405162461bcd60e51b815260040161020f9061129b565b6104976000610d3b565b565b6000546001600160a01b031690565b600481815481106104b857600080fd5b6000918252602090912001546001600160a01b0316905081565b600281815481106104b857600080fd5b6060600480548060200260200160405190810160405280929190818152602001828054801561030e576020028201919060005260206000209081546001600160a01b031681526001909101906020018083116102f0575050505050905090565b6005546000906001600160a01b03166105e35773__DeployBaseCollection__________________63996631556040518163ffffffff1660e01b8152600401602060405180830381865af415801561059e573d6000803e3d6000fd5b505050506040513d601f19601f820116820180604052508101906105c29190611303565b600580546001600160a01b0319166001600160a01b03929092169190911790555b506005546001600160a01b031690565b6001600160a01b0381166000908152600360205260409020805460609182916001820190829061062290611320565b80601f016020809104026020016040519081016040528092919081815260200182805461064e90611320565b801561069b5780601f106106705761010080835404028352916020019161069b565b820191906000526020600020905b81548152906001019060200180831161067e57829003601f168201915b505050505091508080546106ae90611320565b80601f01602080910402602001604051908101604052809291908181526020018280546106da90611320565b80156107275780601f106106fc57610100808354040283529160200191610727565b820191906000526020600020905b81548152906001019060200180831161070a57829003601f168201915b5050505050905091509150915091565b6001600160a01b038116600090815260016020819052604082206002810154815460609485949093859390929183019161010090910460ff16906003840190849061078190611320565b80601f01602080910402602001604051908101604052809291908181526020018280546107ad90611320565b80156107fa5780601f106107cf576101008083540402835291602001916107fa565b820191906000526020600020905b8154815290600101906020018083116107dd57829003601f168201915b5050505050935082805461080d90611320565b80601f016020809104026020016040519081016040528092919081815260200182805461083990611320565b80156108865780601f1061085b57610100808354040283529160200191610886565b820191906000526020600020905b81548152906001019060200180831161086957829003601f168201915b50505050509250808054806020026020016040519081016040528092919081815260200182805480156108e257602002820191906000526020600020905b81546001600160a01b031681526001909101906020018083116108c4575b5050505050905093509350935093509193509193565b6005546000906001600160a01b03166109995773__DeployBaseCollection__________________63996631556040518163ffffffff1660e01b8152600401602060405180830381865af4158015610954573d6000803e3d6000fd5b505050506040513d601f19601f820116820180604052508101906109789190611303565b600580546001600160a01b0319166001600160a01b03929092169190911790555b60055460405163286eb14960e11b815273__DeployNFTCollection___________________916350dd6292916109e7918991899133918a918a916001600160a01b03909116906004016113af565b602060405180830381865af4158015610a04573d6000803e3d6000fd5b505050506040513d601f19601f82011682018060405250810190610a289190611303565b3360009081526001602052604081206002015491925060ff90911615159003610a6457610a648560405180602001604052806000815250610bc3565b3360009081526001602081815260408084206003018054808501825590855291842090910180546001600160a01b0386166001600160a01b031991821681179092556004805494850181559094527f8a35acfbc15ff81a39ae7d344fd709f28e8600b4aa8c65c6b64bfe7fe36bd19b9092018054909316909117909155517f0e460cae328a98077c7b880d92d7f753a2117c0da8db5ef440246d65152b803190610b1390879084904290611447565b60405180910390a1949350505050565b33610b2c610499565b6001600160a01b031614610b525760405162461bcd60e51b815260040161020f9061129b565b6001600160a01b038116610bb75760405162461bcd60e51b815260206004820152602660248201527f4f776e61626c653a206e6577206f776e657220697320746865207a65726f206160448201526564647265737360d01b606482015260840161020f565b610bc081610d3b565b50565b6000825111610c125760405162461bcd60e51b815260206004820152601b60248201527a617274697374206e616d652063616e6e6f7420626520656d70747960281b604482015260640161020f565b3360009081526001602090815260409091208351610c3292850190610d8b565b503360009081526001602081815260409092208351610c5993919092019190840190610d8b565b503360009081526001602052604081206002015460ff1615159003610d07573360008181526001602081905260408083206002908101805460ff1916841790558054808401825593527f405787fa12a823e0f2b7631cc41b3ba8828b3321ca811111fa75cd3aa3bb5ace90920180546001600160a01b0319168417905590517f0c568080c9f2d17381ac0b5a1d445d1e0c05884108126da188a737d979bd23089261041e92918691906112d0565b7f0c568080c9f2d17381ac0b5a1d445d1e0c05884108126da188a737d979bd23086000833360405161041e939291906112d0565b600080546001600160a01b038381166001600160a01b0319831681178455604051919092169283917f8be0079c531659141344cd1fd0a4f28419497f9722a3daafe3b4186f6b6457e09190a35050565b828054610d9790611320565b90600052602060002090601f016020900481019282610db95760008555610dff565b82601f10610dd257805160ff1916838001178555610dff565b82800160010185558215610dff579182015b82811115610dff578251825591602001919060010190610de4565b50610e0b929150610e0f565b5090565b5b80821115610e0b5760008155600101610e10565b6001600160a01b0381168114610bc057600080fd5b60008060408385031215610e4c57600080fd5b8235610e5781610e24565b915060208301358015158114610e6c57600080fd5b809150509250929050565b600081518084526020808501945080840160005b83811015610eb05781516001600160a01b031687529582019590820190600101610e8b565b509495945050505050565b602081526000610ece6020830184610e77565b9392505050565b634e487b7160e01b600052604160045260246000fd5b604051601f8201601f191681016001600160401b0381118282101715610f1357610f13610ed5565b604052919050565b600082601f830112610f2c57600080fd5b81356001600160401b03811115610f4557610f45610ed5565b610f58601f8201601f1916602001610eeb565b818152846020838601011115610f6d57600080fd5b816020850160208301376000918101602001919091529392505050565b60008060408385031215610f9d57600080fd5b82356001600160401b0380821115610fb457600080fd5b610fc086838701610f1b565b93506020850135915080821115610fd657600080fd5b50610fe385828601610f1b565b9150509250929050565b600060208284031215610fff57600080fd5b5035919050565b60006020828403121561101857600080fd5b8135610ece81610e24565b6000815180845260005b818110156110495760208185018101518683018201520161102d565b8181111561105b576000602083870101525b50601f01601f19169290920160200192915050565b6040815260006110836040830185611023565b82810360208401526110958185611023565b95945050505050565b6080815260006110b16080830187611023565b82810360208401526110c38187611023565b9050841515604084015282810360608401526110df8185610e77565b979650505050505050565b60006001600160401b0382111561110357611103610ed5565b5060051b60200190565b600082601f83011261111e57600080fd5b8135602061113361112e836110ea565b610eeb565b82815260059290921b8401810191818101908684111561115257600080fd5b8286015b848110156111915780356001600160401b038111156111755760008081fd5b6111838986838b0101610f1b565b845250918301918301611156565b509695505050505050565b600080600080608085870312156111b257600080fd5b84356001600160401b03808211156111c957600080fd5b6111d588838901610f1b565b95506020915081870135818111156111ec57600080fd5b6111f889828a01610f1b565b95505060408701358181111561120d57600080fd5b8701601f8101891361121e57600080fd5b803561122c61112e826110ea565b81815260059190911b8201840190848101908b83111561124b57600080fd5b928501925b8284101561126957833582529285019290850190611250565b9650505050606087013591508082111561128257600080fd5b5061128f8782880161110d565b91505092959194509250565b6020808252818101527f4f776e61626c653a2063616c6c6572206973206e6f7420746865206f776e6572604082015260600190565b83151581526060602082015260006112eb6060830185611023565b905060018060a01b0383166040830152949350505050565b60006020828403121561131557600080fd5b8151610ece81610e24565b600181811c9082168061133457607f821691505b60208210810361135457634e487b7160e01b600052602260045260246000fd5b50919050565b600081518084526020808501808196508360051b8101915082860160005b858110156113a2578284038952611390848351611023565b98850198935090840190600101611378565b5091979650505050505050565b60c0815260006113c260c0830189611023565b6020838203818501526113d5828a611023565b6001600160a01b03891660408601528481036060860152875180825282890193509082019060005b81811015611419578451835293830193918301916001016113fd565b5050848103608086015261142d818861135a565b93505050506110df60a08301846001600160a01b03169052565b60608152600061145a6060830186611023565b6001600160a01b03949094166020830152506040015291905056fea2646970667358221220fa3a9cf8e657a40040954c8ea5f89fceab9ff9e1e759b8f83a4972d0781bab6d64736f6c634300080e0033",
  "immutableReferences": {},
  "source": "// SPDX-License-Identifier: MIT\r\npragma solidity 0.8.14;\r\n\r\n// importing the ERC-721 contract to deploy for an artist\r\nimport \"./Artists.sol\";\r\nimport \"./Users.sol\";\r\nimport \"./DeployNFTCollection.sol\";\r\nimport \"./DeployBaseCollection.sol\";\r\n\r\n/** \r\n  * @title Mint It NFT collection Manager\r\n  * @author Geoffrey B. / Christophe B.\r\n  * @notice Give the ability to deploy a contract to manage ERC-721 tokens for an Artist.\r\n  */\r\ncontract MintitNFTCollectionManager is Artists, Users{\r\n\r\n    // Array of collection addresses\r\n    address[] public collectionArray;\r\n\r\n    address mintitCollection;\r\n\r\n    /// @notice Event emitted each time a new NFT collection is created\r\n    event MintitNFTCollectionCreated(string _collectionName, address _collectionAddress, uint _timestamp);\r\n\r\n    /**\r\n      * @notice Deploy the ERC-721 Base NFT Collection contract\r\n      *\r\n      * @return mintitCollection the address of the created base NFT collection contract\r\n      */\r\n    function createMintitBaseCollection() external returns (address) {\r\n\r\n        if (mintitCollection == address(0))\r\n          mintitCollection = DeployBaseCollection.deployBaseCollection();\r\n\r\n        return mintitCollection;\r\n    }\r\n\r\n    /**\r\n      * @notice Deploy the Proxy MintIt smart contract which will delegate calls to the Base NFT Collection contracts\r\n      *\r\n      * @return collectionAddress the address of the created collection proxy contract\r\n      */\r\n    function createMintitNFTCollection(string memory _collectionName, string memory _collectionSymbol, \r\n                                        uint256[] memory _intParams, string[] memory _strParams) external returns (address collectionAddress) {\r\n\r\n        if (mintitCollection == address(0))\r\n          mintitCollection = DeployBaseCollection.deployBaseCollection();\r\n\r\n        // deploy NFT collection\r\n        collectionAddress = DeployNFTCollection.deployNFTCollection(_collectionName, _collectionSymbol, msg.sender,\r\n                                _intParams,_strParams, mintitCollection);\r\n        \r\n        // create the artist if not exist\r\n        if (artists[msg.sender].created == false) {\r\n            setArtist(_collectionName, \"\");\r\n        }\r\n        artists[msg.sender].collections.push(collectionAddress);\r\n        collectionArray.push(collectionAddress);\r\n\r\n        emit MintitNFTCollectionCreated(_collectionName, collectionAddress, block.timestamp);\r\n    }\r\n\r\n    /**\r\n      * @notice Return the list of collection addresses created\r\n      *\r\n      * @return collectionArray the array of collection addresses\r\n      */    \r\n    function getCollectionArray() public view returns( address  [] memory){\r\n        return collectionArray;\r\n    }\r\n}\r\n",
  "sourcePath": "C:\\Users\\Geof\\OneDrive\\Documents\\crypto_project\\mintit\\contracts\\MintitNFTCollectionManager.sol",
  "compiler": {
    "name": "solc",
    "version": "0.8.14+commit.80d49f37.Emscripten.clang"
  },
  "schemaVersion": "3.4.7",
  "updatedAt": "2022-05-26T20:25:35.900Z",
  "networkType": "ethereum",
  "devdoc": {
    "author": "Geoffrey B. / Christophe B.",
    "kind": "dev",
    "methods": {
      "createMintitBaseCollection()": {
        "returns": {
          "_0": "mintitCollection the address of the created base NFT collection contract"
        }
      },
      "createMintitNFTCollection(string,string,uint256[],string[])": {
        "returns": {
          "collectionAddress": "the address of the created collection proxy contract"
        }
      },
      "getArtistArray()": {
        "returns": {
          "_0": "artistArray the array of artis addresses"
        }
      },
      "getArtistDetails(address)": {
        "returns": {
          "description": "of the artist",
          "name": "of the artist",
          "verified": "information about the artist"
        }
      },
      "getCollectionArray()": {
        "returns": {
          "_0": "collectionArray the array of collection addresses"
        }
      },
      "getUserDetails(address)": {
        "returns": {
          "description": "of the user",
          "name": "of the user"
        }
      },
      "owner()": {
        "details": "Returns the address of the current owner."
      },
      "renounceOwnership()": {
        "details": "Leaves the contract without owner. It will not be possible to call `onlyOwner` functions anymore. Can only be called by the current owner. NOTE: Renouncing ownership will leave the contract without an owner, thereby removing any functionality that is only available to the owner."
      },
      "transferOwnership(address)": {
        "details": "Transfers ownership of the contract to a new account (`newOwner`). Can only be called by the current owner."
      }
    },
    "title": "Mint It NFT collection Manager",
    "version": 1
  },
  "userdoc": {
    "events": {
      "ArtistUpdated(bool,string,address)": {
        "notice": "Event emitted each time a new artist is created or updated"
      },
      "MintitNFTCollectionCreated(string,address,uint256)": {
        "notice": "Event emitted each time a new NFT collection is created"
      },
      "UserUpdated(bool,string,address)": {
        "notice": "Event emitted each time a new user is created or updated"
      }
    },
    "kind": "user",
    "methods": {
      "createMintitBaseCollection()": {
        "notice": "Deploy the ERC-721 Base NFT Collection contract"
      },
      "createMintitNFTCollection(string,string,uint256[],string[])": {
        "notice": "Deploy the Proxy MintIt smart contract which will delegate calls to the Base NFT Collection contracts"
      },
      "getArtistArray()": {
        "notice": "Return the list of artist addresses created"
      },
      "getArtistDetails(address)": {
        "notice": "Return the details of an artist based on its address"
      },
      "getCollectionArray()": {
        "notice": "Return the list of collection addresses created"
      },
      "getUserDetails(address)": {
        "notice": "Return the details of a user based on its address"
      },
      "setArtist(string,string)": {
        "notice": "Create or update an artist"
      },
      "setUser(string,string)": {
        "notice": "Create or update a user"
      },
      "verifyArtist(address,bool)": {
        "notice": "Verify or Unverify an existing artist"
      }
    },
    "notice": "Give the ability to deploy a contract to manage ERC-721 tokens for an Artist.",
    "version": 1
  }
}