{
  "contractName": "MintitNFTCollection",
  "abi": [
    {
      "anonymous": false,
      "inputs": [
        {
          "indexed": true,
          "internalType": "address",
          "name": "owner",
          "type": "address"
        },
        {
          "indexed": true,
          "internalType": "address",
          "name": "approved",
          "type": "address"
        },
        {
          "indexed": true,
          "internalType": "uint256",
          "name": "tokenId",
          "type": "uint256"
        }
      ],
      "name": "Approval",
      "type": "event"
    },
    {
      "anonymous": false,
      "inputs": [
        {
          "indexed": true,
          "internalType": "address",
          "name": "owner",
          "type": "address"
        },
        {
          "indexed": true,
          "internalType": "address",
          "name": "operator",
          "type": "address"
        },
        {
          "indexed": false,
          "internalType": "bool",
          "name": "approved",
          "type": "bool"
        }
      ],
      "name": "ApprovalForAll",
      "type": "event"
    },
    {
      "anonymous": false,
      "inputs": [
        {
          "indexed": true,
          "internalType": "contract IERC20Upgradeable",
          "name": "token",
          "type": "address"
        },
        {
          "indexed": false,
          "internalType": "address",
          "name": "to",
          "type": "address"
        },
        {
          "indexed": false,
          "internalType": "uint256",
          "name": "amount",
          "type": "uint256"
        }
      ],
      "name": "ERC20PaymentReleased",
      "type": "event"
    },
    {
      "anonymous": false,
      "inputs": [
        {
          "indexed": false,
          "internalType": "uint8",
          "name": "version",
          "type": "uint8"
        }
      ],
      "name": "Initialized",
      "type": "event"
    },
    {
      "anonymous": false,
      "inputs": [
        {
          "indexed": true,
          "internalType": "address",
          "name": "previousOwner",
          "type": "address"
        },
        {
          "indexed": true,
          "internalType": "address",
          "name": "newOwner",
          "type": "address"
        }
      ],
      "name": "OwnershipTransferred",
      "type": "event"
    },
    {
      "anonymous": false,
      "inputs": [
        {
          "indexed": false,
          "internalType": "address",
          "name": "account",
          "type": "address"
        },
        {
          "indexed": false,
          "internalType": "uint256",
          "name": "shares",
          "type": "uint256"
        }
      ],
      "name": "PayeeAdded",
      "type": "event"
    },
    {
      "anonymous": false,
      "inputs": [
        {
          "indexed": false,
          "internalType": "address",
          "name": "from",
          "type": "address"
        },
        {
          "indexed": false,
          "internalType": "uint256",
          "name": "amount",
          "type": "uint256"
        }
      ],
      "name": "PaymentReceived",
      "type": "event"
    },
    {
      "anonymous": false,
      "inputs": [
        {
          "indexed": false,
          "internalType": "address",
          "name": "to",
          "type": "address"
        },
        {
          "indexed": false,
          "internalType": "uint256",
          "name": "amount",
          "type": "uint256"
        }
      ],
      "name": "PaymentReleased",
      "type": "event"
    },
    {
      "anonymous": false,
      "inputs": [
        {
          "indexed": true,
          "internalType": "address",
          "name": "from",
          "type": "address"
        },
        {
          "indexed": true,
          "internalType": "address",
          "name": "to",
          "type": "address"
        },
        {
          "indexed": true,
          "internalType": "uint256",
          "name": "tokenId",
          "type": "uint256"
        }
      ],
      "name": "Transfer",
      "type": "event"
    },
    {
      "anonymous": false,
      "inputs": [
        {
          "indexed": false,
          "internalType": "address",
          "name": "newRoyaltyAddress",
          "type": "address"
        },
        {
          "indexed": false,
          "internalType": "uint256",
          "name": "newPercentage",
          "type": "uint256"
        }
      ],
      "name": "UpdatedRoyalties",
      "type": "event"
    },
    {
      "anonymous": false,
      "inputs": [
        {
          "indexed": false,
          "internalType": "address",
          "name": "_userAddress",
          "type": "address"
        }
      ],
      "name": "Whitelisted",
      "type": "event"
    },
    {
      "inputs": [
        {
          "internalType": "address",
          "name": "to",
          "type": "address"
        },
        {
          "internalType": "uint256",
          "name": "tokenId",
          "type": "uint256"
        }
      ],
      "name": "approve",
      "outputs": [],
      "stateMutability": "nonpayable",
      "type": "function"
    },
    {
      "inputs": [
        {
          "internalType": "address",
          "name": "owner",
          "type": "address"
        }
      ],
      "name": "balanceOf",
      "outputs": [
        {
          "internalType": "uint256",
          "name": "",
          "type": "uint256"
        }
      ],
      "stateMutability": "view",
      "type": "function"
    },
    {
      "inputs": [
        {
          "internalType": "uint256",
          "name": "tokenId",
          "type": "uint256"
        }
      ],
      "name": "getApproved",
      "outputs": [
        {
          "internalType": "address",
          "name": "",
          "type": "address"
        }
      ],
      "stateMutability": "view",
      "type": "function"
    },
    {
      "inputs": [
        {
          "internalType": "address",
          "name": "owner",
          "type": "address"
        },
        {
          "internalType": "address",
          "name": "operator",
          "type": "address"
        }
      ],
      "name": "isApprovedForAll",
      "outputs": [
        {
          "internalType": "bool",
          "name": "",
          "type": "bool"
        }
      ],
      "stateMutability": "view",
      "type": "function"
    },
    {
      "inputs": [],
      "name": "name",
      "outputs": [
        {
          "internalType": "string",
          "name": "",
          "type": "string"
        }
      ],
      "stateMutability": "view",
      "type": "function"
    },
    {
      "inputs": [],
      "name": "owner",
      "outputs": [
        {
          "internalType": "address",
          "name": "",
          "type": "address"
        }
      ],
      "stateMutability": "view",
      "type": "function"
    },
    {
      "inputs": [
        {
          "internalType": "uint256",
          "name": "tokenId",
          "type": "uint256"
        }
      ],
      "name": "ownerOf",
      "outputs": [
        {
          "internalType": "address",
          "name": "",
          "type": "address"
        }
      ],
      "stateMutability": "view",
      "type": "function"
    },
    {
      "inputs": [
        {
          "internalType": "uint256",
          "name": "index",
          "type": "uint256"
        }
      ],
      "name": "payee",
      "outputs": [
        {
          "internalType": "address",
          "name": "",
          "type": "address"
        }
      ],
      "stateMutability": "view",
      "type": "function"
    },
    {
      "inputs": [
        {
          "internalType": "address payable",
          "name": "account",
          "type": "address"
        }
      ],
      "name": "release",
      "outputs": [],
      "stateMutability": "nonpayable",
      "type": "function"
    },
    {
      "inputs": [
        {
          "internalType": "contract IERC20Upgradeable",
          "name": "token",
          "type": "address"
        },
        {
          "internalType": "address",
          "name": "account",
          "type": "address"
        }
      ],
      "name": "release",
      "outputs": [],
      "stateMutability": "nonpayable",
      "type": "function"
    },
    {
      "inputs": [
        {
          "internalType": "contract IERC20Upgradeable",
          "name": "token",
          "type": "address"
        },
        {
          "internalType": "address",
          "name": "account",
          "type": "address"
        }
      ],
      "name": "released",
      "outputs": [
        {
          "internalType": "uint256",
          "name": "",
          "type": "uint256"
        }
      ],
      "stateMutability": "view",
      "type": "function"
    },
    {
      "inputs": [
        {
          "internalType": "address",
          "name": "account",
          "type": "address"
        }
      ],
      "name": "released",
      "outputs": [
        {
          "internalType": "uint256",
          "name": "",
          "type": "uint256"
        }
      ],
      "stateMutability": "view",
      "type": "function"
    },
    {
      "inputs": [],
      "name": "renounceOwnership",
      "outputs": [],
      "stateMutability": "nonpayable",
      "type": "function"
    },
    {
      "inputs": [
        {
          "internalType": "uint256",
          "name": "_tokenId",
          "type": "uint256"
        },
        {
          "internalType": "uint256",
          "name": "_salePrice",
          "type": "uint256"
        }
      ],
      "name": "royaltyInfo",
      "outputs": [
        {
          "internalType": "address",
          "name": "receiver",
          "type": "address"
        },
        {
          "internalType": "uint256",
          "name": "royaltyAmount",
          "type": "uint256"
        }
      ],
      "stateMutability": "view",
      "type": "function"
    },
    {
      "inputs": [
        {
          "internalType": "address",
          "name": "from",
          "type": "address"
        },
        {
          "internalType": "address",
          "name": "to",
          "type": "address"
        },
        {
          "internalType": "uint256",
          "name": "tokenId",
          "type": "uint256"
        }
      ],
      "name": "safeTransferFrom",
      "outputs": [],
      "stateMutability": "nonpayable",
      "type": "function"
    },
    {
      "inputs": [
        {
          "internalType": "address",
          "name": "from",
          "type": "address"
        },
        {
          "internalType": "address",
          "name": "to",
          "type": "address"
        },
        {
          "internalType": "uint256",
          "name": "tokenId",
          "type": "uint256"
        },
        {
          "internalType": "bytes",
          "name": "_data",
          "type": "bytes"
        }
      ],
      "name": "safeTransferFrom",
      "outputs": [],
      "stateMutability": "nonpayable",
      "type": "function"
    },
    {
      "inputs": [],
      "name": "sellingStage",
      "outputs": [
        {
          "internalType": "enum MintitNFTCollection.Stages",
          "name": "",
          "type": "uint8"
        }
      ],
      "stateMutability": "view",
      "type": "function"
    },
    {
      "inputs": [
        {
          "internalType": "address",
          "name": "operator",
          "type": "address"
        },
        {
          "internalType": "bool",
          "name": "approved",
          "type": "bool"
        }
      ],
      "name": "setApprovalForAll",
      "outputs": [],
      "stateMutability": "nonpayable",
      "type": "function"
    },
    {
      "inputs": [
        {
          "internalType": "address",
          "name": "account",
          "type": "address"
        }
      ],
      "name": "shares",
      "outputs": [
        {
          "internalType": "uint256",
          "name": "",
          "type": "uint256"
        }
      ],
      "stateMutability": "view",
      "type": "function"
    },
    {
      "inputs": [],
      "name": "symbol",
      "outputs": [
        {
          "internalType": "string",
          "name": "",
          "type": "string"
        }
      ],
      "stateMutability": "view",
      "type": "function"
    },
    {
      "inputs": [
        {
          "internalType": "uint256",
          "name": "index",
          "type": "uint256"
        }
      ],
      "name": "tokenByIndex",
      "outputs": [
        {
          "internalType": "uint256",
          "name": "",
          "type": "uint256"
        }
      ],
      "stateMutability": "view",
      "type": "function"
    },
    {
      "inputs": [
        {
          "internalType": "address",
          "name": "owner",
          "type": "address"
        },
        {
          "internalType": "uint256",
          "name": "index",
          "type": "uint256"
        }
      ],
      "name": "tokenOfOwnerByIndex",
      "outputs": [
        {
          "internalType": "uint256",
          "name": "",
          "type": "uint256"
        }
      ],
      "stateMutability": "view",
      "type": "function"
    },
    {
      "inputs": [
        {
          "internalType": "contract IERC20Upgradeable",
          "name": "token",
          "type": "address"
        }
      ],
      "name": "totalReleased",
      "outputs": [
        {
          "internalType": "uint256",
          "name": "",
          "type": "uint256"
        }
      ],
      "stateMutability": "view",
      "type": "function"
    },
    {
      "inputs": [],
      "name": "totalReleased",
      "outputs": [
        {
          "internalType": "uint256",
          "name": "",
          "type": "uint256"
        }
      ],
      "stateMutability": "view",
      "type": "function"
    },
    {
      "inputs": [],
      "name": "totalShares",
      "outputs": [
        {
          "internalType": "uint256",
          "name": "",
          "type": "uint256"
        }
      ],
      "stateMutability": "view",
      "type": "function"
    },
    {
      "inputs": [],
      "name": "totalSupply",
      "outputs": [
        {
          "internalType": "uint256",
          "name": "",
          "type": "uint256"
        }
      ],
      "stateMutability": "view",
      "type": "function"
    },
    {
      "inputs": [
        {
          "internalType": "address",
          "name": "from",
          "type": "address"
        },
        {
          "internalType": "address",
          "name": "to",
          "type": "address"
        },
        {
          "internalType": "uint256",
          "name": "tokenId",
          "type": "uint256"
        }
      ],
      "name": "transferFrom",
      "outputs": [],
      "stateMutability": "nonpayable",
      "type": "function"
    },
    {
      "inputs": [
        {
          "internalType": "address",
          "name": "newOwner",
          "type": "address"
        }
      ],
      "name": "transferOwnership",
      "outputs": [],
      "stateMutability": "nonpayable",
      "type": "function"
    },
    {
      "stateMutability": "payable",
      "type": "receive"
    },
    {
      "inputs": [
        {
          "internalType": "address[]",
          "name": "_payees",
          "type": "address[]"
        },
        {
          "internalType": "uint256[]",
          "name": "_shares",
          "type": "uint256[]"
        },
        {
          "internalType": "string",
          "name": "name_",
          "type": "string"
        },
        {
          "internalType": "string",
          "name": "symbol_",
          "type": "string"
        },
        {
          "internalType": "address",
          "name": "_artist",
          "type": "address"
        },
        {
          "internalType": "uint256[]",
          "name": "_intParams",
          "type": "uint256[]"
        },
        {
          "internalType": "string[]",
          "name": "_strParams",
          "type": "string[]"
        }
      ],
      "name": "initialize",
      "outputs": [],
      "stateMutability": "nonpayable",
      "type": "function"
    },
    {
      "inputs": [
        {
          "internalType": "bytes4",
          "name": "interfaceId",
          "type": "bytes4"
        }
      ],
      "name": "supportsInterface",
      "outputs": [
        {
          "internalType": "bool",
          "name": "",
          "type": "bool"
        }
      ],
      "stateMutability": "view",
      "type": "function"
    },
    {
      "inputs": [
        {
          "internalType": "uint256[]",
          "name": "dates",
          "type": "uint256[]"
        }
      ],
      "name": "setCalendar",
      "outputs": [],
      "stateMutability": "nonpayable",
      "type": "function"
    },
    {
      "inputs": [],
      "name": "getCalendar",
      "outputs": [
        {
          "internalType": "uint256[]",
          "name": "",
          "type": "uint256[]"
        }
      ],
      "stateMutability": "view",
      "type": "function"
    },
    {
      "inputs": [],
      "name": "getArtistAddress",
      "outputs": [
        {
          "internalType": "address",
          "name": "",
          "type": "address"
        }
      ],
      "stateMutability": "view",
      "type": "function"
    },
    {
      "inputs": [
        {
          "internalType": "string",
          "name": "_banner",
          "type": "string"
        }
      ],
      "name": "setBanner",
      "outputs": [],
      "stateMutability": "nonpayable",
      "type": "function"
    },
    {
      "inputs": [
        {
          "internalType": "string",
          "name": "_description",
          "type": "string"
        }
      ],
      "name": "setDescription",
      "outputs": [],
      "stateMutability": "nonpayable",
      "type": "function"
    },
    {
      "inputs": [
        {
          "internalType": "uint256",
          "name": "_amount",
          "type": "uint256"
        }
      ],
      "name": "setMaxSupply",
      "outputs": [],
      "stateMutability": "nonpayable",
      "type": "function"
    },
    {
      "inputs": [
        {
          "internalType": "uint256",
          "name": "_amount",
          "type": "uint256"
        }
      ],
      "name": "setMaxNbPerWallet",
      "outputs": [],
      "stateMutability": "nonpayable",
      "type": "function"
    },
    {
      "inputs": [
        {
          "internalType": "string",
          "name": "__baseURI",
          "type": "string"
        }
      ],
      "name": "setBaseURI",
      "outputs": [],
      "stateMutability": "nonpayable",
      "type": "function"
    },
    {
      "inputs": [
        {
          "internalType": "string",
          "name": "_baseExtension",
          "type": "string"
        }
      ],
      "name": "setBaseExtension",
      "outputs": [],
      "stateMutability": "nonpayable",
      "type": "function"
    },
    {
      "inputs": [
        {
          "internalType": "uint256",
          "name": "_price",
          "type": "uint256"
        }
      ],
      "name": "setPrice",
      "outputs": [],
      "stateMutability": "nonpayable",
      "type": "function"
    },
    {
      "inputs": [
        {
          "internalType": "uint256",
          "name": "_price",
          "type": "uint256"
        }
      ],
      "name": "setPresalePrice",
      "outputs": [],
      "stateMutability": "nonpayable",
      "type": "function"
    },
    {
      "inputs": [
        {
          "internalType": "bytes32",
          "name": "_newWhiteList",
          "type": "bytes32"
        }
      ],
      "name": "setPrivateWhitelist",
      "outputs": [],
      "stateMutability": "nonpayable",
      "type": "function"
    },
    {
      "inputs": [],
      "name": "addPublicWhitelist",
      "outputs": [],
      "stateMutability": "nonpayable",
      "type": "function"
    },
    {
      "inputs": [
        {
          "internalType": "address",
          "name": "account",
          "type": "address"
        }
      ],
      "name": "isPublicWhiteListed",
      "outputs": [
        {
          "internalType": "bool",
          "name": "",
          "type": "bool"
        }
      ],
      "stateMutability": "view",
      "type": "function"
    },
    {
      "inputs": [],
      "name": "getCollectionInfos",
      "outputs": [
        {
          "components": [
            {
              "internalType": "string",
              "name": "name",
              "type": "string"
            },
            {
              "internalType": "string",
              "name": "symbol",
              "type": "string"
            },
            {
              "internalType": "string",
              "name": "description",
              "type": "string"
            },
            {
              "internalType": "string",
              "name": "banner",
              "type": "string"
            },
            {
              "internalType": "string",
              "name": "baseURI",
              "type": "string"
            },
            {
              "internalType": "string",
              "name": "baseExtension",
              "type": "string"
            },
            {
              "internalType": "string",
              "name": "category",
              "type": "string"
            },
            {
              "internalType": "uint256",
              "name": "price",
              "type": "uint256"
            },
            {
              "internalType": "uint256",
              "name": "presalePrice",
              "type": "uint256"
            },
            {
              "internalType": "uint256",
              "name": "maxSupply",
              "type": "uint256"
            },
            {
              "internalType": "uint256",
              "name": "maxPerWallet",
              "type": "uint256"
            }
          ],
          "internalType": "struct MintitNFTCollection.Infos",
          "name": "",
          "type": "tuple"
        }
      ],
      "stateMutability": "view",
      "type": "function"
    },
    {
      "inputs": [
        {
          "internalType": "enum MintitNFTCollection.Stages",
          "name": "stage",
          "type": "uint8"
        }
      ],
      "name": "setUpStage",
      "outputs": [],
      "stateMutability": "nonpayable",
      "type": "function"
    },
    {
      "inputs": [
        {
          "internalType": "bytes32[]",
          "name": "_proof",
          "type": "bytes32[]"
        }
      ],
      "name": "PresaleMintArt",
      "outputs": [
        {
          "internalType": "uint256",
          "name": "",
          "type": "uint256"
        }
      ],
      "stateMutability": "payable",
      "type": "function"
    },
    {
      "inputs": [],
      "name": "MintArt",
      "outputs": [
        {
          "internalType": "uint256",
          "name": "",
          "type": "uint256"
        }
      ],
      "stateMutability": "payable",
      "type": "function"
    },
    {
      "inputs": [
        {
          "internalType": "uint256",
          "name": "_nftId",
          "type": "uint256"
        }
      ],
      "name": "tokenURI",
      "outputs": [
        {
          "internalType": "string",
          "name": "",
          "type": "string"
        }
      ],
      "stateMutability": "view",
      "type": "function"
    },
    {
      "inputs": [],
      "name": "releaseAll",
      "outputs": [],
      "stateMutability": "nonpayable",
      "type": "function"
    },
    {
      "inputs": [
        {
          "internalType": "address",
          "name": "_royaltyAddress",
          "type": "address"
        },
        {
          "internalType": "uint256",
          "name": "_percentage",
          "type": "uint256"
        }
      ],
      "name": "setRoyaltyInfo",
      "outputs": [],
      "stateMutability": "nonpayable",
      "type": "function"
    }
  ],
  "bytecode": "0x608060405234801561001057600080fd5b50614b10806100206000396000f3fe6080604052600436106102785760003560e01c806370a0823111610150578063a22cb465116100bc578063a22cb46514610752578063b7363f2e14610772578063b88d4fde14610794578063c87b56dd146107b4578063ce7c2ac2146107d4578063d79779b21461080a578063da3ef23f1461082a578063e2e784d51461084a578063e33b7de31461086a578063e985e9c51461087f578063ea0411f41461089f578063f2fde38b146108d9578063fdef6208146108f957600080fd5b806370a08231146105e4578063715018a6146106045780637f68bef7146106195780638b83209b146106395780638cbe8d80146106595780638da5cb5b1461067857806390c3f38f1461068d57806391b7f5ed146106ad57806391efcf70146106cd57806395d89b41146106f55780639731d9321461070a5780639852595c1461071d5780639b963d0a1461073d57600080fd5b80633549345e116101ef5780633549345e146104705780633a98ef3914610490578063406072a9146104a557806342842e0e146104c557806345749ca4146104e557806348b75044146104ed5780634f6ccce71461050d57806355f804b31461052d5780635be7fde81461054d57806361ba33d8146105625780636352211e146105845780636e580177146105a45780636f8b44b0146105c457600080fd5b806301ffc9a7146102bd57806305117fdc146102f25780630695cd8d1461031457806306fdde0314610334578063081812fc14610356578063095ea7b31461038357806318160ddd146103a357806319165587146103c257806323b872dd146103e25780632a55205a146104025780632f745c59146104305780632ff0541e1461045057600080fd5b366102b8577f6ef95f06320e7a25a04a175ca677b7052bdd97131872c2192525a629f51be77033346040516102ae929190613ce4565b60405180910390a1005b600080fd5b3480156102c957600080fd5b506102dd6102d8366004613d13565b610919565b60405190151581526020015b60405180910390f35b3480156102fe57600080fd5b5061031261030d366004613d30565b61092a565b005b34801561032057600080fd5b5061031261032f366004613d51565b610a0b565b34801561034057600080fd5b50610349610a66565b6040516102e99190613dc2565b34801561036257600080fd5b50610376610371366004613d51565b610af8565b6040516102e99190613dd5565b34801561038f57600080fd5b5061031261039e366004613e09565b610b80565b3480156103af57600080fd5b506099545b6040519081526020016102e9565b3480156103ce57600080fd5b506103126103dd366004613e35565b610c90565b3480156103ee57600080fd5b506103126103fd366004613e52565b610da3565b34801561040e57600080fd5b5061042261041d366004613e93565b610dd4565b6040516102e9929190613ce4565b34801561043c57600080fd5b506103b461044b366004613e09565b610e09565b34801561045c57600080fd5b5061031261046b366004613f89565b610e9f565b34801561047c57600080fd5b5061031261048b366004613d51565b611100565b34801561049c57600080fd5b5060fd546103b4565b3480156104b157600080fd5b506103b46104c0366004613fbd565b61115b565b3480156104d157600080fd5b506103126104e0366004613e52565b611187565b6103b46111a2565b3480156104f957600080fd5b50610312610508366004613fbd565b611343565b34801561051957600080fd5b506103b4610528366004613d51565b6114ef565b34801561053957600080fd5b5061031261054836600461406d565b611582565b34801561055957600080fd5b506103126115eb565b34801561056e57600080fd5b5061057761161a565b6040516102e991906140a1565b34801561059057600080fd5b5061037661059f366004613d51565b611ab1565b3480156105b057600080fd5b506103126105bf366004613d51565b611b28565b3480156105d057600080fd5b506103126105df366004613d51565b611b5d565b3480156105f057600080fd5b506103b46105ff366004613e35565b611bb8565b34801561061057600080fd5b50610312611c3f565b34801561062557600080fd5b5061031261063436600461428d565b611c7a565b34801561064557600080fd5b50610376610654366004613d51565b611ef3565b34801561066557600080fd5b50610161546001600160a01b0316610376565b34801561068457600080fd5b50610376611f24565b34801561069957600080fd5b506103126106a836600461406d565b611f34565b3480156106b957600080fd5b506103126106c8366004613d51565b611f77565b3480156106d957600080fd5b50610172546106e89060ff1681565b6040516102e991906143a9565b34801561070157600080fd5b50610349611fd2565b6103b46107183660046143d1565b611fe1565b34801561072957600080fd5b506103b4610738366004613e35565b6121f6565b34801561074957600080fd5b50610312612212565b34801561075e57600080fd5b5061031261076d366004614453565b612312565b34801561077e57600080fd5b5061078761231d565b6040516102e99190614481565b3480156107a057600080fd5b506103126107af3660046144c5565b612375565b3480156107c057600080fd5b506103496107cf366004613d51565b6123ad565b3480156107e057600080fd5b506103b46107ef366004613e35565b6001600160a01b0316600090815260ff602052604090205490565b34801561081657600080fd5b506103b4610825366004613e35565b61245a565b34801561083657600080fd5b5061031261084536600461406d565b612476565b34801561085657600080fd5b50610312610865366004613e09565b6124df565b34801561087657600080fd5b5060fe546103b4565b34801561088b57600080fd5b506102dd61089a366004613fbd565b61256b565b3480156108ab57600080fd5b506102dd6108ba366004613e35565b6001600160a01b0316600090815261016f602052604090205460ff1690565b3480156108e557600080fd5b506103126108f4366004613e35565b612599565b34801561090557600080fd5b5061031261091436600461406d565b612636565b600061092482612679565b92915050565b33610933611f24565b6001600160a01b0316146109625760405162461bcd60e51b815260040161095990614544565b60405180910390fd5b610999600182600581111561097957610979614393565b610983919061458f565b600581111561099457610994614393565b61269e565b6109e35760405162461bcd60e51b815260206004820152601b60248201527a53686f756c6420626520696e2070726576696f757320737461676560281b6044820152606401610959565b610172805482919060ff19166001836005811115610a0357610a03614393565b021790555050565b33610a14611f24565b6001600160a01b031614610a3a5760405162461bcd60e51b815260040161095990614544565b610a44600061269e565b610a605760405162461bcd60e51b8152600401610959906145a6565b61016d55565b606060658054610a75906145e7565b80601f0160208091040260200160405190810160405280929190818152602001828054610aa1906145e7565b8015610aee5780601f10610ac357610100808354040283529160200191610aee565b820191906000526020600020905b815481529060010190602001808311610ad157829003601f168201915b5050505050905090565b6000610b03826127ce565b610b645760405162461bcd60e51b815260206004820152602c60248201527f4552433732313a20617070726f76656420717565727920666f72206e6f6e657860448201526b34b9ba32b73a103a37b5b2b760a11b6064820152608401610959565b506000908152606960205260409020546001600160a01b031690565b6000610b8b82611ab1565b9050806001600160a01b0316836001600160a01b031603610bf85760405162461bcd60e51b815260206004820152602160248201527f4552433732313a20617070726f76616c20746f2063757272656e74206f776e656044820152603960f91b6064820152608401610959565b336001600160a01b0382161480610c145750610c14813361256b565b610c815760405162461bcd60e51b815260206004820152603860248201527f4552433732313a20617070726f76652063616c6c6572206973206e6f74206f776044820152771b995c881b9bdc88185c1c1c9bdd995908199bdc88185b1b60421b6064820152608401610959565b610c8b83836127eb565b505050565b6001600160a01b038116600090815260ff6020526040902054610cc55760405162461bcd60e51b815260040161095990614621565b6000610cd060fe5490565b610cda9047614667565b90506000610cf18383610cec866121f6565b612859565b905080600003610d135760405162461bcd60e51b81526004016109599061467f565b6001600160a01b0383166000908152610100602052604081208054839290610d3c908490614667565b925050819055508060fe6000828254610d559190614667565b90915550610d659050838261289f565b7fdf20fd1e76bc69d672e4814fafb2c449bba3a5369d8359adf9e05e6fde87b0568382604051610d96929190613ce4565b60405180910390a1505050565b610dad33826129b5565b610dc95760405162461bcd60e51b8152600401610959906146ca565b610c8b838383612a7e565b60c95460ca546001600160a01b0390911690600090606490610df6908561471b565b610e009190614750565b90509250929050565b6000610e1483611bb8565b8210610e765760405162461bcd60e51b815260206004820152602b60248201527f455243373231456e756d657261626c653a206f776e657220696e646578206f7560448201526a74206f6620626f756e647360a81b6064820152608401610959565b506001600160a01b03919091166000908152609760209081526040808320938352929052205490565b33610ea8611f24565b6001600160a01b031614610ece5760405162461bcd60e51b815260040161095990614544565b610ed8600061269e565b610f295760405162461bcd60e51b815260206004820152602e6024820152600080516020614abb83398151915260448201526d3733b2903a3432903230ba32b99760911b6064820152608401610959565b60038151610f379190614764565b15610f775760405162461bcd60e51b815260206004820152601060248201526f77726f6e67206461746520617272617960801b6044820152606401610959565b60005b600681101561100757600081815261017360205260409020548015610ff45760005b81811015610ff257600083815261017360205260409020805480610fc257610fc2614778565b60008281526020812060026000199093019283020181815560010155905580610fea8161478e565b915050610f9c565b505b5080610fff8161478e565b915050610f7a565b5060005b81518110156110e757604080518082019091526000808252602082015282611034836001614667565b81518110611044576110446147a7565b602090810291909101015181528261105d836002614667565b8151811061106d5761106d6147a7565b60200260200101518160200181815250506101736000848481518110611095576110956147a7565b602090810291909101810151825281810192909252604001600090812080546001818101835591835291839020845160029093020191825592909101519101556110e0600382614667565b905061100b565b5080516110fc90610174906020840190613c11565b5050565b33611109611f24565b6001600160a01b03161461112f5760405162461bcd60e51b815260040161095990614544565b611139600061269e565b6111555760405162461bcd60e51b8152600401610959906147bd565b61016b55565b6001600160a01b0391821660009081526101036020908152604080832093909416825291909152205490565b610c8b83838360405180602001604052806000815250612375565b6000600260cb54036111c65760405162461bcd60e51b8152600401610959906147fc565b600260cb553233146111ea5760405162461bcd60e51b815260040161095990614833565b6111f4600361269e565b61123c5760405162461bcd60e51b815260206004820152601960248201527829b0b632903430b9903737ba1039ba30b93a32b2103cb2ba1760391b6044820152606401610959565b61016c54609954106112605760405162461bcd60e51b81526004016109599061486a565b61016a543410156112835760405162461bcd60e51b815260040161095990614894565b61016d543360009081526101716020526040902054106112b55760405162461bcd60e51b8152600401610959906148c0565b6112c461016280546001019055565b60006112d06101625490565b604080516020808201808452600080845285815261017090925292902090519293506112fe92909190613c5c565b50336000908152610171602052604090205461131b906001614667565b33600081815261017160205260409020919091556113399082612c25565b9050600160cb5590565b6001600160a01b038116600090815260ff60205260409020546113785760405162461bcd60e51b815260040161095990614621565b60006113838361245a565b6040516370a0823160e01b81526001600160a01b038516906370a08231906113af903090600401613dd5565b602060405180830381865afa1580156113cc573d6000803e3d6000fd5b505050506040513d601f19601f820116820180604052508101906113f091906148f4565b6113fa9190614667565b9050600061140d8383610cec878761115b565b90508060000361142f5760405162461bcd60e51b81526004016109599061467f565b6001600160a01b0380851660009081526101036020908152604080832093871683529290529081208054839290611467908490614667565b90915550506001600160a01b0384166000908152610102602052604081208054839290611495908490614667565b909155506114a69050848483612c3f565b836001600160a01b03167f3be5b7a71e84ed12875d241991c70855ac5817d847039e17a9d895c1ceb0f18a84836040516114e1929190613ce4565b60405180910390a250505050565b60006114fa60995490565b821061155d5760405162461bcd60e51b815260206004820152602c60248201527f455243373231456e756d657261626c653a20676c6f62616c20696e646578206f60448201526b7574206f6620626f756e647360a01b6064820152608401610959565b60998281548110611570576115706147a7565b90600052602060002001549050919050565b3361158b611f24565b6001600160a01b0316146115b15760405162461bcd60e51b815260040161095990614544565b6115bb600061269e565b6115d75760405162461bcd60e51b8152600401610959906147bd565b80516110fc90610167906020840190613c5c565b60005b61017554811015611617576116056103dd82611ef3565b8061160f8161478e565b9150506115ee565b50565b61167760405180610160016040528060608152602001606081526020016060815260200160608152602001606081526020016060815260200160608152602001600081526020016000815260200160008152602001600081525090565b61016360405180610160016040529081600082018054611696906145e7565b80601f01602080910402602001604051908101604052809291908181526020018280546116c2906145e7565b801561170f5780601f106116e45761010080835404028352916020019161170f565b820191906000526020600020905b8154815290600101906020018083116116f257829003601f168201915b50505050508152602001600182018054611728906145e7565b80601f0160208091040260200160405190810160405280929190818152602001828054611754906145e7565b80156117a15780601f10611776576101008083540402835291602001916117a1565b820191906000526020600020905b81548152906001019060200180831161178457829003601f168201915b505050505081526020016002820180546117ba906145e7565b80601f01602080910402602001604051908101604052809291908181526020018280546117e6906145e7565b80156118335780601f1061180857610100808354040283529160200191611833565b820191906000526020600020905b81548152906001019060200180831161181657829003601f168201915b5050505050815260200160038201805461184c906145e7565b80601f0160208091040260200160405190810160405280929190818152602001828054611878906145e7565b80156118c55780601f1061189a576101008083540402835291602001916118c5565b820191906000526020600020905b8154815290600101906020018083116118a857829003601f168201915b505050505081526020016004820180546118de906145e7565b80601f016020809104026020016040519081016040528092919081815260200182805461190a906145e7565b80156119575780601f1061192c57610100808354040283529160200191611957565b820191906000526020600020905b81548152906001019060200180831161193a57829003601f168201915b50505050508152602001600582018054611970906145e7565b80601f016020809104026020016040519081016040528092919081815260200182805461199c906145e7565b80156119e95780601f106119be576101008083540402835291602001916119e9565b820191906000526020600020905b8154815290600101906020018083116119cc57829003601f168201915b50505050508152602001600682018054611a02906145e7565b80601f0160208091040260200160405190810160405280929190818152602001828054611a2e906145e7565b8015611a7b5780601f10611a5057610100808354040283529160200191611a7b565b820191906000526020600020905b815481529060010190602001808311611a5e57829003601f168201915b50505050508152602001600782015481526020016008820154815260200160098201548152602001600a82015481525050905090565b6000818152606760205260408120546001600160a01b0316806109245760405162461bcd60e51b815260206004820152602960248201527f4552433732313a206f776e657220717565727920666f72206e6f6e657869737460448201526832b73a103a37b5b2b760b91b6064820152608401610959565b33611b31611f24565b6001600160a01b031614611b575760405162461bcd60e51b815260040161095990614544565b61016e55565b33611b66611f24565b6001600160a01b031614611b8c5760405162461bcd60e51b815260040161095990614544565b611b96600061269e565b611bb25760405162461bcd60e51b8152600401610959906145a6565b61016c55565b60006001600160a01b038216611c235760405162461bcd60e51b815260206004820152602a60248201527f4552433732313a2062616c616e636520717565727920666f7220746865207a65604482015269726f206164647265737360b01b6064820152608401610959565b506001600160a01b031660009081526068602052604090205490565b33611c48611f24565b6001600160a01b031614611c6e5760405162461bcd60e51b815260040161095990614544565b611c786000612c95565b565b6000611c866001612ce8565b90508015611c9e576000805461ff0019166101001790555b611ca88686612d7c565b611cb28888612dad565b611cba612dde565b610172805460ff1916905561016180546001600160a01b0319166001600160a01b03861617905582518390600090611cf457611cf46147a7565b60200260200101516101636009018190555082600181518110611d1957611d196147a7565b60200260200101516101636008018190555082600281518110611d3e57611d3e6147a7565b60200260200101516101636007018190555082600381518110611d6357611d636147a7565b6020026020010151610163600a018190555081600081518110611d8857611d886147a7565b6020908102919091018101518051611da592610166920190613c5c565b5081600181518110611db957611db96147a7565b6020908102919091018101518051611dd692610165920190613c5c565b5081600281518110611dea57611dea6147a7565b6020908102919091018101518051611e0792610169920190613c5c565b5081600381518110611e1b57611e1b6147a7565b6020908102919091018101518051611e3892610167920190613c5c565b5081600481518110611e4c57611e4c6147a7565b6020908102919091018101518051611e6992610168920190613c5c565b508551611e7e90610163906020890190613c5c565b508451611e9390610164906020880190613c5c565b50875161017555611ea384612599565b8015611ee9576000805461ff0019169055604051600181527f7f26b83ff96e1f2b6a682f133852f6798a09c465da95921460cefb38474024989060200160405180910390a15b5050505050505050565b60006101018281548110611f0957611f096147a7565b6000918252602090912001546001600160a01b031692915050565b61012f546001600160a01b031690565b33611f3d611f24565b6001600160a01b031614611f635760405162461bcd60e51b815260040161095990614544565b80516110fc90610165906020840190613c5c565b33611f80611f24565b6001600160a01b031614611fa65760405162461bcd60e51b815260040161095990614544565b611fb0600061269e565b611fcc5760405162461bcd60e51b8152600401610959906147bd565b61016a55565b606060668054610a75906145e7565b6000600260cb54036120055760405162461bcd60e51b8152600401610959906147fc565b600260cb553233146120295760405162461bcd60e51b815260040161095990614833565b612033600261269e565b61207f5760405162461bcd60e51b815260206004820152601c60248201527f50726573616c6520686173206e6f742073746172746564207965742e000000006044820152606401610959565b61016c54609954106120a35760405162461bcd60e51b81526004016109599061486a565b6120ae338484612e0d565b806120ce575033600090815261016f602052604090205460ff1615156001145b6121115760405162461bcd60e51b8152602060048201526014602482015273139bdd081bdb881d1a19481dda1a5d195b1a5cdd60621b6044820152606401610959565b61016b543410156121345760405162461bcd60e51b815260040161095990614894565b61016d543360009081526101716020526040902054106121665760405162461bcd60e51b8152600401610959906148c0565b61217561016280546001019055565b60006121816101625490565b604080516020808201808452600080845285815261017090925292902090519293506121af92909190613c5c565b5033600090815261017160205260409020546121cc906001614667565b33600081815261017160205260409020919091556121ea9082612c25565b600160cb559392505050565b6001600160a01b03166000908152610100602052604090205490565b61221c600161269e565b6122615760405162461bcd60e51b815260206004820152601660248201527529b437bab6321031329034b7102ba61039ba30b3b29760511b6044820152606401610959565b33600090815261016f602052604090205460ff16156122bf5760405162461bcd60e51b815260206004820152601a60248201527914d95b99195c88185b1c9958591e481dda1a5d195b1a5cdd195960321b6044820152606401610959565b33600081815261016f602052604090819020805460ff19166001179055517faab7954e9d246b167ef88aeddad35209ca2489d95a8aeb59e288d9b19fae5a549161230891613dd5565b60405180910390a1565b6110fc338383612e81565b6060610174805480602002602001604051908101604052809291908181526020018280548015610aee57602002820191906000526020600020905b815481526020019060010190808311612358575050505050905090565b61237f33836129b5565b61239b5760405162461bcd60e51b8152600401610959906146ca565b6123a784848484612f4b565b50505050565b60606123b8826127ce565b6123fe5760405162461bcd60e51b81526020600482015260176024820152762a3434b99027232a103237b2b9b713ba1032bc34b9ba1760491b6044820152606401610959565b6000612408612f7e565b905060008151116124285760405180602001604052806000815250612453565b8061243284612f91565b60405160200161244392919061490d565b6040516020818303038152906040525b9392505050565b6001600160a01b03166000908152610102602052604090205490565b3361247f611f24565b6001600160a01b0316146124a55760405162461bcd60e51b815260040161095990614544565b6124af600061269e565b6124cb5760405162461bcd60e51b8152600401610959906147bd565b80516110fc90610168906020840190613c5c565b336124e8611f24565b6001600160a01b03161461250e5760405162461bcd60e51b815260040161095990614544565b60c980546001600160a01b0319166001600160a01b03841617905560ca8190557f37b261884b0718cab93d62e6fe3bef710b5a1da58190a859f842d6e8b2b0b70b828260405161255f929190613ce4565b60405180910390a15050565b6001600160a01b039182166000908152606a6020908152604080832093909416825291909152205460ff1690565b336125a2611f24565b6001600160a01b0316146125c85760405162461bcd60e51b815260040161095990614544565b6001600160a01b03811661262d5760405162461bcd60e51b815260206004820152602660248201527f4f776e61626c653a206e6577206f776e657220697320746865207a65726f206160448201526564647265737360d01b6064820152608401610959565b61161781612c95565b3361263f611f24565b6001600160a01b0316146126655760405162461bcd60e51b815260040161095990614544565b80516110fc90610166906020840190613c5c565b60006001600160e01b0319821663780e9d6360e01b1480610924575061092482613091565b60008160058111156126b2576126b2614393565b6101725460ff1660058111156126ca576126ca614393565b036126d757506001919050565b60005b61017360008460058111156126f1576126f1614393565b81526020810191909152604001600020548110156127c557610173600084600581111561272057612720614393565b8152602001908152602001600020818154811061273f5761273f6147a7565b906000526020600020906002020160000154421180156127a55750610173600084600581111561277157612771614393565b81526020019081526020016000208181548110612790576127906147a7565b90600052602060002090600202016001015442105b156127b35750600192915050565b806127bd8161478e565b9150506126da565b50600092915050565b6000908152606760205260409020546001600160a01b0316151590565b600081815260696020526040902080546001600160a01b0319166001600160a01b038416908117909155819061282082611ab1565b6001600160a01b03167f8c5be1e5ebec7d5bd14f71427d1e84f3dd0314c0f7b2291e5b200ac8c7c3b92560405160405180910390a45050565b60fd546001600160a01b038416600090815260ff602052604081205490918391612883908661471b565b61288d9190614750565b612897919061458f565b949350505050565b804710156128ef5760405162461bcd60e51b815260206004820152601d60248201527f416464726573733a20696e73756666696369656e742062616c616e63650000006044820152606401610959565b6000826001600160a01b03168260405160006040518083038185875af1925050503d806000811461293c576040519150601f19603f3d011682016040523d82523d6000602084013e612941565b606091505b5050905080610c8b5760405162461bcd60e51b815260206004820152603a60248201527f416464726573733a20756e61626c6520746f2073656e642076616c75652c20726044820152791958da5c1a595b9d081b585e481a185d99481c995d995c9d195960321b6064820152608401610959565b60006129c0826127ce565b612a215760405162461bcd60e51b815260206004820152602c60248201527f4552433732313a206f70657261746f7220717565727920666f72206e6f6e657860448201526b34b9ba32b73a103a37b5b2b760a11b6064820152608401610959565b6000612a2c83611ab1565b9050806001600160a01b0316846001600160a01b03161480612a535750612a53818561256b565b806128975750836001600160a01b0316612a6c84610af8565b6001600160a01b031614949350505050565b826001600160a01b0316612a9182611ab1565b6001600160a01b031614612af55760405162461bcd60e51b815260206004820152602560248201527f4552433732313a207472616e736665722066726f6d20696e636f72726563742060448201526437bbb732b960d91b6064820152608401610959565b6001600160a01b038216612b575760405162461bcd60e51b8152602060048201526024808201527f4552433732313a207472616e7366657220746f20746865207a65726f206164646044820152637265737360e01b6064820152608401610959565b612b628383836130e1565b612b6d6000826127eb565b6001600160a01b0383166000908152606860205260408120805460019290612b9690849061458f565b90915550506001600160a01b0382166000908152606860205260408120805460019290612bc4908490614667565b909155505060008181526067602052604080822080546001600160a01b0319166001600160a01b0386811691821790925591518493918716917fddf252ad1be2c89b69c2b068fc378daa952ba7f163c4a11628f55a4df523b3ef91a4505050565b6110fc828260405180602001604052806000815250613199565b610c8b8363a9059cbb60e01b8484604051602401612c5e929190613ce4565b60408051601f198184030181529190526020810180516001600160e01b03166001600160e01b0319909316929092179091526131cc565b61012f80546001600160a01b038381166001600160a01b0319831681179093556040519116919082907f8be0079c531659141344cd1fd0a4f28419497f9722a3daafe3b4186f6b6457e090600090a35050565b60008054610100900460ff1615612d36578160ff166001148015612d125750612d103061329e565b155b612d2e5760405162461bcd60e51b81526004016109599061493c565b506000919050565b60005460ff808416911610612d5d5760405162461bcd60e51b81526004016109599061493c565b506000805460ff191660ff92909216919091179055600190565b919050565b600054610100900460ff16612da35760405162461bcd60e51b81526004016109599061498a565b6110fc82826132ad565b600054610100900460ff16612dd45760405162461bcd60e51b81526004016109599061498a565b6110fc82826132fb565b600054610100900460ff16612e055760405162461bcd60e51b81526004016109599061498a565b611c78613436565b60006128978383808060200260200160405190810160405280939291908181526020018383602002808284376000920191909152505061016e546040516001600160601b031960608b901b166020820152909250603401905060405160208183030381529060405280519060200120613466565b816001600160a01b0316836001600160a01b031603612ede5760405162461bcd60e51b815260206004820152601960248201527822a9219b99189d1030b8383937bb32903a379031b0b63632b960391b6044820152606401610959565b6001600160a01b038381166000818152606a6020908152604080832094871680845294825291829020805460ff191686151590811790915591519182527f17307eab39ab6107e8899845ad3d59bd9653f200f220920489ca2b5937696c31910160405180910390a3505050565b612f56848484612a7e565b612f628484848461347c565b6123a75760405162461bcd60e51b8152600401610959906149d5565b60606101636004018054610a75906145e7565b606081600003612fb85750506040805180820190915260018152600360fc1b602082015290565b8160005b8115612fe25780612fcc8161478e565b9150612fdb9050600a83614750565b9150612fbc565b6000816001600160401b03811115612ffc57612ffc613eb5565b6040519080825280601f01601f191660200182016040528015613026576020820181803683370190505b5090505b84156128975761303b60018361458f565b9150613048600a86614764565b613053906030614667565b60f81b818381518110613068576130686147a7565b60200101906001600160f81b031916908160001a90535061308a600a86614750565b945061302a565b60006001600160e01b031982166380ac58cd60e01b14806130c257506001600160e01b03198216635b5e139f60e01b145b8061092457506301ffc9a760e01b6001600160e01b0319831614610924565b6001600160a01b03831661313c5761313781609980546000838152609a60205260408120829055600182018355919091527f72a152ddfb8e864297c917af52ea6c1c68aead0fee1a62673fcc7e0c94979d000155565b61315f565b816001600160a01b0316836001600160a01b03161461315f5761315f8382613584565b6001600160a01b03821661317657610c8b81613621565b826001600160a01b0316826001600160a01b031614610c8b57610c8b82826136d0565b6131a38383613714565b6131b0600084848461347c565b610c8b5760405162461bcd60e51b8152600401610959906149d5565b6000613221826040518060400160405280602081526020017f5361666545524332303a206c6f772d6c6576656c2063616c6c206661696c6564815250856001600160a01b03166138539092919063ffffffff16565b805190915015610c8b578080602001905181019061323f9190614a27565b610c8b5760405162461bcd60e51b815260206004820152602a60248201527f5361666545524332303a204552433230206f7065726174696f6e20646964206e6044820152691bdd081cdd58d8d9595960b21b6064820152608401610959565b6001600160a01b03163b151590565b600054610100900460ff166132d45760405162461bcd60e51b81526004016109599061498a565b81516132e7906065906020850190613c5c565b508051610c8b906066906020840190613c5c565b600054610100900460ff166133225760405162461bcd60e51b81526004016109599061498a565b805182511461338e5760405162461bcd60e51b815260206004820152603260248201527f5061796d656e7453706c69747465723a2070617965657320616e6420736861726044820152710cae640d8cadccee8d040dad2e6dac2e8c6d60731b6064820152608401610959565b60008251116133dc5760405162461bcd60e51b815260206004820152601a6024820152795061796d656e7453706c69747465723a206e6f2070617965657360301b6044820152606401610959565b60005b8251811015610c8b576134248382815181106133fd576133fd6147a7565b6020026020010151838381518110613417576134176147a7565b6020026020010151613862565b8061342e8161478e565b9150506133df565b600054610100900460ff1661345d5760405162461bcd60e51b81526004016109599061498a565b611c7833612c95565b6000826134738584613a35565b14949350505050565b6000613490846001600160a01b031661329e565b1561357957604051630a85bd0160e11b81526001600160a01b0385169063150b7a02906134c7903390899088908890600401614a44565b6020604051808303816000875af1925050508015613502575060408051601f3d908101601f191682019092526134ff91810190614a81565b60015b61355f573d808015613530576040519150601f19603f3d011682016040523d82523d6000602084013e613535565b606091505b5080516000036135575760405162461bcd60e51b8152600401610959906149d5565b805181602001fd5b6001600160e01b031916630a85bd0160e11b149050612897565b506001949350505050565b6000600161359184611bb8565b61359b919061458f565b6000838152609860205260409020549091508082146135ee576001600160a01b03841660009081526097602090815260408083208584528252808320548484528184208190558352609890915290208190555b5060009182526098602090815260408084208490556001600160a01b039094168352609781528383209183525290812055565b6099546000906136339060019061458f565b6000838152609a60205260408120546099805493945090928490811061365b5761365b6147a7565b90600052602060002001549050806099838154811061367c5761367c6147a7565b6000918252602080832090910192909255828152609a909152604080822084905585825281205560998054806136b4576136b4614778565b6001900381819060005260206000200160009055905550505050565b60006136db83611bb8565b6001600160a01b039093166000908152609760209081526040808320868452825280832085905593825260989052919091209190915550565b6001600160a01b03821661376a5760405162461bcd60e51b815260206004820181905260248201527f4552433732313a206d696e7420746f20746865207a65726f20616464726573736044820152606401610959565b613773816127ce565b156137c05760405162461bcd60e51b815260206004820152601c60248201527f4552433732313a20746f6b656e20616c7265616479206d696e746564000000006044820152606401610959565b6137cc600083836130e1565b6001600160a01b03821660009081526068602052604081208054600192906137f5908490614667565b909155505060008181526067602052604080822080546001600160a01b0319166001600160a01b03861690811790915590518392907fddf252ad1be2c89b69c2b068fc378daa952ba7f163c4a11628f55a4df523b3ef908290a45050565b60606128978484600085613aa9565b6001600160a01b0382166138cd5760405162461bcd60e51b815260206004820152602c60248201527f5061796d656e7453706c69747465723a206163636f756e74206973207468652060448201526b7a65726f206164647265737360a01b6064820152608401610959565b6000811161391d5760405162461bcd60e51b815260206004820152601d60248201527f5061796d656e7453706c69747465723a207368617265732061726520300000006044820152606401610959565b6001600160a01b038216600090815260ff6020526040902054156139975760405162461bcd60e51b815260206004820152602b60248201527f5061796d656e7453706c69747465723a206163636f756e7420616c726561647960448201526a206861732073686172657360a81b6064820152608401610959565b6101018054600181019091557f109ea3cebb188b9c1b9fc5bb3920be60dfdc8699098dff92f3d80daaca7476890180546001600160a01b0319166001600160a01b038416908117909155600090815260ff6020526040902081905560fd54613a00908290614667565b60fd556040517f40c340f65e17194d14ddddb073d3c9f888e3cb52b5aae0c6c7706b4fbc905fac9061255f9084908490613ce4565b600081815b8451811015613aa1576000858281518110613a5757613a576147a7565b60200260200101519050808311613a7d5760008381526020829052604090209250613a8e565b600081815260208490526040902092505b5080613a998161478e565b915050613a3a565b509392505050565b606082471015613b0a5760405162461bcd60e51b815260206004820152602660248201527f416464726573733a20696e73756666696369656e742062616c616e636520666f6044820152651c8818d85b1b60d21b6064820152608401610959565b613b138561329e565b613b5f5760405162461bcd60e51b815260206004820152601d60248201527f416464726573733a2063616c6c20746f206e6f6e2d636f6e74726163740000006044820152606401610959565b600080866001600160a01b03168587604051613b7b9190614a9e565b60006040518083038185875af1925050503d8060008114613bb8576040519150601f19603f3d011682016040523d82523d6000602084013e613bbd565b606091505b5091509150613bcd828286613bd8565b979650505050505050565b60608315613be7575081612453565b825115613bf75782518084602001fd5b8160405162461bcd60e51b81526004016109599190613dc2565b828054828255906000526020600020908101928215613c4c579160200282015b82811115613c4c578251825591602001919060010190613c31565b50613c58929150613ccf565b5090565b828054613c68906145e7565b90600052602060002090601f016020900481019282613c8a5760008555613c4c565b82601f10613ca357805160ff1916838001178555613c4c565b82800160010185558215613c4c5791820182811115613c4c578251825591602001919060010190613c31565b5b80821115613c585760008155600101613cd0565b6001600160a01b03929092168252602082015260400190565b6001600160e01b03198116811461161757600080fd5b600060208284031215613d2557600080fd5b813561245381613cfd565b600060208284031215613d4257600080fd5b81356006811061245357600080fd5b600060208284031215613d6357600080fd5b5035919050565b60005b83811015613d85578181015183820152602001613d6d565b838111156123a75750506000910152565b60008151808452613dae816020860160208601613d6a565b601f01601f19169290920160200192915050565b6020815260006124536020830184613d96565b6001600160a01b0391909116815260200190565b6001600160a01b038116811461161757600080fd5b8035612d7781613de9565b60008060408385031215613e1c57600080fd5b8235613e2781613de9565b946020939093013593505050565b600060208284031215613e4757600080fd5b813561245381613de9565b600080600060608486031215613e6757600080fd5b8335613e7281613de9565b92506020840135613e8281613de9565b929592945050506040919091013590565b60008060408385031215613ea657600080fd5b50508035926020909101359150565b634e487b7160e01b600052604160045260246000fd5b604051601f8201601f191681016001600160401b0381118282101715613ef357613ef3613eb5565b604052919050565b60006001600160401b03821115613f1457613f14613eb5565b5060051b60200190565b600082601f830112613f2f57600080fd5b81356020613f44613f3f83613efb565b613ecb565b82815260059290921b84018101918181019086841115613f6357600080fd5b8286015b84811015613f7e5780358352918301918301613f67565b509695505050505050565b600060208284031215613f9b57600080fd5b81356001600160401b03811115613fb157600080fd5b61289784828501613f1e565b60008060408385031215613fd057600080fd5b8235613fdb81613de9565b91506020830135613feb81613de9565b809150509250929050565b60006001600160401b0383111561400f5761400f613eb5565b614022601f8401601f1916602001613ecb565b905082815283838301111561403657600080fd5b828260208301376000602084830101529392505050565b600082601f83011261405e57600080fd5b61245383833560208501613ff6565b60006020828403121561407f57600080fd5b81356001600160401b0381111561409557600080fd5b6128978482850161404d565b60208152600082516101608060208501526140c0610180850183613d96565b91506020850151601f19808685030160408701526140de8483613d96565b935060408701519150808685030160608701526140fb8483613d96565b935060608701519150808685030160808701526141188483613d96565b935060808701519150808685030160a08701526141358483613d96565b935060a08701519150808685030160c08701526141528483613d96565b935060c08701519150808685030160e0870152506141708382613d96565b60e0870151610100878101919091528701516101208088019190915287015161014080880191909152909601519190940152509192915050565b600082601f8301126141bb57600080fd5b813560206141cb613f3f83613efb565b82815260059290921b840181019181810190868411156141ea57600080fd5b8286015b84811015613f7e57803561420181613de9565b83529183019183016141ee565b600082601f83011261421f57600080fd5b8135602061422f613f3f83613efb565b82815260059290921b8401810191818101908684111561424e57600080fd5b8286015b84811015613f7e5780356001600160401b038111156142715760008081fd5b61427f8986838b010161404d565b845250918301918301614252565b600080600080600080600060e0888a0312156142a857600080fd5b87356001600160401b03808211156142bf57600080fd5b6142cb8b838c016141aa565b985060208a01359150808211156142e157600080fd5b6142ed8b838c01613f1e565b975060408a013591508082111561430357600080fd5b61430f8b838c0161404d565b965060608a013591508082111561432557600080fd5b6143318b838c0161404d565b955061433f60808b01613dfe565b945060a08a013591508082111561435557600080fd5b6143618b838c01613f1e565b935060c08a013591508082111561437757600080fd5b506143848a828b0161420e565b91505092959891949750929550565b634e487b7160e01b600052602160045260246000fd5b60208101600683106143cb57634e487b7160e01b600052602160045260246000fd5b91905290565b600080602083850312156143e457600080fd5b82356001600160401b03808211156143fb57600080fd5b818501915085601f83011261440f57600080fd5b81358181111561441e57600080fd5b8660208260051b850101111561443357600080fd5b60209290920196919550909350505050565b801515811461161757600080fd5b6000806040838503121561446657600080fd5b823561447181613de9565b91506020830135613feb81614445565b6020808252825182820181905260009190848201906040850190845b818110156144b95783518352928401929184019160010161449d565b50909695505050505050565b600080600080608085870312156144db57600080fd5b84356144e681613de9565b935060208501356144f681613de9565b92506040850135915060608501356001600160401b0381111561451857600080fd5b8501601f8101871361452957600080fd5b61453887823560208401613ff6565b91505092959194509250565b6020808252818101527f4f776e61626c653a2063616c6c6572206973206e6f7420746865206f776e6572604082015260600190565b634e487b7160e01b600052601160045260246000fd5b6000828210156145a1576145a1614579565b500390565b6020808252603390820152600080516020614abb8339815191526040820152723733b2903a34329036b0bc1039bab838363c9760691b606082015260800190565b600181811c908216806145fb57607f821691505b60208210810361461b57634e487b7160e01b600052602260045260246000fd5b50919050565b60208082526026908201527f5061796d656e7453706c69747465723a206163636f756e7420686173206e6f2060408201526573686172657360d01b606082015260800190565b6000821982111561467a5761467a614579565b500190565b6020808252602b908201527f5061796d656e7453706c69747465723a206163636f756e74206973206e6f742060408201526a191d59481c185e5b595b9d60aa1b606082015260800190565b60208082526031908201527f4552433732313a207472616e736665722063616c6c6572206973206e6f74206f6040820152701ddb995c881b9bdc88185c1c1c9bdd9959607a1b606082015260800190565b600081600019048311821515161561473557614735614579565b500290565b634e487b7160e01b600052601260045260246000fd5b60008261475f5761475f61473a565b500490565b6000826147735761477361473a565b500690565b634e487b7160e01b600052603160045260246000fd5b6000600182016147a0576147a0614579565b5060010190565b634e487b7160e01b600052603260045260246000fd5b6020808252603190820152600080516020614abb8339815191526040820152703733b2903a3432903130b9b2902aa9249760791b606082015260800190565b6020808252601f908201527f5265656e7472616e637947756172643a207265656e7472616e742063616c6c00604082015260600190565b6020808252601e908201527f5468652063616c6c657220697320616e6f7468657220636f6e74726163740000604082015260600190565b60208082526010908201526f105b1b0813919508185c99481cdbdb1960821b604082015260600190565b6020808252601290820152712737ba1032b737bab3b43a10333ab732399760711b604082015260600190565b6020808252601a908201527913585e081b9d5b58995c881bd9881b5a5b9d081c995858da195960321b604082015260600190565b60006020828403121561490657600080fd5b5051919050565b6000835161491f818460208801613d6a565b835190830190614933818360208801613d6a565b01949350505050565b6020808252602e908201527f496e697469616c697a61626c653a20636f6e747261637420697320616c72656160408201526d191e481a5b9a5d1a585b1a5e995960921b606082015260800190565b6020808252602b908201527f496e697469616c697a61626c653a20636f6e7472616374206973206e6f74206960408201526a6e697469616c697a696e6760a81b606082015260800190565b60208082526032908201527f4552433732313a207472616e7366657220746f206e6f6e20455243373231526560408201527131b2b4bb32b91034b6b83632b6b2b73a32b960711b606082015260800190565b600060208284031215614a3957600080fd5b815161245381614445565b6001600160a01b0385811682528416602082015260408101839052608060608201819052600090614a7790830184613d96565b9695505050505050565b600060208284031215614a9357600080fd5b815161245381613cfd565b60008251614ab0818460208701613d6a565b919091019291505056fe53686f756c6420626520696e20436f6e66696720737461676520746f20636861a2646970667358221220e8ed2ed1225fe5745500eb767ad5499f28d869a19bf7265de529f3c6f35a558264736f6c634300080e0033",
  "immutableReferences": {},
  "source": "// SPDX-License-Identifier: MIT\r\npragma solidity 0.8.14;\r\n\r\nimport \"@openzeppelin/contracts-upgradeable/token/ERC721/ERC721Upgradeable.sol\";\r\nimport \"@openzeppelin/contracts-upgradeable/token/ERC721/extensions/ERC721EnumerableUpgradeable.sol\";\r\nimport \"@openzeppelin/contracts-upgradeable/utils/CountersUpgradeable.sol\";\r\nimport \"@openzeppelin/contracts-upgradeable/security/ReentrancyGuardUpgradeable.sol\";\r\nimport \"@openzeppelin/contracts-upgradeable/utils/cryptography/MerkleProofUpgradeable.sol\";\r\nimport \"@openzeppelin/contracts-upgradeable/finance/PaymentSplitterUpgradeable.sol\";\r\nimport \"@openzeppelin/contracts-upgradeable/access/OwnableUpgradeable.sol\";\r\nimport \"@openzeppelin/contracts-upgradeable/proxy/utils/Initializable.sol\";\r\nimport \"./eip/2981/ERC2981Collection.sol\";\r\n\r\n/** \r\n  * @title Mint It NFT collection\r\n  * @author Geoffrey B. / Christophe B.\r\n  * @notice NFT collection of an artist\r\n  */\r\ncontract MintitNFTCollection is Initializable, ERC721EnumerableUpgradeable, ERC2981Collection, ReentrancyGuardUpgradeable, PaymentSplitterUpgradeable, OwnableUpgradeable {\r\n    using StringsUpgradeable for uint256;\r\n    using CountersUpgradeable for CountersUpgradeable.Counter;\r\n    address artistAddress;\r\n    CountersUpgradeable.Counter private _tokenIds;\r\n\r\n    struct Infos {\r\n        string name;\r\n        string symbol;\r\n        string description;\r\n        string banner;\r\n        string baseURI;\r\n        string baseExtension;\r\n        string category;\r\n        uint price;\r\n        uint presalePrice;\r\n        uint maxSupply;\r\n        uint maxPerWallet;\r\n    }\r\n\r\n    Infos private collectionInfo;\r\n\r\n   // merkle tree to check if address is in the private whitelist\r\n    bytes32 private privateWL;\r\n\r\n   // mapping to check if address is in the public whitelist\r\n    mapping(address => bool) private publicWL;\r\n\r\n    struct Arts{\r\n      string description;\r\n    }\r\n    mapping(uint => Arts) private arts;\r\n\r\n    mapping(address => uint) private nbWallet;\r\n\r\n    // The different stages of selling the collection\r\n    enum Stages {\r\n        Config,\r\n        PublicWhitelist,\r\n        Presale,\r\n        Sale,\r\n        SoldOut,\r\n        Reveal\r\n    }\r\n\r\n    struct Interval{\r\n        uint start;\r\n        uint end;\r\n    }\r\n\r\n    Stages public sellingStage;\r\n    mapping(uint => Interval[]) private calendar;\r\n    uint[] private calendarArray;\r\n    uint private teamLength;\r\n\r\n    /// @notice Event emitted each time a user get whitelisted\r\n    event Whitelisted(address _userAddress);\r\n    /// @notice Event emitted after royalties are updated\r\n    event UpdatedRoyalties(address newRoyaltyAddress, uint256 newPercentage);\r\n\r\n    /**\r\n      * @notice Constructor parameters of ERC721. Params will be set by Collection Manager\r\n      */\r\n    function initialize(address[] memory _payees, uint256[] memory _shares,\r\n                string memory name_, string memory symbol_, address _artist,\r\n                uint256[] memory _intParams, string[] memory _strParams) public initializer {\r\n        __ERC721_init(name_, symbol_);\r\n        __PaymentSplitter_init(_payees, _shares);\r\n        __Ownable_init();\r\n        sellingStage = Stages.Config;\r\n        artistAddress = _artist;\r\n        collectionInfo.maxSupply = _intParams[0];\r\n        collectionInfo.presalePrice = _intParams[1];\r\n        collectionInfo.price = _intParams[2];\r\n        collectionInfo.maxPerWallet = _intParams[3];\r\n        collectionInfo.banner = _strParams[0];\r\n        collectionInfo.description = _strParams[1];\r\n        collectionInfo.category = _strParams[2];\r\n        collectionInfo.baseURI = _strParams[3];\r\n        collectionInfo.baseExtension = _strParams[4];\r\n        collectionInfo.name = name_;\r\n        collectionInfo.symbol = symbol_;\r\n        teamLength = _payees.length;\r\n        transferOwnership(_artist);\r\n   }\r\n\r\n    /**\r\n     * @dev See {IERC165-supportsInterface}.\r\n     */\r\n    function supportsInterface(bytes4 interfaceId) public view virtual override(ERC721EnumerableUpgradeable, IERC165) returns (bool) {\r\n        return ERC721EnumerableUpgradeable.supportsInterface(interfaceId);\r\n    }\r\n\r\n    /** \r\n    * @notice Allows to set dates for each sales\r\n    *\r\n    * @param dates Array containing the startand end dates of all stages\r\n   **/\r\n    function setCalendar(uint[] memory dates) external onlyOwner {\r\n        require(isStage(Stages.Config), \"Should be in Config stage to change the dates.\");\r\n        require (dates.length % 3 == 0, \"wrong date array\");\r\n        for (uint i = 0; i < 6; i++) {\r\n            uint length = calendar[i].length;\r\n            if (length > 0) {\r\n                for (uint j = 0; j < length; j++)\r\n                    calendar[i].pop();\r\n            }\r\n        }\r\n        for (uint i = 0; i < dates.length; i+=3) {\r\n            Interval memory interval;\r\n            interval.start = dates[i+1];\r\n            interval.end = dates[i+2];\r\n            calendar[dates[i]].push(interval);\r\n        }\r\n        calendarArray = dates;\r\n    }\r\n\r\n    /** \r\n    * @notice Returns Mint stages calendar array\r\n    *\r\n    * @return uint[] table containing calendar infromation\r\n    **/\r\n    function getCalendar() public view returns(uint[] memory) {\r\n        return calendarArray;\r\n    }\r\n\r\n    /** \r\n    * @notice Returns the adress of the artist of the collection\r\n    *\r\n    * @return address of the artist\r\n    **/\r\n    function getArtistAddress() public view returns(address) {\r\n        return artistAddress;\r\n    }\r\n\r\n    /** \r\n    * @notice Allows to change the banner\r\n    **/\r\n    function setBanner(string memory _banner) external onlyOwner {\r\n        collectionInfo.banner = _banner;\r\n    }\r\n\r\n    /** \r\n    * @notice Allows to change the description\r\n    **/\r\n    function setDescription(string memory _description) external onlyOwner {\r\n        collectionInfo.description = _description;\r\n    }\r\n\r\n    /** \r\n    * @notice Allows to change the max supply during the config stage\r\n    **/\r\n    function setMaxSupply(uint _amount) external onlyOwner {\r\n        require(isStage(Stages.Config), \"Should be in Config stage to change the max supply.\");\r\n        collectionInfo.maxSupply = _amount;\r\n    }\r\n\r\n    /** \r\n    * @notice Allows to change the max supply during the config stage\r\n    **/\r\n    function setMaxNbPerWallet(uint _amount) external onlyOwner {\r\n        require(isStage(Stages.Config), \"Should be in Config stage to change the max supply.\");\r\n        collectionInfo.maxPerWallet = _amount;\r\n    }\r\n    /** \r\n    * @notice Allows to change the max supply during the config stage\r\n    **/\r\n    function setBaseURI(string memory __baseURI) external onlyOwner {\r\n        require(isStage(Stages.Config), \"Should be in Config stage to change the base URI.\");\r\n        collectionInfo.baseURI = __baseURI;\r\n    }\r\n\r\n    /** \r\n    * @notice Allows to change the max supply during the config stage\r\n    **/\r\n    function setBaseExtension(string memory _baseExtension) external onlyOwner {\r\n        require(isStage(Stages.Config), \"Should be in Config stage to change the base URI.\");\r\n        collectionInfo.baseExtension = _baseExtension;\r\n    }\r\n\r\n    /** \r\n    * @notice Allows to change the price of a NFT during the config stage\r\n    **/\r\n    function setPrice(uint _price) external onlyOwner {\r\n        require(isStage(Stages.Config), \"Should be in Config stage to change the base URI.\");\r\n        collectionInfo.price = _price;\r\n    }\r\n\r\n    /** \r\n    * @notice Allows to change the price of a NFT during the config stage\r\n    **/\r\n    function setPresalePrice(uint _price) external onlyOwner {\r\n        require(isStage(Stages.Config), \"Should be in Config stage to change the base URI.\");\r\n        collectionInfo.presalePrice = _price;\r\n    }\r\n\r\n    /**\r\n    * @notice Set a new adresses white list \r\n    *\r\n    * @param _newWhiteList The new Merkle Root\r\n    **/\r\n    function setPrivateWhitelist(bytes32 _newWhiteList) external onlyOwner {\r\n        privateWL = _newWhiteList;\r\n    }\r\n\r\n    /**\r\n    * @notice Add sender adress to the public white list \r\n    *\r\n    **/\r\n    function addPublicWhitelist() public {\r\n        require(isStage(Stages.PublicWhitelist), \"Should be in WL stage.\");\r\n        require(publicWL[msg.sender] == false, \"Sender already whitelisted\");\r\n        publicWL[msg.sender] = true;\r\n        emit Whitelisted(msg.sender);\r\n    } \r\n\r\n    /** \r\n    * @notice Returns true if a leaf can be proved to be a part of a Merkle tree defined by root\r\n    *\r\n    * @param account Account to verify if private whitelisted\r\n    * @param proof The Merkle Proof\r\n    *\r\n    * @return True if a account can be proved to be a part of the whiteList merkle tree\r\n    **/\r\n    function isPrivateWhiteListed(address account, bytes32[] calldata proof) internal view returns(bool) {\r\n        return MerkleProofUpgradeable.verify(proof, privateWL, keccak256(abi.encodePacked(account)));\r\n    }\r\n\r\n    /** \r\n    * @notice Returns true if a address is whitelisted\r\n    *\r\n    * @param account Account to verify if public whitelisted\r\n    *\r\n    * @return True if a account is whitelisted for public sale\r\n    **/\r\n    function isPublicWhiteListed(address account) public view returns(bool) {\r\n        return publicWL[account];\r\n    }\r\n\r\n    /**\r\n    * @notice Return URI of the NFTs when revealed\r\n    *\r\n    * @return The URI of the NFTs when revealed\r\n    **/\r\n    function _baseURI() internal view virtual override returns (string memory) {\r\n        return collectionInfo.baseURI;\r\n    }\r\n\r\n    /** \r\n    * @notice check if the mint phase is the one provided in parameter\r\n    *\r\n    * @return a boolean\r\n    **/\r\n    function isStage(Stages stage) internal view returns (bool) {\r\n        if (sellingStage == stage)\r\n            return true;\r\n\r\n        for (uint i=0; i<calendar[uint(stage)].length;i++) {\r\n            if (block.timestamp > calendar[uint(stage)][i].start && block.timestamp < calendar[uint(stage)][i].end)\r\n                return true;\r\n        }\r\n        return false;\r\n    }\r\n\r\n    /** \r\n    * @notice Allows to get details information of the NFT collection\r\n    *\r\n    * @return The infos of NFT collection\r\n    **/\r\n    function getCollectionInfos() external view returns (Infos memory) {\r\n        return (collectionInfo);\r\n    }\r\n\r\n    /** \r\n    * @notice Allows to change the sellinStage value\r\n    **/\r\n    function setUpStage(Stages stage) external onlyOwner {\r\n        require(isStage(Stages(uint(stage) - 1)), \"Should be in previous stage\");\r\n        sellingStage = stage;\r\n    }\r\n\r\n    /**\r\n    * @notice Allows to mint NFTs\r\n    *\r\n    * @return newItemId The Id of the minted NFT\r\n    **/\r\n    function PresaleMintArt(bytes32[] calldata _proof) external payable nonReentrant callerIsUser returns (uint256)\r\n    {\r\n        require(isStage(Stages.Presale), \"Presale has not started yet.\");\r\n        require(totalSupply() < collectionInfo.maxSupply, \"All NFT are sold\");\r\n        require((isPrivateWhiteListed(msg.sender, _proof) || publicWL[msg.sender] == true), \"Not on the whitelist\");\r\n        require(msg.value >= collectionInfo.presalePrice, \"Not enought funds.\");\r\n        require(nbWallet[msg.sender] < collectionInfo.maxPerWallet, \"Max number of mint reached\");\r\n        _tokenIds.increment();\r\n        uint256 newItemId = _tokenIds.current();\r\n        arts[newItemId].description = \"\";\r\n        nbWallet[msg.sender] = nbWallet[msg.sender] + 1;\r\n        _safeMint(msg.sender, newItemId);\r\n\r\n        return newItemId;\r\n    }\r\n    /**\r\n    * @notice Allows to mint NFTs\r\n    *\r\n    * @return newItemId The Id of the minted NFT\r\n    **/\r\n    function MintArt() external payable nonReentrant callerIsUser returns (uint256)\r\n    {\r\n        require(isStage(Stages.Sale), \"Sale has not started yet.\");\r\n        require(totalSupply() < collectionInfo.maxSupply, \"All NFT are sold\");\r\n        require(msg.value >= collectionInfo.price, \"Not enought funds.\");\r\n        require(nbWallet[msg.sender] < collectionInfo.maxPerWallet, \"Max number of mint reached\");\r\n        _tokenIds.increment();\r\n        uint256 newItemId = _tokenIds.current();\r\n        arts[newItemId].description = \"\";\r\n        nbWallet[msg.sender] = nbWallet[msg.sender] + 1;\r\n        _safeMint(msg.sender, newItemId);\r\n\r\n        return newItemId;\r\n    }\r\n\r\n    /**\r\n    * @notice Allows to get the complete URI of a specific NFT by his ID\r\n    *\r\n    * @param _nftId The id of the NFT\r\n    *\r\n    * @return The token URI of the NFT which has _nftId Id\r\n    **/\r\n    function tokenURI(uint _nftId) public view override(ERC721Upgradeable) returns (string memory) {\r\n        require(_exists(_nftId), \"This NFT doesn't exist.\");\r\n        \r\n        string memory currentBaseURI = _baseURI();\r\n        return \r\n            bytes(currentBaseURI).length > 0 \r\n            ? string(abi.encodePacked(currentBaseURI, _nftId.toString()))\r\n            : \"\";\r\n    }\r\n\r\n    /**\r\n    * @notice Send shares to all payee\r\n    **/\r\n    function releaseAll() external {\r\n        for(uint i = 0 ; i < teamLength ; i++) {\r\n            release(payable(payee(i)));\r\n        }\r\n    }\r\n\r\n    /**\r\n    * @notice this will use internal functions to set EIP 2981\r\n    *  found in IERC2981.sol and used by ERC2981Collections.sol\r\n    * @param _royaltyAddress - Address for all royalties to go to\r\n    * @param _percentage - Precentage in whole number of comission\r\n    *  of secondary sales\r\n    **/\r\n    function setRoyaltyInfo(address _royaltyAddress, uint256 _percentage) public onlyOwner {\r\n        _setRoyalties(_royaltyAddress, _percentage);\r\n        emit UpdatedRoyalties(_royaltyAddress, _percentage);\r\n    }\r\n\r\n    modifier callerIsUser() {\r\n        require(tx.origin == msg.sender, \"The caller is another contract\");\r\n        _;\r\n    }\r\n}",
  "sourcePath": "C:\\Users\\Geof\\OneDrive\\Documents\\crypto_project\\mintit\\contracts\\MintitNFTCollection.sol",
  "compiler": {
    "name": "solc",
    "version": "0.8.14+commit.80d49f37.Emscripten.clang"
  },
  "schemaVersion": "3.4.7",
  "updatedAt": "2022-05-26T20:23:49.450Z",
  "devdoc": {
    "author": "Geoffrey B. / Christophe B.",
    "kind": "dev",
    "methods": {
      "MintArt()": {
        "returns": {
          "_0": "newItemId The Id of the minted NFT*"
        }
      },
      "PresaleMintArt(bytes32[])": {
        "returns": {
          "_0": "newItemId The Id of the minted NFT*"
        }
      },
      "approve(address,uint256)": {
        "details": "See {IERC721-approve}."
      },
      "balanceOf(address)": {
        "details": "See {IERC721-balanceOf}."
      },
      "getApproved(uint256)": {
        "details": "See {IERC721-getApproved}."
      },
      "getArtistAddress()": {
        "returns": {
          "_0": "address of the artist*"
        }
      },
      "getCalendar()": {
        "returns": {
          "_0": "uint[] table containing calendar infromation*"
        }
      },
      "getCollectionInfos()": {
        "returns": {
          "_0": "The infos of NFT collection*"
        }
      },
      "isApprovedForAll(address,address)": {
        "details": "See {IERC721-isApprovedForAll}."
      },
      "isPublicWhiteListed(address)": {
        "params": {
          "account": "Account to verify if public whitelisted"
        },
        "returns": {
          "_0": "True if a account is whitelisted for public sale*"
        }
      },
      "name()": {
        "details": "See {IERC721Metadata-name}."
      },
      "owner()": {
        "details": "Returns the address of the current owner."
      },
      "ownerOf(uint256)": {
        "details": "See {IERC721-ownerOf}."
      },
      "payee(uint256)": {
        "details": "Getter for the address of the payee number `index`."
      },
      "release(address)": {
        "details": "Triggers a transfer to `account` of the amount of Ether they are owed, according to their percentage of the total shares and their previous withdrawals."
      },
      "release(address,address)": {
        "details": "Triggers a transfer to `account` of the amount of `token` tokens they are owed, according to their percentage of the total shares and their previous withdrawals. `token` must be the address of an IERC20 contract."
      },
      "released(address)": {
        "details": "Getter for the amount of Ether already released to a payee."
      },
      "released(address,address)": {
        "details": "Getter for the amount of `token` tokens already released to a payee. `token` should be the address of an IERC20 contract."
      },
      "renounceOwnership()": {
        "details": "Leaves the contract without owner. It will not be possible to call `onlyOwner` functions anymore. Can only be called by the current owner. NOTE: Renouncing ownership will leave the contract without an owner, thereby removing any functionality that is only available to the owner."
      },
      "safeTransferFrom(address,address,uint256)": {
        "details": "See {IERC721-safeTransferFrom}."
      },
      "safeTransferFrom(address,address,uint256,bytes)": {
        "details": "See {IERC721-safeTransferFrom}."
      },
      "setApprovalForAll(address,bool)": {
        "details": "See {IERC721-setApprovalForAll}."
      },
      "setCalendar(uint256[])": {
        "params": {
          "dates": "Array containing the startand end dates of all stages*"
        }
      },
      "setPrivateWhitelist(bytes32)": {
        "params": {
          "_newWhiteList": "The new Merkle Root*"
        }
      },
      "setRoyaltyInfo(address,uint256)": {
        "params": {
          "_percentage": "- Precentage in whole number of comission  of secondary sales*",
          "_royaltyAddress": "- Address for all royalties to go to"
        }
      },
      "shares(address)": {
        "details": "Getter for the amount of shares held by an account."
      },
      "supportsInterface(bytes4)": {
        "details": "See {IERC165-supportsInterface}."
      },
      "symbol()": {
        "details": "See {IERC721Metadata-symbol}."
      },
      "tokenByIndex(uint256)": {
        "details": "See {IERC721Enumerable-tokenByIndex}."
      },
      "tokenOfOwnerByIndex(address,uint256)": {
        "details": "See {IERC721Enumerable-tokenOfOwnerByIndex}."
      },
      "tokenURI(uint256)": {
        "params": {
          "_nftId": "The id of the NFT"
        },
        "returns": {
          "_0": "The token URI of the NFT which has _nftId Id*"
        }
      },
      "totalReleased()": {
        "details": "Getter for the total amount of Ether already released."
      },
      "totalReleased(address)": {
        "details": "Getter for the total amount of `token` already released. `token` should be the address of an IERC20 contract."
      },
      "totalShares()": {
        "details": "Getter for the total shares held by payees."
      },
      "totalSupply()": {
        "details": "See {IERC721Enumerable-totalSupply}."
      },
      "transferFrom(address,address,uint256)": {
        "details": "See {IERC721-transferFrom}."
      },
      "transferOwnership(address)": {
        "details": "Transfers ownership of the contract to a new account (`newOwner`). Can only be called by the current owner."
      }
    },
    "title": "Mint It NFT collection",
    "version": 1
  },
  "userdoc": {
    "events": {
      "UpdatedRoyalties(address,uint256)": {
        "notice": "Event emitted after royalties are updated"
      },
      "Whitelisted(address)": {
        "notice": "Event emitted each time a user get whitelisted"
      }
    },
    "kind": "user",
    "methods": {
      "MintArt()": {
        "notice": "Allows to mint NFTs"
      },
      "PresaleMintArt(bytes32[])": {
        "notice": "Allows to mint NFTs"
      },
      "addPublicWhitelist()": {
        "notice": "Add sender adress to the public white list *"
      },
      "getArtistAddress()": {
        "notice": "Returns the adress of the artist of the collection"
      },
      "getCalendar()": {
        "notice": "Returns Mint stages calendar array"
      },
      "getCollectionInfos()": {
        "notice": "Allows to get details information of the NFT collection"
      },
      "initialize(address[],uint256[],string,string,address,uint256[],string[])": {
        "notice": "Constructor parameters of ERC721. Params will be set by Collection Manager"
      },
      "isPublicWhiteListed(address)": {
        "notice": "Returns true if a address is whitelisted"
      },
      "releaseAll()": {
        "notice": "Send shares to all payee*"
      },
      "setBanner(string)": {
        "notice": "Allows to change the banner*"
      },
      "setBaseExtension(string)": {
        "notice": "Allows to change the max supply during the config stage*"
      },
      "setBaseURI(string)": {
        "notice": "Allows to change the max supply during the config stage*"
      },
      "setCalendar(uint256[])": {
        "notice": "Allows to set dates for each sales"
      },
      "setDescription(string)": {
        "notice": "Allows to change the description*"
      },
      "setMaxNbPerWallet(uint256)": {
        "notice": "Allows to change the max supply during the config stage*"
      },
      "setMaxSupply(uint256)": {
        "notice": "Allows to change the max supply during the config stage*"
      },
      "setPresalePrice(uint256)": {
        "notice": "Allows to change the price of a NFT during the config stage*"
      },
      "setPrice(uint256)": {
        "notice": "Allows to change the price of a NFT during the config stage*"
      },
      "setPrivateWhitelist(bytes32)": {
        "notice": "Set a new adresses white list "
      },
      "setRoyaltyInfo(address,uint256)": {
        "notice": "this will use internal functions to set EIP 2981  found in IERC2981.sol and used by ERC2981Collections.sol"
      },
      "setUpStage(uint8)": {
        "notice": "Allows to change the sellinStage value*"
      },
      "tokenURI(uint256)": {
        "notice": "Allows to get the complete URI of a specific NFT by his ID"
      }
    },
    "notice": "NFT collection of an artist",
    "version": 1
  }
}