{
  "contractName": "Users",
  "abi": [
    {
      "anonymous": false,
      "inputs": [
        {
          "indexed": false,
          "internalType": "bool",
          "name": "_created",
          "type": "bool"
        },
        {
          "indexed": false,
          "internalType": "string",
          "name": "_userName",
          "type": "string"
        },
        {
          "indexed": false,
          "internalType": "address",
          "name": "_userAddress",
          "type": "address"
        }
      ],
      "name": "UserUpdated",
      "type": "event"
    },
    {
      "inputs": [
        {
          "internalType": "string",
          "name": "_userName",
          "type": "string"
        },
        {
          "internalType": "string",
          "name": "_userDescription",
          "type": "string"
        }
      ],
      "name": "setUser",
      "outputs": [],
      "stateMutability": "nonpayable",
      "type": "function"
    },
    {
      "inputs": [
        {
          "internalType": "address",
          "name": "userAddress",
          "type": "address"
        }
      ],
      "name": "getUserDetails",
      "outputs": [
        {
          "internalType": "string",
          "name": "name",
          "type": "string"
        },
        {
          "internalType": "string",
          "name": "description",
          "type": "string"
        }
      ],
      "stateMutability": "view",
      "type": "function"
    }
  ],
  "bytecode": "0x608060405234801561001057600080fd5b5061097d806100206000396000f3fe608060405234801561001057600080fd5b50600436106100365760003560e01c80635728b9731461003b578063cc3d967b14610057575b600080fd5b61005560048036038101906100509190610651565b610088565b005b610071600480360381019061006c9190610727565b6102ae565b60405161007f9291906107dc565b60405180910390f35b60008251116100cc576040517f08c379a00000000000000000000000000000000000000000000000000000000081526004016100c39061085f565b60405180910390fd5b816000803373ffffffffffffffffffffffffffffffffffffffff1673ffffffffffffffffffffffffffffffffffffffff1681526020019081526020016000206000019080519060200190610121929190610454565b50806000803373ffffffffffffffffffffffffffffffffffffffff1673ffffffffffffffffffffffffffffffffffffffff1681526020019081526020016000206001019080519060200190610177929190610454565b50600015156000803373ffffffffffffffffffffffffffffffffffffffff1673ffffffffffffffffffffffffffffffffffffffff16815260200190815260200160002060020160009054906101000a900460ff1615150361026d5760016000803373ffffffffffffffffffffffffffffffffffffffff1673ffffffffffffffffffffffffffffffffffffffff16815260200190815260200160002060020160006101000a81548160ff0219169083151502179055507f4502340c596508ad36622fdd2657779a6e851dd75eb0fc820e5220ceacaf050060018333604051610260939291906108a9565b60405180910390a16102aa565b7f4502340c596508ad36622fdd2657779a6e851dd75eb0fc820e5220ceacaf0500600083336040516102a1939291906108a9565b60405180910390a15b5050565b6060806000808473ffffffffffffffffffffffffffffffffffffffff1673ffffffffffffffffffffffffffffffffffffffff1681526020019081526020016000206000016000808573ffffffffffffffffffffffffffffffffffffffff1673ffffffffffffffffffffffffffffffffffffffff16815260200190815260200160002060010181805461033f90610916565b80601f016020809104026020016040519081016040528092919081815260200182805461036b90610916565b80156103b85780601f1061038d576101008083540402835291602001916103b8565b820191906000526020600020905b81548152906001019060200180831161039b57829003601f168201915b505050505091508080546103cb90610916565b80601f01602080910402602001604051908101604052809291908181526020018280546103f790610916565b80156104445780601f1061041957610100808354040283529160200191610444565b820191906000526020600020905b81548152906001019060200180831161042757829003601f168201915b5050505050905091509150915091565b82805461046090610916565b90600052602060002090601f01602090048101928261048257600085556104c9565b82601f1061049b57805160ff19168380011785556104c9565b828001600101855582156104c9579182015b828111156104c85782518255916020019190600101906104ad565b5b5090506104d691906104da565b5090565b5b808211156104f35760008160009055506001016104db565b5090565b6000604051905090565b600080fd5b600080fd5b600080fd5b600080fd5b6000601f19601f8301169050919050565b7f4e487b7100000000000000000000000000000000000000000000000000000000600052604160045260246000fd5b61055e82610515565b810181811067ffffffffffffffff8211171561057d5761057c610526565b5b80604052505050565b60006105906104f7565b905061059c8282610555565b919050565b600067ffffffffffffffff8211156105bc576105bb610526565b5b6105c582610515565b9050602081019050919050565b82818337600083830152505050565b60006105f46105ef846105a1565b610586565b9050828152602081018484840111156106105761060f610510565b5b61061b8482856105d2565b509392505050565b600082601f8301126106385761063761050b565b5b81356106488482602086016105e1565b91505092915050565b6000806040838503121561066857610667610501565b5b600083013567ffffffffffffffff81111561068657610685610506565b5b61069285828601610623565b925050602083013567ffffffffffffffff8111156106b3576106b2610506565b5b6106bf85828601610623565b9150509250929050565b600073ffffffffffffffffffffffffffffffffffffffff82169050919050565b60006106f4826106c9565b9050919050565b610704816106e9565b811461070f57600080fd5b50565b600081359050610721816106fb565b92915050565b60006020828403121561073d5761073c610501565b5b600061074b84828501610712565b91505092915050565b600081519050919050565b600082825260208201905092915050565b60005b8381101561078e578082015181840152602081019050610773565b8381111561079d576000848401525b50505050565b60006107ae82610754565b6107b8818561075f565b93506107c8818560208601610770565b6107d181610515565b840191505092915050565b600060408201905081810360008301526107f681856107a3565b9050818103602083015261080a81846107a3565b90509392505050565b7f75736572206e616d652063616e6e6f7420626520656d70747900000000000000600082015250565b600061084960198361075f565b915061085482610813565b602082019050919050565b600060208201905081810360008301526108788161083c565b9050919050565b60008115159050919050565b6108948161087f565b82525050565b6108a3816106e9565b82525050565b60006060820190506108be600083018661088b565b81810360208301526108d081856107a3565b90506108df604083018461089a565b949350505050565b7f4e487b7100000000000000000000000000000000000000000000000000000000600052602260045260246000fd5b6000600282049050600182168061092e57607f821691505b602082108103610941576109406108e7565b5b5091905056fea26469706673582212206f7ab06ae0950865cdc5a8edce48898bec8924d30527b3b3337e5217d3cabd1064736f6c634300080d0033",
  "immutableReferences": {},
  "source": "// SPDX-License-Identifier: MIT\r\npragma solidity 0.8.13;\r\n\r\ncontract Users {\r\n\r\n    struct user {\r\n      string name;\r\n      string description;\r\n      bool created;\r\n    }\r\n    mapping(address => user) private users;\r\n\r\n    /// @notice Event emitted each time a new user is created or updated\r\n    event UserUpdated(bool _created, string _userName, address _userAddress);\r\n\r\n    /**\r\n      * @notice Create or update a user\r\n      */\r\n    function setUser(string memory _userName, string memory _userDescription) public  {\r\n        require(bytes(_userName).length > 0, \"user name cannot be empty\");\r\n        users[msg.sender].name = _userName;\r\n        users[msg.sender].description = _userDescription;\r\n\r\n        if (users[msg.sender].created == false) {\r\n          users[msg.sender].created = true;\r\n          emit UserUpdated(true, _userName, msg.sender);\r\n        }\r\n        else\r\n          emit UserUpdated(false, _userName, msg.sender);\r\n    }    \r\n\r\n    /**\r\n      * @notice Return the details of a user based on its address\r\n      *\r\n      * @return name of the user\r\n      * @return description of the user\r\n      */    \r\n    function getUserDetails(address userAddress) public view returns (string memory name, string memory description) {\r\n        return (users[userAddress].name, users[userAddress].description);\r\n    }\r\n}\r\n",
  "sourcePath": "C:\\Users\\chris\\git\\myduss\\contracts\\Users.sol",
  "compiler": {
    "name": "solc",
    "version": "0.8.13+commit.abaa5c0e.Emscripten.clang"
  },
  "schemaVersion": "3.4.4",
  "updatedAt": "2022-04-29T21:09:02.211Z",
  "devdoc": {
    "kind": "dev",
    "methods": {
      "getUserDetails(address)": {
        "returns": {
          "description": "of the user",
          "name": "of the user"
        }
      }
    },
    "version": 1
  },
  "userdoc": {
    "events": {
      "UserUpdated(bool,string,address)": {
        "notice": "Event emitted each time a new user is created or updated"
      }
    },
    "kind": "user",
    "methods": {
      "getUserDetails(address)": {
        "notice": "Return the details of a user based on its address"
      },
      "setUser(string,string)": {
        "notice": "Create or update a user"
      }
    },
    "version": 1
  }
}