{
  "contractName": "Users",
  "abi": [
    {
      "anonymous": false,
      "inputs": [
        {
          "indexed": false,
          "internalType": "bool",
          "name": "_created",
          "type": "bool"
        },
        {
          "indexed": false,
          "internalType": "string",
          "name": "_userName",
          "type": "string"
        },
        {
          "indexed": false,
          "internalType": "address",
          "name": "_userAddress",
          "type": "address"
        }
      ],
      "name": "UserUpdated",
      "type": "event"
    },
    {
      "inputs": [
        {
          "internalType": "string",
          "name": "_userName",
          "type": "string"
        },
        {
          "internalType": "string",
          "name": "_userDescription",
          "type": "string"
        }
      ],
      "name": "setUser",
      "outputs": [],
      "stateMutability": "nonpayable",
      "type": "function"
    },
    {
      "inputs": [
        {
          "internalType": "address",
          "name": "userAddress",
          "type": "address"
        }
      ],
      "name": "getUserDetails",
      "outputs": [
        {
          "internalType": "string",
          "name": "name",
          "type": "string"
        },
        {
          "internalType": "string",
          "name": "description",
          "type": "string"
        }
      ],
      "stateMutability": "view",
      "type": "function"
    }
  ],
  "bytecode": "0x608060405234801561001057600080fd5b506105f2806100206000396000f3fe608060405234801561001057600080fd5b50600436106100365760003560e01c80635728b9731461003b578063cc3d967b14610050575b600080fd5b61004e610049366004610440565b61007a565b005b61006361005e3660046104a4565b6101c0565b604051610071929190610521565b60405180910390f35b60008251116100cb5760405162461bcd60e51b815260206004820152601960248201527875736572206e616d652063616e6e6f7420626520656d70747960381b604482015260640160405180910390fd5b3360009081526020818152604090912083516100e992850190610304565b5033600090815260208181526040909120825161010e92600190920191840190610304565b503360009081526020819052604081206002015460ff161515900361018c573360008181526020819052604090819020600201805460ff1916600190811790915590517f4502340c596508ad36622fdd2657779a6e851dd75eb0fc820e5220ceacaf050092610180929186919061054f565b60405180910390a15050565b7f4502340c596508ad36622fdd2657779a6e851dd75eb0fc820e5220ceacaf0500600083336040516101809392919061054f565b6001600160a01b038116600090815260208190526040902080546060918291600182019082906101ef90610582565b80601f016020809104026020016040519081016040528092919081815260200182805461021b90610582565b80156102685780601f1061023d57610100808354040283529160200191610268565b820191906000526020600020905b81548152906001019060200180831161024b57829003601f168201915b5050505050915080805461027b90610582565b80601f01602080910402602001604051908101604052809291908181526020018280546102a790610582565b80156102f45780601f106102c9576101008083540402835291602001916102f4565b820191906000526020600020905b8154815290600101906020018083116102d757829003601f168201915b5050505050905091509150915091565b82805461031090610582565b90600052602060002090601f0160209004810192826103325760008555610378565b82601f1061034b57805160ff1916838001178555610378565b82800160010185558215610378579182015b8281111561037857825182559160200191906001019061035d565b50610384929150610388565b5090565b5b808211156103845760008155600101610389565b634e487b7160e01b600052604160045260246000fd5b600082601f8301126103c457600080fd5b813567ffffffffffffffff808211156103df576103df61039d565b604051601f8301601f19908116603f011681019082821181831017156104075761040761039d565b8160405283815286602085880101111561042057600080fd5b836020870160208301376000602085830101528094505050505092915050565b6000806040838503121561045357600080fd5b823567ffffffffffffffff8082111561046b57600080fd5b610477868387016103b3565b9350602085013591508082111561048d57600080fd5b5061049a858286016103b3565b9150509250929050565b6000602082840312156104b657600080fd5b81356001600160a01b03811681146104cd57600080fd5b9392505050565b6000815180845260005b818110156104fa576020818501810151868301820152016104de565b8181111561050c576000602083870101525b50601f01601f19169290920160200192915050565b60408152600061053460408301856104d4565b828103602084015261054681856104d4565b95945050505050565b831515815260606020820152600061056a60608301856104d4565b905060018060a01b0383166040830152949350505050565b600181811c9082168061059657607f821691505b6020821081036105b657634e487b7160e01b600052602260045260246000fd5b5091905056fea2646970667358221220750f52c333e4bf47321b43c5887e824d19b005a353a7fa74f25aa1fad226f19464736f6c634300080e0033",
  "immutableReferences": {},
  "source": "// SPDX-License-Identifier: MIT\r\npragma solidity 0.8.14;\r\n\r\n/** \r\n  * @title MintIt Users smart contract\r\n  * @author Geoffrey B. / Christophe B.\r\n  * @notice Users contract to manage User informations\r\n  */\r\ncontract Users {\r\n\r\n    struct user {\r\n      string name;\r\n      string description;\r\n      bool created;\r\n    }\r\n    mapping(address => user) private users;\r\n\r\n    /// @notice Event emitted each time a new user is created or updated\r\n    event UserUpdated(bool _created, string _userName, address _userAddress);\r\n\r\n    /**\r\n      * @notice Create or update a user\r\n      */\r\n    function setUser(string memory _userName, string memory _userDescription) public  {\r\n        require(bytes(_userName).length > 0, \"user name cannot be empty\");\r\n        users[msg.sender].name = _userName;\r\n        users[msg.sender].description = _userDescription;\r\n\r\n        if (users[msg.sender].created == false) {\r\n          users[msg.sender].created = true;\r\n          emit UserUpdated(true, _userName, msg.sender);\r\n        }\r\n        else\r\n          emit UserUpdated(false, _userName, msg.sender);\r\n    }    \r\n\r\n    /**\r\n      * @notice Return the details of a user based on its address\r\n      *\r\n      * @return name of the user\r\n      * @return description of the user\r\n      */    \r\n    function getUserDetails(address userAddress) public view returns (string memory name, string memory description) {\r\n        return (users[userAddress].name, users[userAddress].description);\r\n    }\r\n}\r\n",
  "sourcePath": "C:\\Users\\Geof\\OneDrive\\Documents\\crypto_project\\mintit\\contracts\\Users.sol",
  "compiler": {
    "name": "solc",
    "version": "0.8.14+commit.80d49f37.Emscripten.clang"
  },
  "schemaVersion": "3.4.7",
  "updatedAt": "2022-05-26T20:23:49.533Z",
  "devdoc": {
    "author": "Geoffrey B. / Christophe B.",
    "kind": "dev",
    "methods": {
      "getUserDetails(address)": {
        "returns": {
          "description": "of the user",
          "name": "of the user"
        }
      }
    },
    "title": "MintIt Users smart contract",
    "version": 1
  },
  "userdoc": {
    "events": {
      "UserUpdated(bool,string,address)": {
        "notice": "Event emitted each time a new user is created or updated"
      }
    },
    "kind": "user",
    "methods": {
      "getUserDetails(address)": {
        "notice": "Return the details of a user based on its address"
      },
      "setUser(string,string)": {
        "notice": "Create or update a user"
      }
    },
    "notice": "Users contract to manage User informations",
    "version": 1
  }
}